:020000040800F2
:1000000040060020C93C0008713B0008733B000813
:10001000753B0008773B0008793B000800000000B2
:100020000000000000000000000000007B3B000812
:100030007D3B0008000000007F3B0008813B00087A
:10004000093D00080D3D0008113D0008153D000860
:10005000193D00081D3D0008993B0008253D00089A
:10006000293D00082D3D0008313D0008353D0008C0
:10007000393D00083D3D0008413D0008453D000870
:10008000493D00084D3D0008513D0008553D000820
:10009000093C00085D3D0008613D0008653D000821
:1000A000693D00086D3D0008713D0008753D000880
:1000B000793D00087D3D0008813D0008853D000830
:1000C000893D00088D3D0008913D0008953D0008E0
:1000D000993D00089D3D0008A13D0008A53D000890
:1000E000A93D0008AD3D00080D3C0008B53D0008E5
:1000F000B93D0008BD3D0008C13D0008C53D0008F0
:10010000000000000000000000000000C93D0008E1
:10011000CD3D0008D13D0008D53D0008D93D00087F
:10012000DD3D0008E13D0008E53D0008E93D00082F
:10013000ED3D0008F13D0008000000000000000057
:10014000F53D0008F93D0008FD3D000800000000F5
:10015000000000000000000000000000000000009F
:100160000000000000000000013E0008053E0008FD
:10017000093E000800000000000000000000000030
:10018000000000000D3E0008DFF8184B04F11C00D1
:1001900000F0CAFD206A6421B0FBF1F0B0F1807F6D
:1001A0000DD20002DFF8001B000A401E4860F0225A
:1001B000DFF8F80A0270002088600720086000203D
:1001C00000F022FF012000F01FFF022000F01CFFC2
:1001D000032000F019FF042000F016FF052000F0B6
:1001E00013FF062000F010FF072000F00DFF012193
:1001F000002000F047FF00F061FB002060669FEDEB
:10020000A8FADFEDA8EA9FEDA8EAB3EE09CADFED90
:10021000A7CA9FEDA7DADFEDA7DA9FEDA78B9FEDC9
:10022000A89B9FEDA9AB9FEDAABB6FF0040500F062
:1002300036FB00F03DFB00F027FB00F036FB00F042
:100240003AFB00F029FB00F024FB00F02BFB26E03A
:1002500000F00DFF00F01BFB022000F008FF00F093
:1002600016FB042000F003FF00F011FB062000F055
:10027000FEFE00F00CFB072000F0F9FE00F007FB8B
:10028000052000F0F4FE00F002FB032000F0EFFE7A
:1002900000F0FDFA012000F0EAFE00F0F8FA606ECE
:1002A0000028D5D00020A07000F0D8FE00F000FBA0
:1002B00000F0EAFA00F0F9FA00F0FDFA00F0ECFACA
:1002C00000F0E7FA00F0EEFA00F012FB0DE006286D
:1002D000A4BF072000F0B9FE94ED160A00F0C6FA9C
:1002E000A84202DA002000F0B0FE606E01283ED184
:1002F00000F0B6FA00F0B2FE00F0DAFA00F0C4FA4C
:1003000000F0D3FA00F0D7FA00F0C6FA00F0C1FA14
:1003100000F0C8FA04F1580000F00AFB94ED160A48
:10032000BDEEC00A10EE100A40B200284CBF414298
:10033000014694ED170A2170BDEEC00A10EE101AA6
:1003400049B200294CBF4A420A466270627823785B
:100350009A42BCD3A942BCBF032000F076FE94EDC4
:10036000170A00F083FA0628BFDB0420BBE7002051
:10037000A07000F09AFA00F092FA00F099FA00F0FA
:1003800083FA00F098FA00F087FA00F082FA00F0A1
:1003900089FA00F033FB19E0042000F068FE032026
:1003A00000F065FE072000F062FE052000F05FFE11
:1003B000062000F05CFE002000F059FE012000F055
:1003C00056FE022000F053FE00F061FA606E022833
:1003D0007FF42DAF00F044FA201D00F0B7FB04F1CC
:1003E000100000F03FFB002004EB8001DFEDDB0A92
:1003F00091ED040A80EE200A401C81ED040A0328D6
:10040000F2DB94ED041AD4ED050A94ED060A21EE10
:10041000011A00EEA01A00EE001A11EE100A00F008
:10042000C5FE00F02DFA00F027FAE06694ED050A0B
:10043000D4ED1B0A80EE200AB1EE400A84ED1C0ABE
:1004400000F008FA00F0EDF900F01AFA00F014FAE2
:1004500094ED040AD4ED1B0A606780EE200A84ED57
:100460001E0A00F0F7F900F0DCF900F009FA00F0DC
:1004700003FAE067D4ED1DFA1FEE900A00F096FE35
:1004800094ED1C1A00F0D3F926DDF1EE10FA2FDD01
:1004900000F04CFF00F0D8F900F0D2F932E000BFD4
:1004A0000000E64200008C420000AA430100204206
:1004B0000000B4C30000B443000000000080764098
:1004C00000000060FB210940000000000080664041
:1004D000000000000000F03FF1EE10FA08DD00F02F
:1004E00025FF00F0B1F900F0ABF953EC182B07E051
:1004F00000F01CFF00F0A8F900F0A2F953EC1A2B51
:1005000000F01CFF00F08EFF00EE100AD4ED1FFA81
:1005100084ED200A1FEE900A00F048FE94ED1E1AAA
:1005200000F085F909DDF1EE10FA12DD00F0FEFEB3
:1005300000F08AF900F084F915E0F1EE10FA08DD18
:1005400000F0F4FE00F080F900F07AF953EC182B7B
:1005500007E000F0EBFE00F077F900F071F953ECE2
:100560001A2B00F0EBFE00F05DFFD4ED200AF4EE54
:100570006D0A00EE100AF1EE10FAA4BF70EE8D0ABB
:10058000C4ED200AB4EE6D0AF1EE10FAA8BF30EE09
:100590000D0A84ED210A94ED1F1AD4ED011A94ED91
:1005A0001E0A94ED032AD4ED1C2A61EE810A42EE64
:1005B000000A61EEA21A21EE800A94ED022AD4ED1F
:1005C0001D1AC4ED220A02EE210A62EE221A01EE81
:1005D000C10A84ED230A00F06DFFDFEDC20A20EEB0
:1005E000200ADFEDC10A80EE200A84ED1A0A00F02D
:1005F00007F905D594ED1A0A30EE2D0A84ED1A0A92
:1006000094ED200AB4EE6C0AF1EE10FA42BF94EDBC
:10061000210AB4EE6C0AF1EE10FA7FF5BDAE00F0DF
:10062000E8F802D500F0ECF809DA00F0DBF81ADBA4
:1006300094ED1A0ADFEDAD0A00F0EEF813D50720AD
:1006400000F003FD00F02BF900F032F900F01CF986
:1006500000F02BF900F020F9062000F0FFFC02204A
:1006600000F0FCFCB2E600F0B6F815D500F0C1F8D9
:1006700012DB062000F0E9FC00F01AF900F01BF98B
:1006800000F00DF9052000F0E9FC00F00BF9012065
:1006900000F0E4FC0420E3E700F096F811D500F048
:1006A0009AF80EDB042000F0D0FC00F0F8F800F01F
:1006B000FCF800F0EEF800F0FEF800F0EDF8032092
:1006C000CBE700F0A5F813D500F07EF810DB022090
:1006D00000F0BBFC00F0ECF800F0EDF800F0DCF806
:1006E00000F0D7F800F0D0F800F0DFF80020B7E70E
:1006F00094ED1A0ADFEDBE0A00F08EF811D500F075
:1007000087F80EDB002000F0A0FC00F0D1F800F02C
:10071000CCF800F0C1F800F0BCF800F0C3F80720F6
:10072000B6E794ED1A0ADFEDB30A00F075F817D5B5
:1007300094ED1A0ADFEDAE0A00F06EF810DB01202E
:1007400000F083FC00F0B4F800F0B5F800F0A4F875
:1007500000F09FF800F0A6F8002099E70000C842DA
:1007600094ED1A0ADFEDA40A00F056F811D594EDC5
:100770001A0ADFEDA00A00F04FF80ADB032000F0B0
:1007800064FC00F086F800F096F800F085F8002090
:1007900079E700F027F87FF519AE94ED1A0ADFED3E
:1007A000960A00F039F8FFF611AE052000F04DFC76
:1007B00000F07EF800F07FF800F066F800F069F8CD
:1007C00000F06DF8012048E794ED1A0AB4EE4F0AE4
:1007D000F1EE10FA704794ED1A0AB4EE6E0AF1EEDB
:1007E00010FA704794ED1A0AB4EE4E0AF1EE10FAC0
:1007F000704794ED1A0AB4EE4C0AF1EE10FA704705
:1008000094ED1A0AB5EE400AF1EE10FA70470000B6
:1008100094ED1A0ADFEDC90AB4EE600AF1EE10FA9F
:10082000704702460B4651EC1B0B00F07BBEB5EE49
:10083000401AF1EE10FA41EC100BF5EE40FA704759
:1008400053EC192B00F02EBF53EC102B51EC1A0B6C
:1008500001F04CB820EE000A10EE100A00F0A6BC21
:10086000A0780528FCD10020A0707047BDEEC00A1A
:1008700010EE100A40B2704751EC100B00F0D2BDE0
:1008800041EC100B01F004B9042000F0E7BB052097
:10089000EEE1062000F0E2BB052000F0DFBB002007
:1008A00000F0DCBB022000F0D9BB012000F0D6BB79
:1008B000032000F0D3BB072000F0D0BB80B501F0CF
:1008C00067F901F0ADF901F0E1F901F047FADFF85D
:1008D000E003DFF8E0130A68052A1CBF0268002A5B
:1008E000F9D101BD00003443DB0F49400100B4439E
:1008F000E0B508208DF8000000208DF801000720E9
:100900008DF8020030208DF803000020ADF80400BF
:1009100010208DF8060000A801F030FA0020ADF894
:10092000080002A801F05BFA102001F06CFA07BD84
:1009300030B52DED028B85B0044601A800210022C0
:1009400006C006C08DF800100D469FEDD18A012229
:10095000232100A801F081FA0622282101A801F034
:100960007CFA9DF8002003A801A952060DD401AA23
:1009700002EB450211F81530527813EB022220F8F1
:1009800015206D1C032DF2DB0DE001AB03EB4503DD
:1009900011F815205B78120252FA83F220F8152024
:1009A0006D1C032DF1DB9DF8001011F0300106D015
:1009B000102907D0202908BF9FEDB68A04E09FEDDB
:1009C000B68A01E09FEDB58A002130F9112000EED2
:1009D000102AB8EEC00A04EB810280EE080A491C16
:1009E00082ED000A0329F0DB05B0BDEC028B30BDBF
:1009F00000004D4300007A430080934300B585B06A
:100A000000208DF8040014208DF80500E0208DF8FA
:100A1000070000208DF8060001A801F054FB00201B
:100A20008DF8080040208DF8090007208DF80A0095
:100A300000208DF80E00ADF80C0008208DF80B009A
:100A400002A801F0F7FA80208DF8000010208DF840
:100A500001000020ADF8020000A801F012FB05B073
:100A600000BD0000F0B52DED028B85B00446B7EE59
:100A7000008A00F065F8062301AA2821322001F03F
:100A8000B2FB00AE01A8717803AD490648BF402112
:100A900004D49DF800201021520611D4002201AB8D
:100AA00003EB42035B7810F812701B0207FA83F322
:100AB00093FBF1F325F81230521C032AEFDB12E00E
:100AC000002201AB03EB420310F812105B7809021D
:100AD00003FA81F1CB1001EB1371091125F8121003
:100AE000521C032AEDDB00F02BF8707840060FD47F
:100AF0009DF8000000F03000102806D0202807D014
:100B0000302808BF9FED668A04E0B6EE008A01E057
:100B1000B5EE008A002035F9101000EE101AB8EE7C
:100B2000C00A04EB800180EE080A401C81ED000A37
:100B30000328F0DB05B0BDEC028BF0BD00002043C4
:100B4000022300AA2321322001F04DBBF8B5044650
:100B500000208DF8000006460123002500AA194652
:100B60003C2001F040FB544F01233A46032100F0A2
:100B70007CF801237A1C042100F077F80123BA1CC9
:100B8000072100F072F80123FA1C082100F06DF82B
:100B900001233A1D052100F068F801237A1D062182
:100BA00000F063F89DF8001001F0E0014FF4C87008
:100BB00020290ED0402911D0602914D0802917D0C7
:100BC000A02919D0C0291BD0E02904BFE625CD26D5
:100BD0001AE040F24C454FF4757615E040F2573577
:100BE0004FF43E7610E040F29E254FF416760BE06F
:100BF0004FF4E175064607E0054640F2631603E050
:100C00004FF4A57540F2271600214FF47A7007EBD8
:100C1000410317F811205B78120252FA83F212FB9B
:100C200000F200EE102A00EE905AB8EEC00AF8EE7C
:100C3000600A04EB810280EE200A491C82ED000A62
:100C40000229E4DB39797A7912EB012111FB00F0FA
:100C500000EE100A00EE906AB8EEC00AF8EE600AE4
:100C600080EE200A84ED020AF1BD3C2001F0BBBAFF
:100C700001B412480099016001680029FCD101B05B
:100C800070470E48016811B10168491E0160704744
:100C9000000000005C8F6441EC91E4425492644295
:100CA0009FCDAA3D4C01002010E000E023ED00E0C4
:100CB000340100202C0200200C020020140200202D
:100CC0000020704700207047DFF80C1300220A70E4
:100CD0000870704710B582B00020009000241120E9
:100CE00000F05FF90099491C00910099B1F5A06FDF
:100CF00001D00028F3D0112000F053F900B10124F5
:100D0000204616BDDFF8D81208607047DFF8CC1215
:100D10000A68920850EA820008607047DFF8BC0257
:100D2000006800F00C007047F0B5DFF8B012DFF893
:100D3000B4220C68002304F00C04082C13D10B68B7
:100D40000C68C3F383439B1CE40303D4DFF898428D
:100D5000634306E08C6A04F00F04641CB2FBF4F4F5
:100D600063431C4600E0144604600D68DFF87C42D3
:100D7000C5F303152D5D076827FA05FCC0F804C00C
:100D80000E68C6F30226365D2CFA06F686600E68FB
:100D9000C6F3C226365D2CFA06FCC0F80CC0D1F8AA
:100DA00028C0CCF3041C04EB4C0CBCF810C05FEA68
:100DB000CC6E48BFB3FBFCF707618F6AC7F34427CB
:100DC00004EB4704248AE7064CBFB3FBF4F4046841
:100DD0004461CC6AE40654BF144604688461CC6A5A
:100DE000A40654BF14460468C4615C00CF6AFF05C2
:100DF00005D507689F4204BFAE42274600D0C768AA
:100E00000762CF6ABF0504D507689F4208BFAE429C
:100E100000D0C46844624FF40043CC6A14F0030F5E
:100E200008BFC46805D0CC6A04F00304012C02D1C9
:100E3000046884620CE0CC6A04F00304022C08BF4E
:100E4000836205D0CC6A04F00304032C08BF8262DD
:100E5000CC6A14F4403F08BF846806D0CC6A04F41E
:100E60004034B4F5803F02D10468C4620EE0CC6A1D
:100E700004F44034B4F5003F08BFC36206D0CC6A26
:100E800004F44034B4F5403F08BFC262CC6A14F4A5
:100E9000402F08BF846806D0CC6A04F44024B4F51F
:100EA000802F02D1046804630EE0CC6A04F440246D
:100EB000B4F5002F08BF036306D0CC6A04F44024C5
:100EC000B4F5402F08BF0263CC6A14F4401F08BF7A
:100ED000846806D0CC6A04F44014B4F5801F02D1B3
:100EE000046844630EE0CC6A04F44014B4F5001FB7
:100EF00008BF436306D0CC6A04F44014B4F5401F25
:100F000008BF4263CC6A14F4400F08BF816806D062
:100F1000CC6A04F44004B4F5800F02D10168816307
:100F2000F0BDCC6A04F44004B4F5000F01D1836332
:100F3000F0BDC96A01F44001B1F5400F08BF8263FA
:100F4000F0BD2B49086070472A4A0029116814BF78
:100F5000084321EA000010607047274A0029116801
:100F600014BF084321EA000010607047234A00299B
:100F7000116814BF084321EA000010607047204A3E
:100F80000029116814BF084321EA0000106070476F
:100F90001C4A0029116814BF084321EA00001060B0
:100FA0007047002142090B4B08BF1A6807D0012A7D
:100FB00008BF1A6A03D0042A0CBF5A685A6A012370
:100FC00000F01F0003FA00F0024218BF012108469A
:100FD000704700000010024002100240041002405E
:100FE0006000424200127A0000093D0030000020FB
:100FF000D800424214100240181002401C10024057
:101000000C100240101002401CB504460FF23810BC
:10101000012150F82400FFF797FF0FF21C1000A9E0
:1010200030F81400009001208DF8040000208DF8A5
:10103000060001208DF8070003208DF805003C48CC
:1010400050F8240001F0CCF913BD39490FF2E80241
:1010500051F8201032F810008861704734490FF2BF
:10106000D80251F8201032F8100008857047304936
:101070000FF2C40351F820108A8A33F81000504050
:101080008882704730B504460FF2E0000D4650F8F4
:10109000240085B00121FFF757FF01210120FFF750
:1010A0005CFF00208DF810008DF8130003A90FF2EB
:1010B000B80030F8140003901E4850F8240001F0E6
:1010C0008FF9012D28D10FF2B000215C0FF2A4009E
:1010D000205C01F0D9F90FF2980030F8140001906B
:1010E00000208DF8080008208DF8090001208DF8F7
:1010F0000A0001A801F0DCF90FF28000205C8DF8F5
:1011000000000F208DF801008DF8020001208DF8FD
:10111000030000A801F067FA05B030BD0FF24801E6
:10112000044A31F8101052F8200001F090B9000084
:10113000800000203801002000020001000400802F
:1011400000080040001000200000200000002000E7
:10115000000020000000200000002000000020000F
:10116000000020000000200001000000000002003C
:10117000000000000000000000000000060010B4A5
:1011800050F8041B81B102681218001D50F8043B8E
:10119000DC0744BFA9F10104E31852F8044B43F8FB
:1011A000044B091FF9D1EBE710BC70475FF0FF0C4F
:1011B0001CEAD05114BF614506E0C110400721F080
:1011C000E04101F16051704779B900F0004100023F
:1011D0000AD0B0FA80FC00FA0CF001F16051A1EBEA
:1011E0000C5101EBD0214005704741020CBF40F487
:1011F000E0016FF000010020704750F8041B61B15E
:1012000050F8042BD30744BFA9F101039A18002317
:1012100042F8043B091FFAD1EFE77047D0B52DED36
:10122000048B82B041EC180B8DED008BDDE90023BF
:10123000C3F30A5140F2FF72914206D1190350EAFA
:10124000113018BF51EC180B61D151EC180B002272
:10125000002301F0FFF93DBF81F0004141EC180B84
:101260000424022451EC180B2B4A2C4B01F0F2F908
:101270001CD29FED2C9B51EC190B53EC182B00F05A
:1012800051F906460F4653EC182B51EC190B00F0A0
:1012900055F832463B4600F029FB00F001FC41ECDA
:1012A000100B51EC180B53EC102B1EE001221C4BC1
:1012B00001F0D0F923D29FED1B9B51EC190B53EC9D
:1012C000182B00F02FF906460F4653EC182B51EC63
:1012D000190B00F033F832463B4600F007FB00F0F4
:1012E000DFFB84F0020453EC182B00F0DBF902B0B2
:1012F0002246BDEC048BBDE8D04001F0C9B901F035
:10130000BFFA212101604FF0FF306FF0004102B0C1
:10131000BDEC048BD0BD0000CE3B7F669EA0E63FB7
:101320000000F03F000000000000F03F80B551ECED
:10133000100BFFF773FF41EC100B01BD70B44FF0C1
:10134000004591EA030C44BF6B4000F0F5B800BFC4
:10135000841A71EB030603D2001BB14112197341C9
:101360004FF4001C1CEB410F34BF7CEB430443E003
:101370000C0DA4EB1356352E50DC45EAC323DB0AD3
:1013800045EAC121C912B6F120050DDD63FA05F663
:10139000EB4086EA0305124218BF45F00105C0186C
:1013A00051F100010CD213E062FA06F5F24055400B
:1013B000F3415A40B340F3405A408018594107D393
:1013C00049085FEA30005FEA350528BF45F00105AE
:1013D00001F58011420875F1004250F1000041EB27
:1013E000045170BC4FF4001C1CEB410F38BF704718
:1013F0000020090D090570471CEB410F10D252EA7D
:1014000043060BD0BCEB410F05D80C0DAB43661E59
:10141000342EB5DD02E0AB438018594170BC7047F3
:1014200070BC70474FEAF17CBCF1E04C2CBFBCF5BE
:10143000001F11E05FEA4C0C34BFBCF17F5F2EE06F
:101440005FEA9C0C4FEA0C1C4FEA3C0CC10071F1A6
:1014500000414CEB50707047C90241EA5051C00244
:1014600018BF41F0010141F000414FEA6C50C0F15A
:101470000900212810D240EACC7CCCF1200C11FAD2
:101480000CF070F10040CCF1200C21FA0CF00CF0C3
:10149000004C40EB0C0070474FEACC70704749009D
:1014A00011F5001F04D84FEACC10FF30C00570477B
:1014B000C817704710EE101A10EE902AB0EEC00A4E
:1014C000C80F49005200F0EEE00A28BF0C3011F1BD
:1014D000807F38BF12F1807F0CD28A4238BF80F003
:1014E0000400124214D034BF80EE800A80EE200A3D
:1014F00001F0CCB911F1807F08BF80F0040098BFE3
:1015000012F1807F08D88A4214BF00224FF07E5229
:1015100000EE102A01F0BAB96FF0004100EE101A87
:101520007047000070B44FF0004591EA030F44BFCC
:101530006B40FFF70DBF00BF841A71EB030604D2A6
:101540006E40001BB141121973414FF4001C1CEB9B
:10155000410F34BF7CEB430684E00C0DA4EB135623
:10156000362E7DDC012E43DC45EAC32343EA525389
:1015700012BFD20292025B08240545EAC12141EA6A
:101580005051D2EBC020994125D407D1B0FA80F652
:1015900010FA06F164D00020203608E0B1FA81F696
:1015A000B140C6F1200220FA02F21143B0404FEAE6
:1015B000F474B4EB465434F001064FEA74040AD8CC
:1015C000D6F50016760D04F00044F04061FA06F2FC
:1015D0005040F1404840C00A40EA415021F00041EB
:1015E00028BF5FEA500550F1000044EBD12137E0FD
:1015F00045EAC323DB0A45EAC121C90AB6F1200541
:101600000EDD42EA0242120CC5F1200603FA06F68C
:10161000EB4042EA06056D42984161F100010DE0A0
:1016200062FA06F5F240554063FA06FC82EA0C02C3
:10163000F3405A406D42904161EB030111F4801F69
:1016400005D1641E620502D06D004041494121F47C
:101650008011430875F1004350F1000041EB045143
:1016600070BC70471CEB410F15D223F0004352EAC7
:1016700043060BD04FEA4C0CBCEB410F04D80C0DC9
:10168000661E342EB7DDEBE7801A994150EA410619
:1016900008BF0021E4E708BF1CEB430F28BF6FF031
:1016A0000001DDE7F0B540F2FF7581EA030C0CF0B4
:1016B000004C15EA11541DBF15EA1357AC42AF4256
:1016C000E5E0BC41C1F31301C3F31303801A994150
:1016D00043F4801304D2641E4000494180185941EC
:1016E000C90241EA5051B1FBF3F603FB1611A2FB0C
:1016F0000675D7EBC020A94102D2761E8018594149
:10170000C90241EA5051B1FBF3FE03FB1E11A2FBDB
:101710000E75D7EBC020A94103D2AEF1010E80189F
:101720005941890241EA9051760546EA8E2EB1FB75
:10173000F3F603FB1611A2FB0675D7EB8020A94137
:1017400002D2761E80185941C90241EA50514EEA30
:10175000060EB1FBF3F603FB1611A2FB0675D7EBE1
:10176000C020A94102D2761E80185941C90241EA1F
:101770005051B1FBF3F703FB1711A2FB0735D3EB75
:10178000C020A94167F100070CBF004247F00107E4
:1017900066F3D5274FEA1E31B80814F5806412DDD0
:1017A000BD0775F1004250EB0E5051EB045111F59D
:1017B000801F5CBF41EA0C01F0BD4CF07F6141F03D
:1017C000E0410020F0BDBD076D0840EA0E5041F435
:1017D0008011D4F10104B4F120060ADAC4F1200624
:1017E0000200E04001FA06F3E1401843B24015431D
:1017F0000EE0342C13DCC6F1200445EA40056D08E8
:1018000020FA06F2154321FA06F0A1400D4300210B
:1018100075F1004250F1000051EB0C01F0BD0020C9
:101820005FEA0C01F0BDCFB992185B41B3FA83F7C0
:1018300004BFB2FA82F6BF190B3FB7F120062FBFE3
:1018400002FA06F3BB40C7F1200622FA06F638BFBB
:101850003343BA401CB1E419641E33E77F4231F0D0
:101860000041B1FA81F404BFB0FA80F6A4190B3C30
:10187000B4F120062FBF00FA06F1A140C4F1200602
:1018800020FA06F638BF3143A0403C1B1AE7AC42B1
:101890001ABF05EA1357AF4212E050EA41061CBFD7
:1018A00052EA4306BFE750EA4107304661461CBF93
:1018B00041EA0551F0BD52EA430C08BFC143F0BDF7
:1018C00000204FF4001616EB410F98BF16EB430FA4
:1018D00008BF16EB410F24BFC14305E016EB430FD1
:1018E0000CBF61464CEA0551F0BD0000B0B581EA7D
:1018F000030C0CF0004C40F2FF7515EA11541DBFAB
:1019000015EA1357AC42AF4239E0E41923EA4553D4
:1019100043F48013C90241F0004141EA505EC7021E
:101920001100A7FB020200284FF00000EEFB01208F
:101930004FF00001E3FB072118BF42F001024018FD
:1019400000214941E3FB0E01A4F580640F0302D29C
:1019500052004041494154F101046CDD470872F1E5
:10196000004250F1000051EB0451A1F580115CBF21
:1019700041EA0C01B0BD4CEA05510020B0BD05EABA
:101980001357AC4214BFAF4241E050EA410E1CBFB6
:1019900052EA430E02E061460020B0BD24423C44BE
:1019A0001BD15FEA070EF6D0090302BF01460020F3
:1019B000AEF1140EB1FA81F7AEEB070401FA07FE9F
:1019C0000C37C7F1200100FA07F7C8404EEA000EB5
:1019D00023EA455343F48013A2E733F00043B3FAFC
:1019E00083F704BFB2FA82FE77440B3FE41BB7F1E2
:1019F000200E2FBF02FA0EF3BB40C7F1200E22FAD1
:101A00000EFE38BF43EA0E03BA40641C82E750EA78
:101A1000410E14BF52EA430E6FF000014FF400175D
:101A200017EB430F8ABF194617EB410FB5E74CEA96
:101A300005510020B0BDD4F10104B4F120070FDA44
:101A4000C4F12007520828BF42F0010210FA07F53E
:101A500001FA07F7E1BF2A43E0403843E1400FE0D5
:101A6000352C98DCC7F1200452EA400220FA07F234
:101A700018BF42F0010231FA07F0A1400A430021E9
:101A800072F1004250F1000051EB0C01B0BD0000BA
:101A900051EC100B00B500F003F841EC100B00BD49
:101AA00040F2FF7C0B0D4DD0634566D230B421EA85
:101AB000035141F4801103F2FD3C5FEA5C0C01D359
:101AC00000184941890041EA907180004FF44014A8
:101AD0000023E202D50AB1F5100107D46D081DD22A
:101AE000091B641900184941491BF7D56D080AD232
:101AF0000919641B00184941491BEFD56D08F7D33C
:101B000001E0520817D0C01861419B1AAC4100187F
:101B10004941801AA941F4D452080AD0C01AA141FF
:101B20009B186C4100184941801AA941E9D4520818
:101B3000F4D15B1C6C4161084FEA330001EB0C519E
:101B400030BC704750EA0103FBD030B4B1FA81F3E6
:101B500011B9B0FA80F41B190B3BB3F120042FBF6D
:101B600000FA04F19940C3F1200420FA04F438BFCC
:101B700021439840D3F101039DE76345E1D011F57E
:101B8000801FDED850EA4101DBD0D94300F0D0BE3F
:101B900000B583B001214FF08050FFF7E7F9012134
:101BA0000120FFF7DAF901214FF40010FFF7CCF91B
:101BB00001214FF40030FFF7C7F94FF4C0500090F7
:101BC00003208DF8050002208DF804000020ADF8F8
:101BD000060000A94FF0904000F002FC0E220B21FD
:101BE0004FF0904000F03EFC0E220C214FF0904050
:101BF00000F038FC01210020FFF744FA122000F029
:101C0000D8FC454812210160002101710821417171
:101C10000121817100F04CFC002000F0CAFC07BDDE
:101C200080B50020FFF78DF9BDE8044001214FF495
:101C30000000FFF79BB93A4803210160002000F043
:101C4000B8BC80B50120FFF73FF8FFF743F83549EE
:101C500008701120FFF7A5F90028FAD00120FFF73E
:101C600051F81920FFF79DF90028FAD00220FFF75C
:101C70004DF8FFF753F80828FBD12B492848897AFB
:101C8000002914BF05210121016001BD80B54FF479
:101C9000A06000F0A3FC14208DF8000002208DF855
:101CA000010000208DF80200012000F012F82A2027
:101CB0008DF8000001208DF8010000F00AF80620E0
:101CC0008DF8000000208DF8010000A800F08BFCCA
:101CD00001BD8DF8030000A800F085BC0F4A002864
:101CE0004FF48041104618BF00F0BABB00F0B6BBFD
:101CF00038B50E4801684468806840180BD00C4D18
:101D00000822A91C00F016F805F112012046BDE8D2
:101D1000384004220EE031BD0402002000100048CB
:101D20002C0200203A020020DC010020E8F7FF1F0F
:101D3000C000002030B50023002506E001F8134064
:101D400001EB4304000165705B1C934205DA040F4C
:101D50000A2C34BF30343734F0E730BD0448054A2C
:101D6000C0610221017242620349016208680047B2
:101D7000DC0100205C0000200000002010B582B0D3
:101D800004460020ADF8000000F08AF800F01DF8CD
:101D9000A2781143E278114308438DF801002179BC
:101DA00062799DF800001143A27900F008F8202123
:101DB0000DF1010000F03AF8012223210BE011435C
:101DC00008438DF8000001227047217862789DF861
:101DD00001001143704700A800F028F813BD10B5AA
:101DE00082B004460122212100A800F036F89DF8B7
:101DF000000000F0C0008DF8000021786278FFF745
:101E0000DEFF2121E7E710B582B0044600F00AF8B2
:101E10009DF8000000F0EF0020438DF80000012243
:101E20002421D8E70122242100A816E0F8B516469F
:101E300004460D46022E28BF45F0400500F02BF861
:101E4000284600F0C6F804E014F8010B00F0C1F8D1
:101E5000761EB6B2002EF7D117E0F8B51546044647
:101E6000022D2CBF41F0C00641F0800600F013F8AF
:101E7000304600F0AEF805E0002000F0AAF804F8C3
:101E8000010B6D1EADB2002DF6D13846BDE8F44011
:101E9000082100F0E3BA644F0821384600F0E0BAA8
:101EA00010B588B001214FF48050FFF756F801219A
:101EB0004FF40030FFF748F800F080F800F07EF8AB
:101EC00000F07CF80522052100F074F805220621B7
:101ED00000F070F80522072100F06CF802208DF860
:101EE00004000020ADF8060003208DF80500202036
:101EF00000F069F8802000F066F8402000F063F8F8
:101F00004A4C204600F01AFD0020ADF808004FF4BE
:101F1000E060ADF80C000020ADF80E00ADF8100048
:101F20004FF40070ADF812001020ADF8140000203E
:101F3000ADF816000720ADF818004FF48270ADF828
:101F40000A0002A9204600F02BFD4FF480512046E4
:101F500000F06FFD0121204600F061FD0820009097
:101F600001208DF80400002000F01AF800A92E4C82
:101F700000F01DF80821204600F070FA01200090C2
:101F800000208DF8040000F00BF800208DF8070009
:101F900000F00CF80220009000F008F808B010BD26
:101FA0008DF8060003208DF80500704700A9204633
:101FB00000F016BA4FF0904000F054BA01214FF4EF
:101FC0000010FEF7C1BF009000A94FF0904000F054
:101FD00007BAF8B5164D154F4FF4805604462E60DB
:101FE0000221384600F033FD28B92868411E2960D7
:101FF0000028F5D10EE02146384600F01EFD2E6087
:102000000121384600F023FD40B92868411E2960AF
:102010000028F5D1FEF756FEC0B2F2BD3846BDE845
:10202000F24000F00CBD00000010004800300140FC
:102030003C01002010B582B004460020ADF800003D
:1020400000F042F9217862789DF801001143A278EE
:10205000114308438DF80100217962799DF8000051
:102060001143A2791143E278114308438DF800002F
:102070000DF101022021322000F053F800AA2321A3
:102080001DE010B582B000F00FF89DF8000000F0E0
:102090000C008DF80000217862781143A27811437A
:1020A000E2781143084306E00446012300AA2121F7
:1020B000322098E020438DF8000000AA2121322030
:1020C00000F02FF813BD10B582B0044600208DF843
:1020D0000200ADF8000000F0F7F8217862789DF872
:1020E0000200114308438DF802009DF80100E178D9
:1020F00008438DF801009DF80000A17808438DF891
:1021000000000DF1020200213C2000F00AF80DF160
:10211000010201213C2000F004F800AA02213C2029
:10212000CEE72DE9F843A44DA44F4FF42046804656
:10213000894614462E604FF4004100F04CF818B167
:1021400000F04CF8F7D135E04FF4005000904FF01C
:10215000807300F03AF82E6000F03CF818B900F0F7
:102160003DF8F9D126E04946384600F0BFFC2E6024
:10217000802100F030F818B900F030F8F8D119E0FB
:10218000002000904FF0007300F01FF82E6000F068
:1021900021F818B900F022F8F9D10BE0217838467F
:1021A00000F0A4FC2E60202100F015F830B900F0FA
:1021B00015F8F8D1FEF784FD80B204E020213846FE
:1021C00000F0A0FC0020BDE8F28301224146384621
:1021D00000F078BC0221384600F08DBC2868411E12
:1021E0002960002870472DE9F047734FDFF8CC9144
:1021F0004FF4204582B082460C4690461E463D6014
:102200004FF4004100F058F818B100F058F8F7D139
:1022100047E04FF400500090002301225146484609
:1022200000F050FC3D60022100F046F818B900F0C3
:1022300046F8F8D135E0022E28BF44F0800421464C
:10224000484600F053FC3D60402100F035F818B9D5
:1022500000F035F8F8D124E04FF4105000904FF022
:102260000073F2B25146484600F02CFC05E04846A7
:1022700000F03EFC08F8010B761EB6B2002E3D6061
:1022800008D0042100F018F80028F0D100F017F869
:10229000F7D106E0202100F00FF830B900F00FF878
:1022A000F8D1FEF70DFD80B204E02021484600F091
:1022B00029FC0020BDE8F687484600F01CBC3868C1
:1022C000411E39600028704730B58BB001214FF4B2
:1022D0000010FEF74BFE01214FF48020FEF734FE84
:1022E00000F079F800F077F800F075F8344C04222B
:1022F0000621204600F0B6F804220721204600F00F
:10230000B1F802208DF8040000208DF806000220AC
:102310008DF8070003208DF80500402000F056F8E6
:10232000802000F053F800208DF80400ADF806007E
:1023300003208DF805000420009000A9214C2046C0
:1023400000F04EF80221042000F09EF802200290D6
:1023500000208DF80C0008208DF80D0001208DF86C
:102360000E0002A800F0A4F8002007900590069047
:10237000089009900A9004A91348104D049028462B
:1023800000F06CFB0121284600F093FB1020009028
:1023900000208DF804008DF8060003208DF805005C
:1023A00000208DF8070000A9204600F019F8202031
:1023B00000F00CF80BB030BD40010020005400408C
:1023C000000400480010004825209000009000A95B
:1023D000204600F005B801214FF40010FEF7B4BD0F
:1023E000F0B5002201230C6893401C409C422AD186
:1023F00054000325A5400E79ED43012E18BF022E8F
:1024000010D186682E40866086684F79A7403E438B
:102410008660868826EA0303838083888E799640C7
:102420003343838003682B40036003680E79A64022
:1024300033430360C3682B40C360C368CD7905FA9A
:1024400004F42343C360521C102ACBD3F0BD008A8E
:102450000022084218BF0122104670478161704770
:102460000185704710B5CB1000EB830001F0070128
:102470008900036A0F248C40A343036202FA01F12E
:10248000036A1943016210BD30B501F0030221F067
:102490000301064B9200CC580F259540AC43CC501D
:1024A0009040CC582043C85030BD00000800014087
:1024B000F0B50268012102F01F0301FA03F3DC43C7
:1024C00085795309404A002D58D012EB43131D68FB
:1024D0002C401C6003683D4D5C0915EB441403F06F
:1024E0001F03256801FA03F325EA03032360046848
:1024F0000379650913EB4513D31804F01F041D6815
:1025000001FA04F42C431C600468314B650913EB99
:10251000451504F01F042E6801FA04F426EA0404A9
:102520002C6005682B4C6E0914EB461605F01F0550
:10253000376801FA05F527EA05053560056847792A
:1025400005F01F066D096D0101FA06F6102F0FD177
:102550005A191368334313600068420914EB42129E
:1025600000F01F00136801FA00F018431060F0BD7E
:1025700055FA87F013181868304305E0007910EB1E
:1025800043101318186820401860F0BD012200F0B5
:102590001F0310B59A40400940010B4B0E4C1B58CD
:1025A00020580021134010421CBF002B0121084677
:1025B00010BD00BF012100F01F0291404009400101
:1025C000054A115070470000000401400404014016
:1025D000080401400C040140140401401849084358
:1025E00018490860704770B50378C4781A4601210D
:1025F000ECB1144B0F261B68447803F4E063C3F579
:10260000E0631B0AC3F10405AC40857826FA03F3A6
:102610002B4023430C4C1B01135500780B4B4211EC
:1026200000F01F0001FA00F043F8220070BD5011C5
:10263000074A03F01F03994042F8201070BD0000C4
:102640000000FA050CED00E000E400E000E100E02D
:1026500080E100E04FF4001C1CEB410F94BF1CEB29
:10266000430F09E041EA030C50EA4C0C52EA0C0C0F
:1026700003D2994208BF9042704714BF8B428242F6
:102680007047000001480121017070474801002097
:10269000D0B514462DED048B534A544B00F034FA58
:1026A00041EC180B1DD89FED529B53EC182B51ECAD
:1026B000190BFFF71BF900224F4BFEF73FFE0646B2
:1026C0000F4653EC182B51EC190BFEF737FE024660
:1026D0000B4630463946FEF7E5FF41EC180B44F057
:1026E000010451EC180B0022444BFFF7B3FF05D354
:1026F00001224FF0795300F007FA51D853EC182B10
:10270000FFF7F4F841EC190B53EC182BFFF7EEF838
:1027100006460F4653EC192B39483A49FFF7E6F8BD
:10272000394A3A4BFEF70AFE53EC192BFFF7DEF855
:10273000374A384BFEF702FE32463B46FFF7D6F8E3
:1027400053EC182BFEF7FAFD06460F4653EC192BF7
:1027500031483249FFF7CAF8314A324BFEF7EEFDF5
:1027600053EC192BFFF7C2F82F4A304BFEF7E6FD6A
:1027700053EC192BFFF7BAF82D4A2E4BFEF7DEFD6E
:1027800053EC192BFFF7B2F82B4B0022FEF7D6FDC6
:1027900002460B4630463946FEF784FF41EC180BE3
:1027A000A00705D551EC180B81F0004141EC180B46
:1027B00014F007020BD00FF2880303EBC20251ECB6
:1027C000180B53681268FEF7B9FD41EC180B20078F
:1027D00005D551EC180B81F0004141EC180B51EC80
:1027E000180BBDEC048BD0BD57CD9E5E1426D13F97
:1027F000AA4C58E87AB6FB3F0000F0BF000040BE8C
:10280000845D57134B57B03FB2934C19ED5EE43FD4
:10281000BEDE02B90240F83FDE39028FC7C0743F06
:102820008AAB1283000CC83F24D7E508B6D8F03F26
:102830000F34580E5895FD3F0000F03F0000000097
:10284000000000000000000066732D3852C1E03F18
:10285000182D4454FB21F93F66732D3852C1F03FC7
:10286000182D4454FB21F93F66732D3852C10040A6
:10287000182D4454FB2109403FD038C6A6F104402E
:10288000014800F058B90000340200201AA210EEEE
:10289000101ADFF860C0F2EC060A614509DB00EEB1
:1028A000803A70EE800A83EE200A40F0020010EEBB
:1028B000101A21F0004CDCF1665C0BD860EE000AC7
:1028C00020EE203A03EE010A01EEA02A42EE202A71
:1028D00080EE220A400810F0020F18BFB1EE400A45
:1028E00002EB8002D2ED000A30EE200A28BFB1EEE2
:1028F000400A7047A430893ED7B3DD3F6AD5033F15
:102900002B94A93DB82A593F0000803F000080BFAA
:1029100000000000920A063FDB0FC93F920A863F83
:10292000DB0FC93F920A0640DB0F4940368D274036
:102930001FB5FFF7A5FF212101601FBD80B5154917
:1029400088420BD101214FF48050FEF718FBBDE8FF
:10295000044000214FF48050FEF711BB0E4988421D
:1029600008D101214FF48040FEF712FB00214FF403
:1029700080400AE0094988420BD101214FF4004010
:10298000FEF706FB00214FF40040BDE80440FEF7CF
:10299000FFBA01BD0030014000380040003C00405B
:1029A0004A88B2F5827F19D102880B8802F441521D
:1029B0001A43CB881A430B891A434B891A438B89D4
:1029C0001A43CB891A4342F4827202804FF2FF030A
:1029D00082881A408B881A43828018E04FF2FF03E6
:1029E00082881A408B881A43828002880B8802F4FE
:1029F00041521A434B881A43CB881A430B891A4316
:102A00004B891A438B891A43CB891A4302804FF2B0
:102A1000FF73828B1A408283098A018270470029E2
:102A2000018812BF41F040014FF6BF721140018092
:102A3000704782884EF6FF7303E001737047007B96
:102A400070471A40828082881143818070470089D4
:102A50000022084218BF0122104670470268204B2E
:102A600052085200026002681A404B681A438B6891
:102A700042EA032202600A6822F070620261026880
:102A800042F00102026000228260C2608A690B6922
:102A90001A438260826842F4004282600268CB6816
:102AA0001A43026042680F4B49691A401143416062
:102AB00070470029016812BF41F00101490849002F
:102AC0000160704770B5049C4568074E3540890524
:102AD00055EA915141EA024119432143416070BDD9
:102AE000FFE0CF00FF7FFF07009800FC8162704786
:102AF000406AC0B2704780690022084218BF0122B4
:102B000010467047C16170474FF4001C1CEB410F29
:102B100094BF1CEB430F09E041EA030C50EA4C0C54
:102B200052EA0C0C03D28B4208BF8242704714BF9A
:102B3000994290427047704710B5DFF8884700B956
:102B40002BE000F099F80068804720680A3010BD3B
:102B500080B5DFF87007DFF8702700685278C17819
:102B60008A420CD38278002A04BF8288002A06D1C8
:102B7000817200F081F840688047002002BD022089
:102B800002BD10B5DFF83C4700B906E000F074F86C
:102B90008068804720680C3010BD206801210182C8
:102BA000002010BD10B5DFF81C47DFF82027206893
:102BB0001268C17840799269904721688A7A92B107
:102BC000002804BF087900280DD1887858B900F092
:102BD00053F8C068804720684179C1722068C17885
:102BE0000173002010BD022010BD1CB5DFF8D41603
:102BF000096810B9022008823CE0DFF8D4460020C2
:102C00002080002208787F23184215D1487A810657
:102C10004CBF42F0020102F0FD0121704006217814
:102C200054BF01F0FE0041F00100207000F024F8D4
:102C300000698047204616BD00F07F03012BF9D0C4
:102C400000F07F00022815D14879DFF8883600F0BF
:102C50000F01000653F8210042F0010205D500F0F3
:102C600030001028E2D12270E0E700F44050B0F5C7
:102C7000805FF7E7002016BDDFF85C06006870474C
:102C8000F8B5DFF840060068017811F07F0104D143
:102C9000417A01F0DF0141724FE0022901BF418812
:102CA0000029017900294AD14179DFF8284621F02D
:102CB00080050A0654F825204CBF02F0300202F4C9
:102CC0004052DFF804361B789D4238D2002A1CBFE0
:102CD000807A002833D0080654F825000BD500F080
:102CE0003000102825D1284600F076FB30212846F8
:102CF00000F01DFB1DE000F44050B0F5805F18D1DE
:102D000048F280064BF68F7745B900F0BAFA206892
:102D1000384080F44050304320600AE0284600F0FC
:102D200049FB54F82500384080F44050304344F8C3
:102D30002500FFF7A1FF406980470020F2BD022077
:102D4000F2BD38B5DFF87C05DFF8881502685379E5
:102D500023F080001C0651F820404CBF04F03004E2
:102D600004F44054DFF860552D78A84206D2558807
:102D700025B9002C1CBF927A002A01D1022032BD55
:102D80001B0651F8203048F2800205D548F6BF7482
:102D9000234083F0100304E04BF68F74234083F448
:102DA00080531A4341F82020FFF766FF806980476F
:102DB000002032BD80B5DFF80C050068417A41F093
:102DC00020014172FFF758FFC0698047002002BD13
:102DD000DFF8F0241268538A20B98888C01A10825C
:102DE00000207047086818187047F8B5DFF8D45409
:102DF000286800F11004A1682688080018BF002E7A
:102E000014D0A088864288BF0646304688470746C9
:102E10002088801B2080608830186080002000F0AF
:102E2000F7FA01463246384600F058FB2088DFF8B2
:102E3000AC6450B1DFF8A8044FF440510180002188
:102E4000002000F0ECFA302030802188A288286829
:102E5000914228BF032101D211B105210172F1BDB8
:102E6000062101720022DFF87C04DFF87C14006880
:102E700080B241F8102030203080F1BD2DE9F843B8
:102E8000DFF84044DFF85454206800F11006318820
:102E9000002904BF007A042816D1DFF85004017815
:102EA00001290DD1DFF83C14DFF83C24096889B210
:102EB000002342F8113030212980042703702CE0D0
:102EC00010200727288028E0B6F80480884505D31D
:102ED0000427414588BF4146884600E00227B16883
:102EE000404688478146002000F091FA014642465C
:102EF000484600F0DEFA4146002000F090FA3088A3
:102F0000A0EB080030804FF440517088404470803E
:102F100030202880DFF8C803018020680772BDE8F0
:102F2000F18338B5DFF89C437F222068017845782B
:102F3000114238D1092D02D1FFF70AFE47E0052DD5
:102F40001BD1C17880294FD28178002901BF8188A7
:102F50000029807A002847D1DFF88813DFF888231A
:102F6000096889B2002342F811300620DFF86C139B
:102F700030220A802168087231BD032D08D1C17842
:102F8000012904BF8088002823D1FFF713FF1EE02A
:102F9000012D04BFC17801291BD18188C9B9407AAC
:102FA00080060DD415E001F07F00012804D10B2D1F
:102FB0000FD1FFF7F7FD0AE002280AD1012D02D157
:102FC000FFF75EFE03E0032D03D1FFF7BAFE0028F2
:102FD000C2D0BE492846096849698847032808BF06
:102FE0000920C7D00028B7D00820C3E738B5B54DB1
:102FF000B64C28684178062913D101787F22114206
:103000002AD18078012802D12068C1696AE00228AB
:1030100002D12068016A65E003281DD12068416A59
:1030200060E000293FD14188002904BFC1880229FE
:1030300012D1017981B901787F22114204BF8288BF
:10304000002A2ED001F07F02012A10D100F08BF867
:1030500010B92868807A20BB2868216840780969FF
:103060008847032847D128680921017231BD01F042
:103070007F010229F0D14079964B00F00F0100F05A
:103080007002000653F821004CBF00F0300000F43D
:1030900040508D4B1B789942DED2002ADCD10028AB
:1030A000DAD093491EE0082905D100787F21084233
:1030B000D2D1904916E00A2902BF017801F07F01C0
:1030C0000129C9D1817A0029C6D04188002901BFD0
:1030D00001790029C1880129BED100F044F80028F7
:1030E000BAD185490800B7D02868002242828161A0
:1030F00000208847002029684FF6FF730A8A9A4209
:1031000008BF092004D0022818BF002A02D10820D5
:10311000087231BD087800061ED5C8880090236863
:10312000009C944202D2009808820FE082420DD2A5
:1031300093F82C006D4C824238BF002005D392FBDF
:10314000F0F500FB152008B90120207093F82C0041
:103150008882BDE8314091E6032008724FF4405167
:103160005F48018031BD2268407992690021104793
:1031700038B55C4861490068524C80B231F81000A3
:10318000216840000A7A00F1804000F5C040092A19
:1031900014D010F8012B0A70216810F8012B4A7026
:1031A000851C35F8040B00F07FF9216848802888D9
:1031B00000F07AF921688880A888C88001212068F9
:1031C00001722068C08810B9FFF7ABFE01E0FFF77D
:1031D0000DFFBDE831403EE010B53A4C2068017A61
:1031E000022918BF042904D1FFF748FE2068007A9D
:1031F00014E0062911D14178052902BF01787F2208
:10320000114206D1C07800F042F8FFF735FD006AA0
:1032100080472E48006880688047082017E010B576
:10322000284C2068007A022818BF04280ED00328F2
:1032300018BF052804D1FFF7D8FD2068007A06E002
:10324000072803D121480068C0688047082021680A
:103250000872BDE8104080B500F013F81948006806
:10326000017A082906D11E494FF480520A801022A3
:103270001A490A80007A092801D1012002BD0020E4
:1032800002BD1F4890F82C10002000F0CFB870B598
:103290000D49104B0978002248F68F760BE0D4B226
:1032A00053F824503540254345F4004545F080054A
:1032B00043F82450521C8A42F1D3124940F0800056
:1032C000086070BDF801002044010020FC010020CE
:1032D0001C020020005C00400002002022020020AE
:1032E00020020020505C0040046000403B020020AF
:1032F000EB2B0008392B0008832B000808600040E6
:10330000000000204C5C0040704700004FF6F87150
:103310000840DFF87C110860704710B5DFF87421B1
:1033200048F68F1452F820302340194324E010B59A
:10333000DFF8602148F6BF7452F820302340CC06F5
:1033400048BF83F01003890648BF83F020030FE0D5
:1033500010B5DFF840214BF68F7452F8203023402F
:10336000CC0448BF83F48053890448BF83F40053DE
:1033700043F4004141F0800142F8201010BDDFF815
:1033800014114BF68F7351F820201A4082F44052EA
:1033900042F4004209E0DFF8FC1048F68F6351F870
:1033A00020201A4042F40042FFE742F0800241F838
:1033B00020207047DFF8DC1051F8202052040AD595
:1033C00051F8202048F68F731A4042F4404242F0F0
:1033D000800241F820207047DFF8B81051F8202013
:1033E00052060AD551F8202048F68F731A4042F44D
:1033F000004242F0C00241F82020704732E0244AE7
:103400004908126892B202EBC000234A31E034E06E
:103410001F49096889B201EBC0001F4933E01C4A0B
:10342000126892B202EBC0001C4A23E0184A3F29FE
:10343000126892B202EBC000194A02EB400009D3B5
:103440004A091F23194208BF521E1204910941F470
:10345000004105E04A08C90748BF521C12049109FF
:10346000016070470A4A4908126892B202EBC00034
:103470000C4A490042F8101070470549096889B2A2
:1034800001EBC000074951F8100080B270470000FE
:10349000505C0040005C0040086000400460004058
:1034A0000C600040006000400106090C41EA102059
:1034B000704710B5490001F18041521C01F5C0412F
:1034C000521009E010F8013B10F8014B43EA0423C5
:1034D00021F8023B891C521EF4D110BD490001F1B4
:1034E0008041521C01F5C041521004E051F8043BE8
:1034F00020F8023B521EF9D17047000080B5FEF75C
:10350000F7FB644800210068817200F0D9F800F0F0
:103510003FF900216048016001BD80B55D4800228F
:1035200001688A720168CA725C490068C97941728F
:103530000020FFF7EBFE4FF400710020FFF7EDFED7
:1035400010210020FFF7F3FE18210020FFF757FF9E
:1035500058210020FFF752FF0020FFF71CFF5048C2
:1035600090F82C100020FFF761FF0020FFF707FF05
:103570004FF4C0610120FFF7D0FE4FF480710120AD
:10358000FFF73CFF04210120FFF749FF0021012044
:10359000FFF7DEFE20210120FFF7C9FE0020FFF724
:1035A00076FE3D480121016001BD3E48807A10B1A0
:1035B0003948052101607047374804210160704790
:1035C0007047704780B53349062809680A7811D1D9
:1035D00002F07F00012804BF4879002814D18878C0
:1035E000222808BF0FF271020CD021280CD10FF253
:1035F000710207E002F07F02212A08BF032803D1ED
:103600000FF27D02100001D1022002BD8A6100206C
:1036100048829047002002BD1E490968097801F0E0
:103620007F01212903D10B2808BF00F021B8022017
:1036300070471D49FFF7CCBB1C49FFF7C9BB1549B3
:103640000968C978052901DB00207047184A02EB98
:10365000C101FFF7BDBB00001649FFF7B9BB000071
:103660001549FFF7B5BB00290CBF002802207047A1
:10367000084812490068C0780860002070470000C0
:1036800028B90448012100680182002070470B48D6
:1036900070470000F80100202C020020F8390008D3
:1036A00000000020DC010020140100201C0100208B
:1036B000A0000020240100202C010020280200206E
:1036C00080B50120FEF70AFB2E482F4A0121016038
:1036D0000021016041604FF4E05111800160002041
:1036E00002BD2848016841F0080189B20160016803
:1036F00041F0040189B20160FEF79DBA10B5214C7A
:103700004FF6FB71206808402060FEF79AFA4FF4EC
:103710003F40206010BD000010B51C4C072818BFAA
:10372000207021781748052929D8DFE801F0030621
:10373000090D141EFFF7E2FF21E0FFF7DFFF08E0AD
:103740000220607003201BE06078401E607060788B
:10375000B8B9042014E0016841F0100189B2016099
:10376000052020700A20607010BD6178491E6170CC
:10377000617831B901684FF6EF721140016006209F
:10378000207010BD405C0040380200203002002054
:103790000448054A002141604FF43F411180016017
:1037A00000207047405C0040380200202DE9F84FAF
:1037B0000020ADF8000040F68F7848F60F7B48F205
:1037C0008006444F444CDFF81491DFF814A14BF607
:1037D000BF7525E054F82010ADF80010BDF80010BA
:1037E00009040BD554F8201008EA010144F8201010
:1037F0003C4901EB800050F8040C8047BDF8000004
:1038000000060DD599F8000054F820100BEA0101CC
:1038100044F82010344901EB800050F8040C804734
:10382000606CAAF80000000452D5BAF8000010F04D
:103830000F0089F80000CDD120683880388800F06A
:1038400030007880388800F4405038802068284064
:1038500080F4005080F0200030432060BAF800006F
:10386000C006206805D40BEA00002060FFF7B4FC16
:1038700016E0ADF80000BDF80000000506D5206890
:1038800008EA00002060FFF773FC09E0BDF80000C3
:103890000004C5D5206808EA00002060FFF7BFFCDF
:1038A000206839882840C90448BF80F4805039888E
:1038B000890448BF80F400507988C90648BF80F069
:1038C00010007988890648BF80F0200030432060CE
:1038D000BDE8F18F20020020005C00403C02002087
:1038E00026020020F8000020DC0000203648374A7D
:1038F000016841F47001016082B03548016841F00F
:10390000010101604168114041600168314A114084
:1039100001600168304A21F480210160416821F48E
:10392000FE014160C16A09090901C162016B1140D0
:1039300001630021816001910091016841F4A0219F
:103940000160016801F4003100910199491C019165
:10395000009919B90199B1F5A06FF2D10168490C2C
:1039600001F0010100910099012926D11B49122281
:103970000A604168416041684160416841F480618A
:103980004160416821F47C114160416841F4E811D3
:103990004160016841F08071016001688901FCD5D6
:1039A0004168890889004160416841F00201416035
:1039B000416801F00C010829FAD14FF00061084874
:1039C00002B001607047000088ED00E00CC07FF895
:1039D00000100240FFFFF6FECCFC00FF002002407A
:1039E00008ED00E0120100020000004083041057BF
:1039F000000201020301000009022200010100E0AF
:103A00003209040000010301020009210001000144
:103A1000224A000705810304002000000501090275
:103A2000A1010901A10005091901290315002501BA
:103A30009503750181029501750581010501093024
:103A4000093109381581257F750895038106C0095C
:103A50003C05FF09011500250175019502B122758C
:103A6000069501B101C000000403090426035300B8
:103A700054004D006900630072006F0065006C0027
:103A800065006300740072006F006E0069006300DF
:103A9000730000001E03530054004D003300320039
:103AA00020004A006F007900730074006900630011
:103AB0006B00000070B5294D294C2868294E6080A4
:103AC000608831880840000448BFFFF76FFE6088B7
:103AD00031880840400505D54FF6FF302860224860
:103AE00040688047308861880140890444BF4DF6B2
:103AF000FF71296061880840C00405D54EF6FF704B
:103B000028600020FFF708FE608831880840000523
:103B10000BD51648007810B1FFF7E3FD02E0022054
:103B2000FFF7FAFD4FF2FF7028603088618801408E
:103B3000890505D54FF6FF5129602178491C217070
:103B400061880840C00507D54FF6FF602860072050
:103B5000BDE87040FFF7E0BD70BD00BF445C0040B1
:103B6000240200203802002000000020490100202B
:103B70007047FEE7FEE7FEE7FEE7704770477047D5
:103B800080B5FDF77EF817480168491E01601648A8
:103B90000178491C017001BD38B50020FEF7F6FC24
:103BA00001281DD10020FDF7B9FAC8B10F4C104D06
:103BB000002000F021F80020FDF7B0FA0028FAD12B
:103BC00000F01AF80B480168491C016001680329DC
:103BD00024BF00210160BDE832400020FEF7E9BCAF
:103BE00031BD0000340100204E01002018020020E9
:103BF000FFFF0700B001002001E02068401C2060AA
:103C00002068A842F9D37047FFF754BF80B5002061
:103C1000FFF782FDBDE802401220FEF7CABC00009B
:103C200010B5074979441831064C7C44163404E039
:103C3000081D0A68511888470146A142F8D110BDF5
:103C40000800000028000000B3D5FFFFF4000000CA
:103C50004C0100200000000027D5FFFF4C010000B0
:103C6000B001000000000020000000004EF6885166
:103C7000CEF20001086840F4700008604FF0007058
:103C8000E1EE100A7047000000F009F8002801D0AA
:103C9000FFF7C6FF0020FCF777FA00F002F80120DA
:103CA000704700F001B800000746384600F002F8FF
:103CB000FBE70000C046C046024A11001820ABBE18
:103CC000FBE700BF2600020001488047014800478B
:103CD000ED380008D93C0008C046C046FFF7C6FFD3
:103CE000FFF7D2FFFFF744BFFFF743BFFFF742BF25
:103CF000FFF741BFFFF740BFFFF73FBFFFF73EBFF2
:103D0000FFF73DBFFFF73CBFFFF7FEBFFFF7FEBF6A
:103D1000FFF7FEBFFFF7FEBFFFF7FEBFFFF7FEBFD7
:103D2000FFF73ABFFFF7FEBFFFF7FEBFFFF7FEBF8B
:103D3000FFF7FEBFFFF7FEBFFFF7FEBFFFF7FEBFB7
:103D4000FFF7FEBFFFF7FEBFFFF7FEBFFFF7FEBFA7
:103D5000FFF7FEBFFFF7FEBFFFF756BFFFF7FEBF3F
:103D6000FFF7FEBFFFF7FEBFFFF7FEBFFFF7FEBF87
:103D7000FFF7FEBFFFF7FEBFFFF7FEBFFFF7FEBF77
:103D8000FFF7FEBFFFF7FEBFFFF7FEBFFFF7FEBF67
:103D9000FFF7FEBFFFF7FEBFFFF7FEBFFFF7FEBF57
:103DA000FFF7FEBFFFF7FEBFFFF7FEBFFFF7FEBF47
:103DB000FFF72CBFFFF7FEBFFFF7FEBFFFF7FEBF09
:103DC000FFF7FEBFFFF7FEBFFFF7FEBFFFF7FEBF27
:103DD000FFF7FEBFFFF7FEBFFFF7FEBFFFF7FEBF17
:103DE000FFF7FEBFFFF7FEBFFFF7FEBFFFF7FEBF07
:103DF000FFF7FEBFFFF7FEBFFFF7FEBFFFF7FEBFF7
:103E0000FFF7FEBFFFF7FEBFFFF7FEBFFFF7FEBFE6
:103E1000FD3400081B350008C1350008C335000813
:103E2000C535000819360008673600083336000823
:103E3000393600083F36000800000000400000004E
:103E40000000000001020304010203040607080940
:103E50000000010002000400060008000A000C0037
:103E6000100020004000800000010000093300081D
:103E7000AB3500080933000809330008093300088E
:103E8000093300080933000809330008B935000870
:103E900000100048001000480010004800100048C2
:103EA00000100048001000480010004800100048B2
:103EB000683A0008040000006C3A00082600000080
:103EC000943A00081E000000C00000201A00000004
:103ED0001A03530054004D0033003200310030000B
:103EE000000000000000000000000000852600081F
:103EF00009330008093300080933000809330008B2
:103F000009330008093300080933000809330008A1
:103F10000933000809330008093300080933000891
:103F200009330008E439000812000000F8390008DD
:103F3000220000001C3A00084A0000000A3A00086B
:103F400009000000640000000000004800100000AC
:0C3F500000A000000201000001010000C0
:0400000508003CD9DA
:00000001FF
