:020000040800F2
:10000000D80E0020B9750008097200080B720008AC
:100010000D7200080F720008117200080000000045
:100020000000000000000000000000001372000843
:10003000157200080000000017720008197200080D
:100040000176000805760008097600080D7600089C
:1000500011760008157600082F720008A7720008B4
:100060002176000825760008297600082D760008FC
:100070003176000835760008397600083D760008AC
:1000800041760008F5720008497600084D760008B0
:100090001373000855760008597600085D7600084D
:1000A0006176000865760008697600086D760008BC
:1000B0007176000875760008797600087D7600086C
:1000C0008176000885760008897600088D7600081C
:1000D0009176000895760008997600089D760008CC
:1000E000A1760008A57600081B730008AD7600080D
:1000F000B1760008B5760008B9760008BD7600082C
:10010000000000000000000000000000C1760008B0
:10011000C5760008C9760008CD760008D1760008BB
:10012000D5760008D9760008DD760008E17600086B
:10013000E5760008E97600080000000000000000F5
:10014000ED760008F1760008F57600080000000062
:10015000000000000000000000000000000000009F
:100160000000000000000000F9760008FD7600089D
:1001700001770008000000000000000000000000FF
:10018000000000000577000800B52DED108B2DED67
:10019000030A9AB0F0EE619AB0EE42AAF0EE62CA9B
:1001A000B0EE438AF0EE638AB0EE449AB5EE408A30
:1001B000F1EE10FA19D1F5EE408AF1EE10FA14D1F1
:1001C000B5EE409AF1EE10FA0FD1F0EE6C2AB0EED7
:1001D0004A2AF0EE691A9DED1C1ADDED1B0A9DED11
:1001E0001A0A00F041FD00F038BDDFF8D80E90ED9E
:1001F000000AB1EE400ADDED1A0A20EE200ADFF80F
:10020000C80ED0ED000A9DED1B1A00EEC10ADFF802
:10021000F00ED0ED000A9DED1C1A00EEC10AF6EEBC
:10022000000A20EE200A8DED0E0ADFF8D80E90EDC0
:10023000000ADDED1A0A20EE200ADFF88C0ED0ED60
:10024000000A9DED1C1A00EE810ADFF8B40ED0ED15
:10025000000A9DED1B1A00EEC10AF6EE000A20EE20
:10026000200A8DED0D0ADFF89C0E90ED000ADDED01
:100270001B0A20EE200ADFF84C0ED0ED000A9DED9F
:100280001C1A00EEC10ADFF8780ED0ED000A9DEDD1
:100290001A1A00EE810AF6EE000A20EE200A8DED11
:1002A0000C0ADFF8600E90ED000ADDED1C0A20EE6E
:1002B000200ADFF8100ED0ED000A9DED1B1A00EEAB
:1002C000810ADFF8040ED0ED000A9DED1A1A00EE47
:1002D000C10AF6EE000A20EE200A8DED0B0AF5EEBB
:1002E000409AF1EE10FA0AD1B5EE40AAF1EE10FAFA
:1002F00005D1F5EE40CAF1EE10FA00F0228429EEA5
:10030000A90A0AEE0A0A0CEEAC0A00F0DFFEF0EED3
:1003100040AA69EEAA9A2AEE2AAA6CEEAACA28EE88
:10032000080A08EEA80A09EE090A00F0CFFEF0EE6E
:1003300040AA28EE2A8A68EEAA8A29EE2A9ADFF8CD
:10034000C40D90ED000AF0EE000A20EE200A20EE27
:10035000080A8DED160ADFF8AC0D90ED000AF0EEFC
:10036000000A20EE200A20EE280A8DED150ADFF89B
:10037000940D90ED000AF0EE000A20EE200A20EE27
:10038000090A8DED140ADFF83C0D90ED000AF0EE3D
:10039000000A20EE200A20EE080A8DED130ADFF88D
:1003A000640D90ED000AF0EE000A20EE200A8DEDBB
:1003B000100ADFF8100D90ED000AF0EE000A20EEB2
:1003C000200A8DED090ADFF8000D90ED000AF0EE2D
:1003D000000A20EE200A8DED080ADFF8240D90EDCA
:1003E000000AF0EE000A20EE200A8DED0F0ADFF879
:1003F000140D90ED000AF0EE000A20EE200ADFF85E
:10040000C80CD0ED000A20EE200A8DED070ADFF8B7
:10041000B80C90ED000AF0EE000A20EE200ADFF89A
:10042000E00CD0ED000A20EE200A8DED060ADFF880
:10043000D40C90ED000ADFF8CC0CD0ED000A20EED1
:10044000200A8DED0A0ADFF8BC0C90ED000ADFF8F7
:10045000740CD0ED000A20EE200A8DED010ADFF8C1
:10046000A40C90ED000ADFF8600CD0ED000A20EE3D
:10047000200A8DED000ADFF88C0C90ED000ADFF801
:10048000800CD0ED000A20EE200A8DED050ADFF881
:10049000340C90ED000ADFF82C0CD0ED000A20EEB1
:1004A000200AF0EE40FADFF81C0C90ED000ADFF8AD
:1004B000180CD0ED000A20EE200A8DED040ADFF8BA
:1004C000040C90ED000ADFF8380CD0ED000A20EEA5
:1004D000200AB0EE40DADFF8F00B90ED000ADFF80A
:1004E000E80BD0ED000A20EE200AB0EE40CADFF89B
:1004F000D80B90ED000ADFF8080CD0ED000A20EED2
:10050000200A8DED030ADFF8F80B90ED000ADFF802
:10051000F00BD0ED000A20EE200A8DED020A9DEDD1
:100520000A0A28EE000ADDED150ADFF8D40B90ED7B
:10053000001A00EEC10ADDED140ADFF88C0B90ED15
:10054000001A00EE810A08EE2F0ADDED090A60EEBE
:10055000A80ADFF8740B90ED001A00EE810ADDEDB9
:10056000090A60EE890ADFF8980B90ED001A00EE98
:10057000810A08EE4C0ADDED020A08EE600A8DEDF4
:10058000180A9DED160ADFF8780BD0ED000A20EE70
:10059000200ADDED0A0A08EEA00ADDED140ADFF8F4
:1005A000240B90ED001A00EEC10ADDED130ADFF80E
:1005B000180B90ED001A00EE810A08EEEF0A08EE23
:1005C0008C0ADDED080A60EE890ADFF8340B90ED45
:1005D000001A00EE810ADDED020A08EEE00A8DED58
:1005E000170A9DED180ADDED180A20EE200ADDED50
:1005F000170A9DED171A00EE810A10EE100A00F09E
:100600008DFD41EC100B00F0C7FD51EC100B00F01C
:1006100043FE0BEE100A9DED160AB1EE400ADFF81C
:10062000A80AD0ED000A20EE200ADDED150ADFF859
:10063000940A90ED001A00EE810ADDED0A0A09EE37
:10064000200ADDED130ADFF8B80A90ED001A00EE7B
:10065000810A09EE6F0ADDED080A60EEA80ADFF8EC
:10066000A00A90ED001A00EE810A09EE4C0ADDEDB9
:10067000020A09EE200AF0EE40BAB0EE000A2BEEB4
:10068000000A8DED120AB0EE000A2BEE800A8DED05
:10069000110AB0EE000A2DEE000ADDED070A30EE79
:1006A000600A30EE690ADDED080AF1EE600A20EE1C
:1006B000800ADDED010AB0EE001ADDED061A40EE0B
:1006C000811A71EECA0A9DED091A00EE810ADFF85F
:1006D000F809D0ED000A6BEEA00AB6EE001A31EE72
:1006E0004C1ADDED021A31EE611A21EE0B1ADDED26
:1006F000001A7DEE611A01EEAB1A38EE411A00EED7
:10070000810AF1EE4B0ADFF8F80990ED001A60EE6D
:10071000810ADFF8B00990ED001A4BEE810A9DEDD9
:10072000041ADDED051A31EE611A21EE0B1ADDED2A
:10073000011A9DED032A71EE821A01EEAB1A31EE19
:10074000681A00EE810ADFF88009D0ED000A6BEE2E
:10075000200A9DED001A31EE0D1A21EE0B1AF6EE6D
:10076000001A71EEEF1A71EECC1A01EEAB1A31EEEF
:10077000491A00EE810AB0EE40FAB0EE000A2DEE02
:10078000000ADDED070A30EE600A30EE690ADDEDA1
:100790000F0A20EE200ADDED010AB0EE001ADDEDB1
:1007A000061A40EE811A71EECA0A9DED101A00EE8B
:1007B000810ADFF81009D0ED000AB1EE001A60EEF0
:1007C000810AB0EE001A2CEE011AF0EE001AB7EE14
:1007D000002A0FEEE12A31EE421A3CEE811A00EEB9
:1007E000810ADFF81C09D0ED000A6BEEA00AB6EE14
:1007F000001A31EE4C1ADDED021A31EE611A21EECB
:100800000B1ADDED001A7DEE611A01EEAB1A31EE26
:10081000481A00EE810ADFF8B008D0ED000A6BEE4E
:10082000200ADFF8E00890ED001A4BEE810A9DEDFA
:10083000041ADDED051A31EE611A21EE0B1ADDED19
:10084000011A9DED032A71EE821A01EEAB1A31EE08
:10085000681A00EE810ADFF8A808D0ED000A6BEEF6
:10086000200A9DED111ADFF85C08D0ED001A41EE68
:10087000610A9DED001A31EE0D1A21EE0B1AF6EE0B
:10088000001A71EEEF1A71EECC1A01EEAB1A31EECE
:10089000491A00EE810AF0EE40EAB0EE000A2DEEB1
:1008A000000ADDED070A30EE600A30EE690ADDED80
:1008B000100AF1EE600A20EE800ADDED010AB0EECA
:1008C000001ADDED061A40EE811A71EECA0A9DED9E
:1008D0000F1A00EE810ADFF8F007D0ED000AB1EE42
:1008E000001A60EE810AB0EE001A2CEE011AF0EE4A
:1008F000001AB7EE002A0FEEE12A31EE421A3CEE62
:10090000811A00EE810ADDED120AF1EE600ADFF8CD
:10091000B80790ED001A60EE810ADFF8E80790ED65
:10092000001A4BEEC10AB6EE001A31EE4C1ADDED9C
:10093000021A31EE611A21EE0B1ADDED001A7DEE7E
:10094000611A01EEAB1A31EE481A00EE810ADFF8A7
:100950007407D0ED000A6BEE200ADFF8A40790EDD3
:10096000001A4BEE810A9DED041ADDED051A31EEF9
:10097000611A21EE0B1ADDED011A9DED032A71EECD
:10098000821A01EEAB1A31EE681A00EE810ADFF826
:100990007407D0ED000A6BEE200A9DED111ADFF806
:1009A0002807D0ED001A41EE610A9DED001A31EEE4
:1009B0000D1A21EE0B1AF6EE001A71EEEF1A71EE17
:1009C000CC1A01EEAB1A31EE491A00EE810AB0EEF4
:1009D00040EAB0EE000A2DEE000ADDED070A30EE27
:1009E000600A30EE690ADDED090A20EE200ADDED2D
:1009F000010AB0EE001ADDED061A40EE811A71EE22
:100A0000CA0A9DED081A00EE810ADDED120AF1EE28
:100A1000600ADFF8EC0690ED001A60EE810ADFF85C
:100A2000A40690ED001A4BEE810AB6EE001A31EEE4
:100A30004C1ADDED021A31EE611A21EE0B1ADDEDD2
:100A4000001A7DEE611A01EEAB1A31EE481A00EE83
:100A5000810AF1EE4B0ADFF8AC0690ED001A60EE69
:100A6000810ADFF8640690ED001A4BEE810A9DEDD5
:100A7000041ADDED051A31EE611A21EE0B1ADDEDD7
:100A8000011A9DED032A71EE821A01EEAB1A31EEC6
:100A9000681A00EE810ADFF82C06D0ED000A6BEE32
:100AA000200A9DED001A31EE0D1A21EE0B1AF6EE1A
:100AB000001A71EEEF1A71EECC1A01EEAB1A31EE9C
:100AC000491A00EE810AF0EE40DA2FEE0F0A0EEE20
:100AD000AE0A0EEE0E0A0DEEAD0A00F0F7FAF0EED9
:100AE00040AA2FEE2AFA6EEEAAEA2EEE2AEA6DEE60
:100AF000AADADFF8200690ED000ADDED0E0A40EEDE
:100B00004F0ACDED0E0ADFF80C0690ED000ADDED80
:100B10000D0A40EE6E0ACDED0D0ADFF8F80590EDF6
:100B2000000ADDED0C0A40EE4E0ACDED0C0ADFF8AE
:100B3000E40590ED000ADDED0B0A40EE6D0ACDED07
:100B40000B0A9DED0E0ADFED470ADFF8B80590EDC0
:100B5000001A00EE201ADFF8AC0580ED001A9DEDBA
:100B60000D0ADFED400ADFF85C0590ED001A00EE9B
:100B7000201ADFF8500580ED001A9DED0C0ADFED1C
:100B8000390ADFF8440590ED001A00EE201ADFF86C
:100B9000380580ED001A9DED0B0ADFED320ADFF813
:100BA000600590ED001A00EE201ADFF8540580ED84
:100BB000001ADFF8500590ED000ADFF84805D0ED87
:100BC000000A20EE200ADFF8FC04D0ED000ADFF86E
:100BD000F40490ED001A00EE810ADFF8EC04D0ED89
:100BE000000ADFF8E40490ED001A00EE810ADFF855
:100BF0001005D0ED000ADFF8080590ED001A00EEB0
:100C0000810A00F063FAF0EE40AADFF8F80490EDF4
:100C1000000A20EE2A0ADFF8EC0480ED000ADFF873
:100C2000A40490ED000A20EE2A0ADFF8980480ED73
:100C3000000ADFF8940490ED000A20EE2A0ADFF89B
:100C4000880480ED000ADFF8B80490ED000A20EE79
:100C50002A0ADFF8AC0480ED000A1DB0BDEC108B51
:100C600000BD000092762C3B00B52DED108B6DED94
:100C7000010A8CB0F0EE409AF0EE41FAB0EE618AD3
:100C8000F0EE428AB0EE629ADFF8380490ED000A86
:100C9000B1EE400A20EE290ADFF82C04D0ED000A5C
:100CA0009DED0C1A00EEC10ADFF85404D0ED000AE5
:100CB00000EEEF0AF6EE000A20EE200AF0EE40CA3F
:100CC000DFF8400490ED000A20EE290ADFF8F8036F
:100CD000D0ED000A00EEAF0ADFF82404D0ED000AE0
:100CE0009DED0C1A00EEC10AF6EE000A20EE200A75
:100CF000B0EE40DADFF80C0490ED000ADDED0C0AEE
:100D000020EE200ADFF8BC03D0ED000A00EEEF0A67
:100D1000DFF8EC03D0ED000A00EEA90AF6EE000AB7
:100D200020EE200AF0EE40DADFF8D80390ED000A5A
:100D300020EE2F0ADFF88C03D0ED000A9DED0C1A8F
:100D400000EE810AE048D0ED000A00EEE90AF6EE76
:100D5000000A20EE200AB0EE40EAB5EE408AF1EE3D
:100D600010FA0AD1F5EE408AF1EE10FA05D1B5EE8F
:100D7000409AF1EE10FA00F0358128EE080A08EEEC
:100D8000A80A09EE090A00F0A1F9B0EE40AA28EE7F
:100D90000A8A68EE8A8A29EE0A9ADA4890ED000AF1
:100DA000F0EE000A20EE200A8DED0A0AC54890ED0B
:100DB000000AF0EE000A20EE200A8DED090AC24872
:100DC00090ED000AF0EE000A20EE200A8DED080AF0
:100DD000CB4890ED000AF0EE000A20EE200A8DEDDF
:100DE000070AC84890ED000AF1EE000A20EE200A3A
:100DF0008DED060AB34890ED000AF1EE000A20EEF0
:100E0000200A8DED010AB04890ED000AF1EE000ACB
:100E100020EE200A8DED000AAA4890ED000AF2EEBD
:100E2000000A20EE200A8DED050AA74890ED000A81
:100E3000F2EE000A20EE200A8DED040AB14890ED92
:100E4000000AB048D0ED000A20EE200A8DED030A1A
:100E50009C4890ED000A9B48D0ED000A20EE200A45
:100E6000F0EE40EA984890ED000A9748D0ED000A6D
:100E700020EE200AB0EE40FAA14890ED000AA0480A
:100E8000D0ED000A20EE200A8DED020A9DED060A43
:100E900020EE0F0ADDED080A00EE880ADDED060AF5
:100EA00000EEAE0ADDED090A00EEE80AF0EE40AA17
:100EB0009DED010ADDED020A20EE200ADDED070AB4
:100EC00000EEC80ADDED030AB1EE001A60EE810AF9
:100ED0007C4890ED001A00EE810ADDED0A0A00EE72
:100EE000E80ADDED010A30EE600ADDED050A00EEEC
:100EF000AE0ADDED050A00EE8F0ADDED010A00EE17
:100F0000890AB0EE40BA9DED030AF1EE000A20EE28
:100F1000200A6D48D0ED000A20EE200ADDED0A0A15
:100F200000EE880ADDED000A9DED021A00EE810A4E
:100F3000DDED070A00EEE80ADDED000A30EE600A9A
:100F4000DDED040A00EEAE0ADDED040A00EE8F0AC4
:100F5000DDED000A00EE890AF0EE40BAB1EE000ABB
:100F60002EEE800A6648D0ED000A20EE200ADDED64
:100F7000090A00EEC80AF1EE000A6FEE200A604886
:100F800090ED001A00EE810ADDED080A00EEE80A95
:100F9000B0EE40CA2AEEAA0A0BEE0B0A0BEEAB0A21
:100FA0000CEE0C0A00F092F8B0EE40AA6AEE8AAAA3
:100FB0002BEE0ABA6BEE8ABA2CEE0ACA554890EDAF
:100FC000000A40EE6ACA534890ED000A00EE4BDA80
:100FD000504890ED000A40EE6BDA4E4890ED000A62
:100FE00000EE4CEA9FED480A4648D0ED000A4CEE70
:100FF000800A4448C0ED000A9FED430A3148D0ED15
:10100000000A4DEE000A2F48C0ED000A9FED3E0A8F
:101010002D48D0ED000A4DEE800A2B48C0ED000AA5
:101020009FED390A3648D0ED000A4EEE000A3448EA
:10103000C0ED000A334890ED000A3248D0ED000AB6
:1010400020EE200A1F48D0ED000A1E4890ED001A3D
:1010500000EE810A1C48D0ED000A1B4890ED001AF2
:1010600000EE810A2648D0ED000A254890ED001ACE
:1010700000EE810A00F02AF8B0EE40AA214890ED77
:10108000000A20EE0A0A1F4880ED000A0D4890ED84
:10109000000A20EE0A0A0B4880ED000A0A4890ED8B
:1010A000000A20EE0A0A084880ED000A144890ED74
:1010B000000A20EE0A0A124880ED000A0DB0BDECCD
:1010C000108B00BD540A0020580A00202DED010AA3
:1010D00081B011480199B0EB51000090DDED000A9C
:1010E0009DED010A9FED091A20EE010A20EE200A6B
:1010F0009FED071A00EE601A21EE200A02B0704739
:101100005C0A00204001002092762C3B12D3363F2F
:10111000FF51D83F3C01002012141F5F5FF0FF0C0D
:101120001CEAD05114BF614506E0C110400721F010
:10113000E04101F16051704779B900F000410002CF
:101140000AD0B0FA80FC00FA0CF001F16051A1EB7A
:101150000C5101EBD0214005704741020CBF40F417
:10116000E0016FF000010020704710B450F8041B3C
:1011700081B102681218001D50F8043BDC0744BF1F
:10118000A9F10104E31852F8044B43F8044B091F7A
:10119000F9D1EBE710BC704751EC100B00B500F033
:1011A00003F841EC100B00BD40F2FF7C0B0D4DD05D
:1011B000634566D230B421EA035141F4801103F251
:1011C000FD3C5FEA5C0C01D300184941890041EA0B
:1011D000907180004FF440140023E202D50AB1F56B
:1011E000100107D46D081DD2091B6419001849416C
:1011F000491BF7D56D080AD20919641B001849412B
:10120000491BEFD56D08F7D301E0520817D0C0187D
:1012100061419B1AAC4100184941801AA941F4D49C
:1012200052080AD0C01AA1419B186C4100184941CC
:10123000801AA941E9D45208F4D15B1C6C416108C1
:101240004FEA330001EB0C5130BC704750EA010308
:10125000FBD030B4B1FA81F311B9B0FA80F41B19A4
:101260000B3BB3F120042FBF00FA04F19940C3F106
:10127000200420FA04F438BF21439840D3F101033D
:101280009DE76345E1D011F5801FDED850EA4101AA
:10129000DBD0D94300F048B84FEAF17CBCF1E04C18
:1012A0002CBFBCF5001F11E05FEA4C0C34BFBCF151
:1012B0007F5F2EE05FEA9C0C4FEA0C1C4FEA3C0C6F
:1012C000C10071F100414CEB50707047C90241EA16
:1012D0005051C00218BF41F0010141F000414FEAF6
:1012E0006C50C0F10900212810D240EACC7CCCF12E
:1012F000200C11FA0CF070F10040CCF1200C21FA16
:101300000CF00CF0004C40EB0C0070474FEACC7036
:101310007047490011F5001F04D84FEACC10FF3088
:10132000C0057047C81770471FB500F003F82121AA
:1013300001601FBD014800F003B80000B00A0020A2
:10134000704750F8041B61B150F8042BD30744BF19
:10135000A9F101039A18002342F8043B091FFAD1AE
:10136000EFE770472DE9F04FA1B0804617461D46C4
:10137000029102AE0020706211AC6FF000490AE0E9
:1013800017F8011B0298C0470290002800F06A82FB
:10139000706A401C7062387808B9706A64E2252867
:1013A000EED10020F06030617061B061F0613062B8
:1013B00001E040F0010017F8011F2029F9D023298E
:1013C0000DD02B2904D02D2906D030290AD00CE0CD
:1013D00040F0020080B2EEE740F00400FAE740F08F
:1013E0000800F7E740F01000F4E72A290DD129683A
:1013F0000A1D2A600968F162002904D54942F16298
:1014000040F0040080B27F1C12E00021F16209E08C
:10141000F16A494505D001EB810302EB4301303904
:10142000F1627F1C3A78A2F13001C9B20A29EFD3E8
:1014300039782E2903D04FF0FF31B1621DE017F843
:10144000011F2A2906D129680A1D2A600968B1628C
:101450007F1C12E00021B16209E0B16A494505D064
:1014600001EB810302EB43013039B1627F1C3A7812
:10147000A2F13001C9B20A29EFD3308639780FF6CC
:10148000983000F0D7FD08B117F8010B8DF83A003D
:101490009DF83A00682804D1387868280AD162207B
:1014A00005E06C2804BF38786C2803D171208DF8D2
:1014B0003A007F1C11A8B0603978B1F1250023D023
:1014C0001C3871D0001F02286ED9133800F09680A6
:1014D000093869D0801E00F02781401E00F0D180BD
:1014E000401E022860D9001F00F0CB80401F30D082
:1014F000401E00F08380401E20D0C01E09D0801EF8
:101500007CD0C01E7AD017E1F068411CF160252123
:101510001BE12868011D296000687060B26A002A1A
:1015200002D500F093FD07E0002100F0ABFD00289C
:101530001ABF7168401AB06A306107E12868011D5E
:10154000296000680021CDE9000111A870607821B0
:10155000E6E09DF83A00622818D0682806D06A288C
:101560000BD06C2819D0712807D016E02868011D0F
:101570002960716A00680180E8E02A68101D28600F
:10158000706AC1171268C2E90001DFE02868011D16
:101590002960716A00680170D8E02868011D29601F
:1015A000716A00680160D1E02868C01D20F0070062
:1015B000286000F108022A60D0E90023CDE9002369
:1015C000002B04D5F068421CF2602D220DE0308E15
:1015D000820704D5F068421CF2602B2205E0C007A8
:1015E00004D5F068421CF26020220255F06811AA6E
:1015F0008018706000A800F0C5F9A7E09DF83A00D7
:101600006C2808BF2A6811D0712808BF2A6802D048
:101610006A282A680AD1D21D22F007022A6094465D
:101620000CF108022A60DCE9002303E0131D2B60A3
:1016300012680023CDE90023682808BF92B207D0C2
:10164000622808BFD2B203D0742818BF7A2802D10A
:101650000023CDE9002396F8300000075CD5DDE9D2
:101660000023002B08BF002A56D041F02000782824
:1016700052D1F06830220255401C421CF2600155E4
:101680004AE09DF83A0062280CD0682810D06A28F9
:101690001AD06C2823D0712816D074281FD07A282D
:1016A0000CD01CE02868021D2A6090F900201AE086
:1016B0002868021D2A60B0F9002014E02868021D85
:1016C0002A60026800230FE02868C01D20F0070090
:1016D000286000F108022A60D0E9002304E02868AD
:1016E000021D2A600268D317CDE90023002B04DA1B
:1016F000F068421CF2602D220DE0308E820704D586
:10170000F068421CF2602B2205E0C00704D5F068A7
:10171000421CF26020220255F06811AA8018706005
:1017200000A800F0A4F811E0F068411CF1602968FD
:101730000A1D2A60096808E0F068421CF260252250
:10174000025519B1F068421CF26001557F1CF06A25
:10175000F168401AB169401A3169401AF169401ABA
:101760007169401A316AA0EB010A96F8300040070F
:1017700011D420208DF84000BAF1010F0BDBD346C5
:10178000012310AA00A9404600F02FFC002869D1CF
:10179000BBF1010BF4D1F36811AA00A9404600F097
:1017A00024FC00285ED130208DF84000D6F818B017
:1017B000BBF1010F0ADB012310AA00A9404600F08B
:1017C00014FC00284ED1BBF1010BF4D133697268CF
:1017D00000A9404600F009FC002843D130208DF8D4
:1017E0004000D6F81CB0BBF1010F09DB012310AAA1
:1017F00000A9404600F0F9FBA0BBBBF1010BF5D1FD
:10180000736930697168421800A9404600F0EDFB29
:1018100040BB30208DF84000D6F820B0BBF1010F5E
:1018200009DB012310AA00A9404600F0DEFBC8B97D
:10183000BBF1010BF5D196F8300040077FF5ABAD59
:1018400020208DF84000BAF1010FFFF6A4AD01236E
:1018500010AA00A9404600F0C8FB18B9BAF1010A65
:10186000F5D198E54FF0FF3021B0BDE8F08F2DE9BC
:10187000FA4782B0064635696F2908BF082705D0A8
:1018800041F02000782814BF0A2710273C24D6E90D
:101890000001804689469DF80820642A18BF692AFD
:1018A00005D1002903DAD8F1000869EB4909B9F13B
:1018B000000F08BFB8F1000F0CD1306B50B9082FE2
:1018C0003BD196F83800000737D53B24302085F807
:1018D0003B0032E0A4F1010A5446FB17404649465A
:1018E0003A4600F0FBFBCDE90089B846A8FB00238F
:1018F000DDE90089A8EB02023032D2B23A2A03D3E2
:101900009DF80830513B9A180AF8052080465FEA96
:10191000010908BFB8F1000F03D0F06861198842CF
:10192000D8D3082F09D196F83800000705D5605D97
:10193000302802D0641E30206055C4F13C00B061F4
:101940006119F160316B884207DA081A3062308F12
:101950004FF6EF710840308710E000290ED596F859
:10196000381001F01401102908D1716B7269891ABD
:10197000326A891A081A0128A8BF306204B0BDE88B
:10198000F08700002DE9F24F8EB0044604AED4E992
:101990000001CDE902019DF8380040F020008DF8EB
:1019A000000061280BD0206B002848BF062005D41A
:1019B00004BF9DF80000672801D101202063616801
:1019C000C1F30A5040F2FF7398421ED1080304BFCE
:1019D000206800280AD10320A0619DF838006138F2
:1019E000C0B21A2838D30FF2446109E00320A06185
:1019F0009DF838006138C0B21A282AD30FF224614A
:101A00000322E06800F0E2FBB9E1012817DA204682
:101A100000F017FC012812DB002700209DF80010C1
:101A2000612920D1E168302201F8012B4A1CE260D3
:101A30009DF83820612A0CBF782258220FE040F22E
:101A4000FE31626861F31E526260471A4FF0FF3048
:101A5000E4E70FF2CC51D3E70FF2CC51D0E70A7094
:101A60006169891C616110B9002500277EE19DF83C
:101A70000000612840F09780206B00284CBF212592
:101A8000451C2DB26E1CD4E90089DDE9020100225B
:101A9000002300F0F7FB3ABF89F00040CDE9028057
:101AA000CDE902893F1F8DF810200DF11108012E9C
:101AB00035DBDDE902010022002300F0FBFB2ED222
:101AC0001C2102A800F00EFCDDE9020100F094FCEC
:101AD0008146F61F012E09DB00F0BAFC02460B46D8
:101AE000DDE9020100F0CCFCCDE9020108F20700BB
:101AF000072105E009F00F0200F8012D4FEA29192E
:101B0000B9F1010F01DB491EF4D5491E5CBF00226B
:101B100000F8012DF9D500F20708012EC9DA0DF100
:101B20001100A8EB00010DF11106A942B8BF0D4646
:101B30002DB2002D30D42846884206DA04A9411877
:101B40004978082928BF0F2100D2002104AA821851
:101B500000E06D1E401E12F801398B42F9D00F29AA
:101B600004D104A941184A78521C4A70002802D5B1
:101B700004AE6D1C3F1D2DB2681E0DD481190A786C
:101B80003032D2B23A2A03D39DF838303A3B9A1811
:101B900001F80129401EF2D5206B002840F1E680B3
:101BA000681E2063E2E0DDE902010022002300F06C
:101BB00069FB3CBF81F00041CDE902013FB247F231
:101BC00097507843474990FBF1F73FB2C7F10706BA
:101BD0009246DFF814B1012E19DBDDE90289F00726
:101BE00007D552465B464046494600F009FD80460F
:101BF000894676105046594652465B4600F000FD35
:101C000082468B46002EEAD1CDE9028921E0764258
:101C10009046DFF8D89012E0F00707D552465B46B1
:101C20004046494600F0ECFC804689467610504616
:101C3000594652465B4600F0E3FC82468B46002E36
:101C4000EAD1DDE9020142464B4600F0ABFDCDE9A9
:101C500002019DF8000066280CBF07F10A0006206B
:101C6000216B4518142DA8BF132530208DF81000C6
:101C70000DF11106DFF87890012D3BDBDDE9020163
:101C800000F0D0FB06F1080104220A26B0FBF6F3AF
:101C900003EB830EA0EB4E00303001F8010DB3FBD7
:101CA000F6F000EB8006A3EB4603303301F8013D6C
:101CB000521EEAD101F10806083D012DDCDBDDE909
:101CC000020100F0AFFB00F0CDFB02460B46DDE960
:101CD000020100F0D5FB00224B4600F091FCCDE95B
:101CE0000201CBE7A0860100000024400000F03F85
:101CF00084D797410DF11100301A0DF1110602E061
:101D0000401E7F1E761C31783029F9D09DF80010D6
:101D1000662902D13FB2791C03E065290CBF01217D
:101D20000021226B8D182DB2A842B8BF05462DB2F6
:101D3000002D1BD42946814204DA885D352828BF4E
:101D4000392000D230208A19521E00E06D1E491E33
:101D500012F801398342F9D0392802D1885D401C3C
:101D60008855002902D5761E6D1C7F1C3FB2009756
:101D70002BB232469DF83810204600F003F80FB021
:101D8000BDE8F08F2DE9F04385B00546894617463A
:101D90001E46D5F83080012E02DA01260FF2902778
:101DA00049F02000BDF93040662808BF641C18D0F7
:101DB000672840F082806FF003008442C0F2838085
:101DC000444580F28080641C95F83800000702D4F6
:101DD0004645B8BFB04624B2B8EB040848BF4FF040
:101DE0000008E868A96924B2012C25DA4A1C3023CE
:101DF0000B54B8F1010F03DA95F83810090702D532
:101E00002E211154521CAA6118EB040FB8BFC8F15F
:101E1000000424B261426962A044B045B8BF46469E
:101E200036B2EE6132463946AB69181800F0CEF989
:101E3000A8EB0600A862C1E00818A64218DA3246EC
:101E4000394600F0C3F9A9697118A961A01B68623D
:101E5000B8F1010F03DA95F83800000705D5E868F6
:101E60002E220A54E869401CE861C5F82880A5E0E4
:101E70002246394600F0AAF9A8692018361BB8F1A5
:101E8000010F03DA95F83810090703D5E9682E2207
:101E90004254401CA86136B2B045B8BF464636B27F
:101EA0003246E119EB68C01800F090F9A8693018C3
:101EB000A861A8EB0600686280E0B9F1610F16D155
:101EC0004FF0700918E0464504DA95F83810090714
:101ED00058BFB046B8F1010848BF4FF00008B9F14B
:101EE000670F14BF4FF045094FF0650904E0B9F1E1
:101EF000410F08BF4FF05009A9694A1CE86817F85C
:101F0000013B0B54B8F1010F05DA95F838100907B9
:101F100058BFAA6117D52E211154531CAB61B8F1DB
:101F2000010F10DB761E36B2B045B8BF464636B25A
:101F300032463946181800F049F9A8693018A861E6
:101F4000A8EB06006862A869E968471807F8019BD2
:101F5000002C03D42B2007F8010B03E02D2007F8F9
:101F6000010B644200260DF1080809E00A2221460F
:101F700000A800F03AFD019808F8010B009C761CBF
:101F800024B2012CF2DA022E06DA49F0200065288C
:101F900004BF302007F8010B4EB9302007F8010BC1
:101FA00007E0761E02A8305C303007F8010B012EE6
:101FB000F7DAA869E9684018381AE86195F8380036
:101FC00000F0140010280DD16869A9690818696A21
:101FD0000818E9690818A96A0818696B8842BCBF23
:101FE000081A286205B0BDE8F083F8B504460D462E
:101FF00016461F46002077B116F8011BA868A047B7
:10200000A86030B1E86A401CE86200207F1EF3D16E
:10201000F2BD4FF0FF30F2BD686A6C747A4C00007C
:102020006E616E004E414E00696E6600494E46007C
:10203000300001000278C9B28A421AB11CBF10F800
:10204000012FF9E718BF00207047000000F10103DD
:10205000810704D010F8011B89B18107FAD1026809
:10206000B2F10131914311F0803F04BF50F8042FC9
:10207000F6E710F8011B11B110F8011BFBE7C01ABD
:1020800070470000C9B2830706D0521E22D310F851
:10209000013B9942F7D11FE0083A13D302F1040241
:1020A00041EA012141EA014150F8043B121F21BFDE
:1020B0004B40A3F1013C2CEA030C1CF0803FF3D011
:1020C000C9B2001F083210F8013B521E28BF91EA26
:1020D000030FF8D818BF0120401E70471B4213D1D0
:1020E000094236D12AB18446B0FBF2F002FB10C29D
:1020F000704700F081BCFCD30022002370470B0026
:102100000200002100207047904271EB030CF6D3CF
:1021100070B5B1FA81F4B3FA83F52C1BA340C4F176
:10212000200532FA05F63343A2405FF00046E64050
:1021300002E05B085FEA3202841A71EB030524BFF8
:10214000204629467641F4D302000B0030000021DE
:1021500070BD012ACFD970B5140C20D0B1FA81F42A
:10216000B2FA82F5C4F120046419B4F12006D6D382
:10217000B2405FF00044F440002502E052085FEAFC
:102180003303C61A71EB020E24BF30467146644118
:102190006D41F3D302000B002000290070BD0C46F6
:1021A000B1FBF2F102FB11452D0445EA1045B5FBE8
:1021B000F2F402FB145580B240EA0545B5FBF2F09B
:1021C00002FB105240EA044070BD060062B38B0768
:1021D00008D0521E11F8013B00F8013B00F02480AA
:1021E0008B07F6D1830740F0208000BF103A07D359
:1021F00030B4B1E83810103AA0E83810F9D230BC49
:10220000530724BFB1E80810A0E8081044BF51F8F4
:10221000043B40F8043BD20724BF31F8022B20F8DE
:10222000022B44BF0B7803707047083A07D3B1E81C
:102230000810083A40F8043B40F804CBF7D25307A3
:10224000E4E730B4436803F0004201211B031B0B99
:10225000436004BF0368002B08D10DE00368DD0F65
:1022600045EA440444605B000360491E4468E3029D
:10227000F4D523031B0B436043681A4342600846AE
:1022800030BC70474FF4001C1CEB410F94BF1CEB9B
:10229000430F09E041EA030C50EA4C0C52EA0C0CE3
:1022A00003D2994208BF9042704714BF8B428242CA
:1022B000704700004FF4001C1CEB410F94BF1CEB57
:1022C000430F09E041EA030C50EA4C0C52EA0C0CB3
:1022D00003D28B4208BF8242704714BF994290429A
:1022E0007047000070B5044640F2FF726068C0F3AA
:1022F0000A500D46904207D16068000304BF206871
:10230000002817D0022070BD20B92046FFF799FFA2
:10231000012867DA012D0FDB40F2FF71091A8D42A7
:102320000AD3606800284CBF9FED2F0B9FED300B48
:1023300084ED000B012070BD4142A942616806DABC
:102340006FF31E51401941EA0050606041E0401EA9
:1023500063680122451962F31F5305F1350001F04E
:1023600000416360352803D361600020206070BDA8
:10237000002215F11F0F04DA2268236000202035A7
:102380006060684213D0521E25689241C0F120035C
:10239000D2439D4055EAD27225686668C54006FA68
:1023A00003F32B432360636823FA00F060606068E6
:1023B00008436060B2F1004F03D80DD12078C00708
:1023C0000AD52068401C2060206828B96068401C3D
:1023D00060604FF0FF3070BD6068884204BF2068C5
:1023E0000028F6D1002070BD000000000000F0FFC2
:1023F000000000000000F07FF446400D40EAC120DC
:10240000490006D200F014F8004248BF6FF00040C7
:10241000604700F00DF84FF0004188428CBF08463D
:1024200040426047400D40EAC120490080F00D80E5
:1024300040F00040490DA1F58061491C05D4D1F15F
:102440001F0154BFC840C01770474FF000007047CD
:10245000010040F10980F446404200F005F851F0D7
:1024600000416047010000BF09D0B0FA80F1884008
:10247000C91CC1F58461090501EBD02140057047F5
:1024800070B44FF0004591EA030F44BF6B4000F079
:10249000BFBA00BF841A71EB030604D26E40001B62
:1024A000B141121973414FF4001C1CEB410F34BFB2
:1024B0007CEB430684E00C0DA4EB1356362E7DDC3A
:1024C000012E43DC45EAC32343EA525312BFD20232
:1024D00092025B08240545EAC12141EA5051D2EB42
:1024E000C020994125D407D1B0FA80F610FA06F140
:1024F00064D00020203608E0B1FA81F6B140C6F180
:10250000200220FA02F21143B0404FEAF474B4EB17
:10251000465434F001064FEA74040AD8D6F5001682
:10252000760D04F00044F04061FA06F25040F140AC
:102530004840C00A40EA415021F0004128BF5FEA0C
:10254000500550F1000044EBD12137E045EAC323A8
:10255000DB0A45EAC121C90AB6F120050EDD42EACF
:102560000242120CC5F1200603FA06F6EB4042EADD
:1025700006056D42984161F100010DE062FA06F531
:10258000F240554063FA06FC82EA0C02F3405A40DE
:102590006D42904161EB030111F4801F05D1641E6F
:1025A000620502D06D004041494121F48011430889
:1025B00075F1004350F1000041EB045170BC7047CD
:1025C0001CEB410F15D223F0004352EA43060BD017
:1025D0004FEA4C0CBCEB410F04D80C0D661E342E98
:1025E000B7DDEBE7801A994150EA410608BF0021A8
:1025F000E4E708BF1CEB430F28BF6FF00001DDE7E5
:10260000B0B581EA030C0CF0004C40F2FF7515EAFE
:1026100011541DBF15EA1357AC42AF4239E0E4191B
:1026200023EA455343F48013C90241F0004141EAD3
:10263000505EC7021100A7FB020200284FF0000005
:10264000EEFB01204FF00001E3FB072118BF42F031
:102650000102401800214941E3FB0E01A4F580640A
:102660000F0302D252004041494154F101046CDD94
:10267000470872F1004250F1000051EB0451A1F5FE
:1026800080115CBF41EA0C01B0BD4CEA055100204D
:10269000B0BD05EA1357AC4214BFAF4241E050EA67
:1026A000410E1CBF52EA430E02E061460020B0BD5D
:1026B00024423C441BD15FEA070EF6D0090302BF57
:1026C00001460020AEF1140EB1FA81F7AEEB07041B
:1026D00001FA07FE0C37C7F1200100FA07F7C840DE
:1026E0004EEA000E23EA455343F48013A2E733F089
:1026F0000043B3FA83F704BFB2FA82FE77440B3F7C
:10270000E41BB7F1200E2FBF02FA0EF3BB40C7F156
:10271000200E22FA0EFE38BF43EA0E03BA40641CB4
:1027200082E750EA410E14BF52EA430E6FF00001F7
:102730004FF4001717EB430F8ABF194617EB410FF1
:10274000B5E74CEA05510020B0BDD4F10104B4F165
:1027500020070FDAC4F12007520828BF42F0010217
:1027600010FA07F501FA07F7E1BF2A43E0403843C2
:10277000E1400FE0352C98DCC7F1200452EA40021A
:1027800020FA07F218BF42F0010231FA07F0A14027
:102790000A43002172F1004250F1000051EB0C019C
:1027A000B0BD0000F0B540F2FF7581EA030C0CF0FB
:1027B000004C15EA11541DBF15EA1357AC42AF4245
:1027C000E5E0BC41C1F31301C3F31303801A99413F
:1027D00043F4801304D2641E4000494180185941DB
:1027E000C90241EA5051B1FBF3F603FB1611A2FBFB
:1027F0000675D7EBC020A94102D2761E8018594138
:10280000C90241EA5051B1FBF3FE03FB1E11A2FBCA
:102810000E75D7EBC020A94103D2AEF1010E80188E
:102820005941890241EA9051760546EA8E2EB1FB64
:10283000F3F603FB1611A2FB0675D7EB8020A94126
:1028400002D2761E80185941C90241EA50514EEA1F
:10285000060EB1FBF3F603FB1611A2FB0675D7EBD0
:10286000C020A94102D2761E80185941C90241EA0E
:102870005051B1FBF3F703FB1711A2FB0735D3EB64
:10288000C020A94167F100070CBF004247F00107D3
:1028900066F3D5274FEA1E31B80814F5806412DDBF
:1028A000BD0775F1004250EB0E5051EB045111F58C
:1028B000801F5CBF41EA0C01F0BD4CF07F6141F02C
:1028C000E0410020F0BDBD076D0840EA0E5041F424
:1028D0008011D4F10104B4F120060ADAC4F1200613
:1028E0000200E04001FA06F3E1401843B24015430C
:1028F0000EE0342C13DCC6F1200445EA40056D08D7
:1029000020FA06F2154321FA06F0A1400D430021FA
:1029100075F1004250F1000051EB0C01F0BD0020B8
:102920005FEA0C01F0BDCFB992185B41B3FA83F7AF
:1029300004BFB2FA82F6BF190B3FB7F120062FBFD2
:1029400002FA06F3BB40C7F1200622FA06F638BFAA
:102950003343BA401CB1E419641E33E77F4231F0BF
:102960000041B1FA81F404BFB0FA80F6A4190B3C1F
:10297000B4F120062FBF00FA06F1A140C4F12006F1
:1029800020FA06F638BF3143A0403C1B1AE7AC42A0
:102990001ABF05EA1357AF4212E050EA41061CBFC6
:1029A00052EA4306BFE750EA4107304661461CBF82
:1029B00041EA0551F0BD52EA430C08BFC143F0BDE6
:1029C00000204FF4001616EB410F98BF16EB430F93
:1029D00008BF16EB410F24BFC14305E016EB430FC0
:1029E0000CBF61464CEA0551F0BD91FBF2F303FBCD
:1029F0001211C0E9003170477047000070B44FF009
:102A0000004591EA030C44BF6B40FFF743BD00BF94
:102A1000841A71EB030603D2001BB14112197341F2
:102A20004FF4001C1CEB410F34BF7CEB430443E02C
:102A30000C0DA4EB1356352E50DC45EAC323DB0AFC
:102A400045EAC121C912B6F120050DDD63FA05F68C
:102A5000EB4086EA0305124218BF45F00105C01895
:102A600051F100010CD213E062FA06F5F240554034
:102A7000F3415A40B340F3405A408018594107D3BC
:102A800049085FEA30005FEA350528BF45F00105D7
:102A900001F58011420875F1004250F1000041EB50
:102AA000045170BC4FF4001C1CEB410F38BF704741
:102AB0000020090D090570471CEB410F10D252EAA6
:102AC00043060BD0BCEB410F05D80C0DAB43661E83
:102AD000342EB5DD02E0AB438018594170BC70471D
:102AE00070BC704710B50400A4B2002C06D1DFF80A
:102AF000D00B006801210182002008E0DFF8C40B40
:102B0000006800688047DFF8B80B00680A3010BD25
:102B100080B5DFF8B40B4078DFF8A41B0968C978EA
:102B200088421AD3DFF8980B00688078002814D107
:102B3000DFF88C0B0068808800280ED1DFF8800B4E
:102B40000068DFF87C1B0968C9788172DFF8740BB4
:102B5000006840688047002000E0022002BD10B5F8
:102B60000400A4B2002C06D1DFF8540B0068012148
:102B70000182002008E0DFF84C0B00688068804785
:102B8000DFF83C0B00680C3010BD10B5DFF8300BDF
:102B90000068C178DFF8280B00684079DFF8B02BB7
:102BA0001268926990470400DFF8140B0068807A7D
:102BB00000282AD0E4B2002C0BD1DFF8040B006807
:102BC0000079002805D1DFF8F80A0068807800282D
:102BD00001D002201AE0E4B2002C16D1DFF8E40A9A
:102BE0000068C0688047DFF8D80A0068DFF8D01AAC
:102BF00009684979C172DFF8C80A0068DFF8C01AAD
:102C00000968C9780173002000E0022010BD10B5EA
:102C10000400A4B2002C06D1DFF8A40A0068022147
:102C2000018200207FE0DFF82C0B00210180DFF81B
:102C3000900A006800787F2108422AD1DFF8800AD4
:102C40000068407A810608D5DFF8081B097851F042
:102C50000201DFF8002B117007E0DFF8F81A09789D
:102C600011F0FD01DFF8EC2A1170410608D5DFF8FC
:102C7000E41A097851F00101DFF8D82A11704BE00D
:102C8000DFF8D01A097811F0FE01DFF8C82A1170B8
:102C900042E0DFF82C0A0068007810F07F0001287D
:102CA00002D1DFF8B00A3EE0DFF8140A00680078CD
:102CB00010F07F0002282DD1DFF8041A0968497945
:102CC00011F00F0210000A0611D5C0B2DFF8882AF1
:102CD00052F8202012F03002102A1DD1DFF8742A99
:102CE000127852F00102DFF86C3A1A7014E0C0B2A8
:102CF000DFF8642A52F8202012F44052B2F5805FC7
:102D00000AD1DFF8502A127852F00102DFF8443A73
:102D10001A7001E0002006E0DFF8A80900680069E9
:102D20008047DFF8300A10BD2DE9F843DFF890093D
:102D30000068007810F07F04002C0BD1DFF88009C8
:102D40000068407A10F0DF00DFF8741909684872F3
:102D500000209EE0022C40F09B80DFF864090068B0
:102D60004088002805D1DFF858090068007900285C
:102D700001D002208DE0DFF850090600DFF840099D
:102D800000684079804638F0800081464F46DFF881
:102D9000300900684079000607D5DFF8BC0950F813
:102DA000270010F03000050006E0DFF8AC0950F80D
:102DB000270010F4405005003078814507D2002DDF
:102DC00005D0DFF8FC080068807A002801D10220D5
:102DD0005FE05FEA086011D5DFF87C0950F8270052
:102DE00010F0300010284CD13800C0B200F081FD46
:102DF00030213800C0B200F0E4FC42E0DFF85809AE
:102E000050F8270010F44050B0F5805F39D1002F02
:102E10001ED1DFF8480990F82C1089B23800C0B2F2
:102E200000F0CBFDDFF8301951F827104BF68F7208
:102E30001140080090F4805090F40050DFF8181909
:102E400040F4004050F0800080B241F8270018E0C4
:102E50003800C0B200F034FDDFF8FC1851F827103C
:102E60004BF68F721140080090F4805090F400509F
:102E7000DFF8E41840F4004050F0800080B241F8E0
:102E80002700DFF84008006840698047002000E024
:102E90000220BDE8F283F8B5DFF824080068407925
:102EA000040034F0800006003500DFF814080068E4
:102EB0004079000607D5DFF8A00850F8250010F08B
:102EC0003000070006E0DFF8900850F8250010F405
:102ED00040500700DFF8F007007885420DD2DFF898
:102EE000E00700684088002807D1002F05D0DFF8F0
:102EF000D0070068807A002801D102202EE0200649
:102F000013D5DFF8541851F8251048F6BF72114058
:102F1000080090F01000DFF8401840F4004050F036
:102F2000800080B241F8250012E0DFF82C1851F83B
:102F300025104BF68F721140080090F48050DFF896
:102F4000181840F4004050F0800080B241F825008D
:102F5000DFF870070068806980470020F2BD80B507
:102F6000DFF85C070068407A50F02000DFF8501767
:102F700009684872DFF84C070068C0698047002084
:102F800002BD10B40200DFF838070068408A030071
:102F900092B2002A07D18888C01ADFF82447246833
:102FA0002082002001E00868181810BC7047F8B5AE
:102FB000DFF80C07006810F1100420880500A068F5
:102FC00000281BD0002D19D0A0880700BD4200D2D8
:102FD0002F00380080B2A168884706002088C01BF7
:102FE0002080608838186080002000F0CCFC3A0017
:102FF00092B2010089B2300000F04BFD2088002819
:103000000CD0DFF85C074FF4405101800021002014
:1030100000F0C6FCDFF84C07302101802088A18831
:10302000884205D3DFF898060068032101721DE08D
:103030002088012805D3DFF8880600680521017281
:1030400014E02088002811D1DFF8740600680621FA
:103050000172DFF81407006880B2DFF81017002251
:1030600041F81020DFF8FC0630210180F1BD2DE988
:10307000F041DFF84C06006810F110042588DFF8F5
:1030800040060068067A002D21D1042E1FD1DFF8FA
:10309000E0060078012813D1DFF8CC06006880B282
:1030A000DFF8C816002241F81020DFF8B8063021FA
:1030B000018004200600DFF8B8060021017005E059
:1030C00007200600DFF89C06102101802EE0A08872
:1030D0008046A84501D3042600E00226454500D2DB
:1030E000A846404680B2A16888470700002000F04B
:1030F0003DFC424692B2010089B2380000F0A9FCC2
:10310000414689B2002000F04BFC2088B0EB08005B
:103110002080608818EB00006080DFF848063021CE
:103120000180DFF83C064FF440510180DFF8900544
:1031300000680672BDE8F08170B50224DFF88005F2
:1031400000684578DFF87805006800787F2108423C
:1031500055D1092D03D1FFF7DBFC040073E0052DE9
:103160001DD1DFF85C050068C078802811D2DFF837
:1031700050050068807800280BD1DFF8440500680E
:103180008088002805D1DFF838050068807A00289B
:1031900002D0082006007CE00020040053E0032D4C
:1031A00012D1DFF81C050068C078012809D1DFF8CA
:1031B000100500688088002803D1FFF7D0FE0400C6
:1031C00041E0022004003EE0012D3CD1DFF8F00494
:1031D0000068C07801280FD1DFF8E4040068808817
:1031E000002809D1DFF8D8040068407A800603D5AA
:1031F000FFF79AFD040026E00220040023E0DFF838
:10320000C0040068007810F07F00012805D10B2D64
:1032100019D1FFF7BAFC040015E0DFF8A404006838
:10322000007810F07F0002280BD1012D03D1FFF7A9
:103230007BFD040007E0032D05D1FFF72CFE040001
:1032400001E002200400E4B2002C0DD02800C0B23E
:10325000DFF8FC140968496988470400E4B2032CCC
:1032600002D10920060014E0E4B2002C02D00820AC
:1032700006000EE006200600DFF8EC04006880B2CD
:10328000DFF8E814002241F81020DFF8D8043021DC
:103290000180DFF82C040068067270BD2DE9F0474C
:1032A00082B0DFF81C04006846780020040000208B
:1032B0008146062E27D1DFF80804006800787F21B8
:1032C000084240F0D080DFF8F80300688078C0B290
:1032D000012805D1DFF878140968C9690C00C2E03B
:1032E000C0B2022805D1DFF868140968096A0C0029
:1032F000B9E0C0B2032840F0B680DFF85414096882
:10330000496A0C00AFE0002E78D1DFF8B403006802
:103310004088002872D1DFF8A8030068C08802281E
:103320006CD1DFF89C0300680079002866D1DFF8D3
:103330009003006800787F21084209D1DFF88003FC
:1033400000688088002803D1DFF8280404008AE0A0
:10335000DFF86C030068007810F07F00012815D1B9
:103360000021DFF85C0300684079DFF8E42312688D
:1033700092699047002876D1DFF844030068807A8C
:10338000002870D0DFF8EC0304006CE0DFF83003B5
:103390000068007810F07F00022864D1DFF8200375
:1033A0000068407910F00F000700DFF81403006890
:1033B000407910F070008046C148006840790006EE
:1033C00007D5DFF8940350F8270010F0300082464C
:1033D00006E0DFF8840350F8270010F440508246DE
:1033E000B948007887423ED2B8F1000F3BD1BAF11C
:1033F000000F38D0DFF87C03040034E0082E09D138
:10340000AF48006800787F2108422CD1DFF86803BC
:10341000040028E00A2E26D1A9480068007810F0A0
:103420007F0001281FD1A6480068807A00281AD0A2
:10343000A34800684088002815D1A1480068007999
:10344000002810D19E480068C08801280BD10021B7
:103450009B4800684079BE4A1268926990470028EC
:1034600001D1C6480400200000280BD09448006811
:10347000A0F812909248006884610020A0470020C4
:1034800005000FE08E4800684078B1490968096975
:1034900088470500EDB2032D04D189480068092151
:1034A000017264E086480068008A4FF6FF71884226
:1034B00004D1834800680921017258E0EDB2022D61
:1034C00004D07F480068008A002804D17C48006846
:1034D000082101724BE07A480068007800063ED56A
:1034E00077480068C0880090009875490968098A83
:1034F000884204D2724800680099018225E0704831
:103500000068008A6E490968C98888421DD26C48E3
:103510000068008A8E49096891F82C1089B28842A7
:1035200003D29348002101700FE065480068008ACB
:103530008749096891F82C1090FBF1F201FB120009
:10354000002802D18A48012101705D480068804945
:10355000096891F82C108182FFF789FD07E058482F
:103560000068032101727E484FF440510180BDE89C
:10357000F38738B501257C48006880B2804931F86E
:103580001000400000F1804010F5C04004004C489D
:103590000068007A092826D049480068217801701F
:1035A000641C4748006821784170641CADB214EB7C
:1035B00045042000841C008800F040FA4049096856
:1035C0004880ADB214EB45042000841C008800F054
:1035D00035FA3B4909688880ADB214EB4504384898
:1035E00000682188C1803648006801210172344892
:1035F0000068C088002802D1FFF79EFD01E0FFF7B8
:103600004DFE00F063F832BD10B52D480068047A15
:10361000022C01D0042C06D1FFF729FD28480068B0
:10362000007A04001EE0062C1AD125480068407874
:1036300005280ED12248006800787F21084208D171
:103640001F480068C07800F05FF81E480068006AF4
:1036500080473F480068806880470820040001E0F8
:103660000820040016480068047200F02FF810BD0E
:1036700010B513480068047A022C01D0042C02D142
:103680000820040015E0032C01D0052C06D1FFF71B
:103690008EFC0B480068007A04000AE0072C06D173
:1036A0002B480068C06880470820040001E008201B
:1036B000040003480068047200F008F810BD000020
:1036C0009C0A0020A40A00205C01002080B5234849
:1036D00090F82C1089B2002000F06FF9294800689A
:1036E000007A082806D11E484FF4805101801D48F9
:1036F0001021018023480068007A092801D10120A7
:1037000000E00020C0B202BD30B41F4A127800238E
:103710001900914215D20B00DBB20F4C54F8233044
:1037200048F68F7423400C00E4B2234343F4004373
:1037300053F080030C00E4B2074D45F82430491CD7
:10374000E7E7C0B250F08003104C236030BC7047F4
:10375000A00A0020940A0020005C00400000002025
:10376000C40A0020C60A0020505C004004600040EB
:10377000D10A00200F2C0008E52A00085F2B000862
:10378000086000409C0A00205C0100204C5C004066
:10379000704700004FF6F8710140DFF88822116091
:1037A0007047C0B2DFF8802252F8202048F68F130D
:1037B0001A400A4392B2C0B2DFF86C3243F82020BC
:1037C000704710B4C0B2DFF8603253F8203048F6CA
:1037D000BF7423401A00CB0601D592F010028B066D
:1037E00001D592F02002C0B2DFF83C3242F4004230
:1037F00052F0800292B243F8202010BC704710B4FF
:10380000C0B2DFF8243253F820304BF68F742340D7
:103810001A00CB0401D592F480528B0401D592F4A6
:103820000052C0B2DFF8003242F4004252F080028F
:1038300092B243F8202010BC7047C0B2DFF8E821F4
:1038400052F8202048F6BF731A40110091F0100181
:1038500091F02001C0B2DFF8D02141F4004151F0D5
:10386000800189B242F820107047C0B2DFF8B82159
:1038700052F820204BF68F731A40110091F48051BA
:1038800091F40051C0B2DFF8A02141F4004151F0A1
:10389000800189B242F820107047C0B2DFF8881169
:1038A00051F8201048F68F62114041F4004151F068
:1038B000800189B2C0B2DFF8702142F82010704751
:1038C000C0B2DFF8641151F82010490410D5C0B21D
:1038D000DFF8541151F8201048F68F72114041F46E
:1038E000404151F08001C0B2DFF83C2142F8201085
:1038F0007047C0B2DFF8301151F82010490610D5DA
:10390000C0B2DFF8241151F8201048F68F72114030
:1039100041F4004151F0C001C0B2DFF80C2142F87F
:103920002010704710B4DFF8FC20126892B2C0B2C9
:1039300012EBC002DFF8F43089B24C08A4B2640084
:1039400043F8124010BC704710B4DFF8D82012685A
:1039500092B2C0B212EBC002DFF8D43089B24C0888
:10396000A4B2640043F8124010BC7047DFF8B410F2
:10397000096889B2C0B211EBC000DFF8B01051F88D
:10398000100080B27047DFF89C10096889B2C0B29D
:1039900011EBC000DFF8981051F8100080B27047AA
:1039A000DFF88020126892B2C0B212EBC002DFF8DA
:1039B000843089B243F81210704730B4DFF86430B5
:1039C0001B689BB2C0B213EBC003DFF86C4014EB72
:1039D00043031A0089B23F290CD389B24C09230052
:1039E0001F24214200D15B1E9BB29B0253F4004373
:1039F000136008E089B24C082300CC0700D55B1C9B
:103A00009BB29B02136030BC70470649096889B2BB
:103A1000C0B211EBC000084951F810008005800DBC
:103A200070470000505C0040005C004000600040B7
:103A300008600040046000400C60004001000B0082
:103A40001A0089B2D2B2130253EA1123180080B2CD
:103A50007047F0B492B2531C5B1089B25FEA410C1C
:103A60000CF1804C1CF5C04C67461C00002C0ED09D
:103A700090F800C06546401C90F800C055EA0C2C38
:103A800066463E80BF1CBF1C401C641EEEE7F0BCB7
:103A9000704770B492B2531C5B1089B24E0006F1AD
:103AA000804616F5C04635001C00002C06D02E6856
:103AB00006802D1D401C401C641EF6E770BC70473C
:103AC00010B52DED088B8AB0040000A8242100F069
:103AD000B9FC00A800F0CDF89DED084ADDED073AED
:103AE0009DED063ADDED052A9DED042ADDED031A74
:103AF000B0EE618AF0EE428AB0EE629AF0EE439A3E
:103B0000B0EE63AAF0EE44AA9DED020ADFEDB90A19
:103B100020EE200A10EE100AFDF700FB0022DFF86D
:103B2000C838FEF73FFEFDF7B7FB01EE100AB0EE16
:103B30006A4AF0EE4A3AB0EE693AF0EE492AB0EE3F
:103B4000682AF0EE481AB0EE418AF0EE618AB0EED3
:103B5000429AF0EE629AB0EE43AAF0EE63AAB0EE9B
:103B600044BA9DED010ADFEDA30A20EE200A10EE13
:103B7000100AFDF7D3FA0022DFF86C38FEF712FEC8
:103B8000FDF78AFB00EE900AB0EE4B4AF0EE6A3A7F
:103B9000B0EE4A3AF0EE692AB0EE492AF0EE681A21
:103BA000B0EE481AB0EE608AF0EE418AB0EE619A4B
:103BB000F0EE429AB0EE62AAF0EE43AAB0EE63BA1B
:103BC000F0EE44BA9DED000ADFED8A0A20EE200AED
:103BD00010EE100AFDF7A2FA0022DFF80C38FEF70B
:103BE000E1FDFDF759FB00EE100AB0EE6B4AF0EE76
:103BF0004B3AB0EE6A3AF0EE4A2AB0EE692AF0EE9D
:103C0000491AB0EE681AF0EE480AFCF7BDFADFF880
:103C1000C80700682060DFF8C40700686060DFF84C
:103C2000C0070068A060DFF8BC070068E0600AB069
:103C3000BDEC088B10BD70B504000D001600062207
:103C40002821200000F0A5FC06232A00282132208C
:103C500000F0E6FE0623320003213C2000F0E0FEE7
:103C600070BD10B5040006222821200000F091FC50
:103C700010BD10B50400052001F038F8DFF86C170E
:103C8000DFF86C0700F002FADFF86817DFF8680762
:103C900000F040FADFF86417DFF8640700F08CFAF0
:103CA000DFF8600790ED010ADFF84407D0ED010A64
:103CB00030EE600A84ED000ADFF8340790ED000A68
:103CC000DFF84007D0ED000A30EE600A84ED010A0B
:103CD000DFF81C0790ED020ADFF82807D0ED020A92
:103CE00030EE600A84ED020ADFF80C070068E0603D
:103CF000DFF8040740682061DFF8FC068068606137
:103D0000DFF8FC060068A061DFF8F4064068E061B7
:103D1000DFF8EC0680682062052000F0F1FF10BD9E
:103D200038B54FF47A7001F077F8002400250020B0
:103D30000500642D38DADFF8B406FFF792FFDFF8EC
:103D4000AC16DFF8AC0600F0A1F9DFF8B80690ED8C
:103D5000000ADFF89C06D0ED000A30EE200ADFF8FA
:103D6000A40680ED000ADFF89C0690ED010ADFF85A
:103D70008006D0ED010A30EE200ADFF8880680EDDB
:103D8000010ADFF8800690ED020ADFF86406D0ED44
:103D9000020A30EE200ADFF86C0680ED020A0A20E3
:103DA00001F03AF86D1CC4E7DFF8580690ED000A00
:103DB000DFEDB50A80EE200ADFF8480680ED000A44
:103DC000DFF8400690ED010ADFEDAF0A80EE200A31
:103DD000DFF8300680ED010ADFF8280690ED020AD0
:103DE000DFEDA90A80EE200ADFF8180680ED020A4E
:103DF00031BD0000DB0F494000B585B008208DF8CB
:103E0000040080208DF8050007208DF80600302082
:103E10008DF8070080208DF8080000208DF809003B
:103E200000208DF80A0001A800F010FB10208DF88A
:103E30000C0005208DF80D0003A800F056FB0020B3
:103E400000F06FFB082000F02EFB00208DF8000032
:103E50000122232100A800F09CFB9DF8000010F037
:103E60003000C0B2002804D0102808D020280CD080
:103E700010E0DFF89405DFF8941501600AE0DFF840
:103E80008805DFF88C15016004E0DFF87C05DFF8B9
:103E9000841501609DF8000010F04000DFF87815EF
:103EA000087005B000BD00B585B000208DF8080091
:103EB0001C208DF8090020208DF80B0000208DF8C3
:103EC0000A0002A800F0DCFC00208DF80C00902015
:103ED0008DF80D0007208DF80E0000208DF81200DF
:103EE00000208DF8100000208DF8110008208DF8BA
:103EF0000F0003A800F05CFC80208DF80400302047
:103F00008DF8050000208DF8060000208DF80700D0
:103F100001A800F07AFC002000F098FC00208DF849
:103F2000020001230DF1020201213C2000F078FD86
:103F30009DF8020010F0E000C0B220280CD040280C
:103F400015D060281ED0802827D0A02830D0C028C7
:103F500039D0E02842D049E0DFF8C00440F24C41BB
:103F60000180DFF8BC044FF4757101803EE0DFF89A
:103F7000AC0440F257310180DFF8A4044FF43E71E5
:103F8000018033E0DFF8940440F29E210180DFF8E5
:103F900090044FF41671018028E0DFF880044FF49C
:103FA000E1710180DFF878044FF4C87101801DE0F1
:103FB000DFF868044FF4C8710180DFF8640440F250
:103FC0006311018012E0DFF854044FF4A571018001
:103FD000DFF84C0440F22711018007E0DFF83C04D1
:103FE000E6210180DFF83804CD210180022300AAF8
:103FF0002321322000F014FD9DF80100400609D570
:10400000DFF8200440210170DFF81C045FF07A51D2
:10401000016028E0DFF80C04102101709DF8000019
:1040200010F03000C0B2002806D010280AD0202896
:104030000ED0302812D016E0DFF8EC035FF07E518E
:10404000016010E0DFF8E0035FF07C5101600AE0FE
:10405000DFF8D4035FF07A51016004E0DFF8C803B1
:10406000DFF8C81301609DF80000400606D49DF8F3
:104070000100C0F3801010F0010000E00120DFF823
:10408000B013087005B000BD0000C8421CB400AAFF
:104090000023002418C2083A0022DF4B1B78002BB3
:1040A0000FD100231A00032A1CDA11EB42035B78BC
:1040B0001B0211F812401B1900AC24F81230521CDC
:1040C000F1E700231A00032A0CDA11F812301B0260
:1040D00011EB4204647853FA84F300AC24F81230F4
:1040E000521CF0E700231A00032A11DA00AB33F95F
:1040F000123000EE103AB8EEC00AC34BD3ED000AFE
:1041000080EE200A10EB820383ED000A521CEBE7DD
:1041100013BC70471CB4C64B1B78002B18D100236E
:104120001A00D2B2032A2CD2D2B211EB42035B782E
:104130001B02D2B211F8124004FA83F3B94C24786E
:1041400093FBF4F3D2B200AC24F81230521CE8E72F
:1041500000231A00D2B2032A13D2D2B211F81230BD
:104160001B02D2B211EB4204647804FA83F3AD4C23
:10417000247893FBF4F3D2B200AC24F81230521C32
:10418000E8E700231A00D2B2032A13D2D2B200AB5E
:1041900033F9123000EE103AB8EEC00AA24BD3ED5C
:1041A000000A80EE200AD2B210EB820383ED000AEF
:1041B000521CE8E713BC70470A7812024B78D218F9
:1041C00012B200EE102AB8EEC00A944A128800EE2D
:1041D000902AF8EE600A80EE200A80ED000A8A78C4
:1041E0001202CB78D21812B200EE102AB8EEC00A32
:1041F0008B4A128800EE902AF8EE600A80EE200AC0
:1042000080ED020A0A7912024B79D21812B200EE3E
:10421000102AB8EEC00A814A128800EE902AF8EE01
:10422000600A80EE200A80ED010A704730B52DED5E
:10423000028B81B004007F4D95ED000AF0EE000A7C
:1042400020EE200AD5ED000A20EE200AD5ED010A65
:10425000B0EE001A60EE810A95ED011A00EE810AB7
:10426000FFEE000A30EE200A10EE100AFCF756FFAF
:1042700041EC110BB0EE418AF0EE618A95ED010A36
:10428000F0EE000A20EE200AD5ED020A20EE200A08
:10429000D5ED000AB0EE001A60EE810A95ED031A22
:1042A00000EEC10A10EE100AFCF738FF41EC100BCB
:1042B000B0EE481AF0EE681A00F0DCFE53EC102B5A
:1042C00000204949FEF79CF95FF0C0425A4BFEF7C7
:1042D00069FAFCF7E1FF206095ED010AF0EE000AB3
:1042E00020EE200AD5ED030A20EE200AD5ED000AC3
:1042F000B0EE001A60EE810A95ED021A00EE810A16
:1043000010EE100AFCF70AFF41EC100B00F04CFF16
:1043100053EC102B93F0004300203349FEF770F963
:104320005FF0C042444BFEF73DFAFCF7B5FF60601A
:1043300095ED000AF0EE000A20EE200AD5ED000A05
:1043400020EE200AD5ED030AB0EE001A60EE810AD5
:1043500095ED031A00EE810AFFEE000A30EE200A06
:1043600010EE100AFCF7DAFE41EC110BB0EE418AB8
:10437000F0EE618A95ED020AF0EE000A20EE200AC6
:10438000D5ED030A20EE200AD5ED000AB0EE001AA2
:1043900060EE810A95ED011A00EEC10A10EE100AD6
:1043A000FCF7BCFE41EC100BB0EE481AF0EE681AB8
:1043B00000F060FE53EC102B00200B49FEF720F9B3
:1043C0005FF0C0421C4BFEF7EDF9FCF765FFA06003
:1043D00001B0BDEC028B30BD40010020540A00202A
:1043E000580A00205C0A0020008066404C0A002029
:1043F000100A0020440A0020040A00203C0A002081
:10440000F8090020280A00206C0A0020EC91E44200
:10441000549264425C8F6441CD0A0020B40A0020AB
:10442000B60A0020D00A0020480100209FCDAA3DF6
:10443000CF0A002004010020FB2109400020704722
:1044400000207047002200F0B7BE000010B582B017
:10445000040000208DF8010000208DF8000000F01D
:10446000BBF89DF80100217862781143A2781143CE
:10447000E278114308438DF801009DF8000021798E
:1044800062791143A279114308438DF8000001229B
:1044900020210DF1010000F05DF80122232100A888
:1044A00000F058F813BD10B582B00400012222219B
:1044B00000A800F06EF89DF8000010F0F7008DF8ED
:1044C00000009DF8000020438DF800000122222109
:1044D00000A800F03FF80122222100A800F059F8BE
:1044E0009DF800000007E1D513BD10B582B00400AF
:1044F0000122212100A800F04CF89DF8000010F0E6
:10450000C0008DF800009DF800002178627811430A
:1045100008438DF800000122212100A800F01AF8BC
:1045200013BD10B582B004000122242100A800F0C0
:1045300030F89DF8000010F0EF008DF800009DF8B5
:10454000000020438DF800000122242100A800F083
:1045500001F813BD70B504000D001600B6B2022EAE
:1045600001D355F0400508218E4800F0A5FE280033
:10457000C0B200F0E0F8B6B2012E05D3207800F00A
:10458000DAF8761E641CF6E70821864800F091FEF2
:1045900070BD70B504000D001600B6B2022E02D335
:1045A00055F0C00501E055F0800508217D4800F078
:1045B00083FE2800C0B200F0BEF8B6B2012E06D3CA
:1045C000002000F0B8F82070761E641CF5E7082182
:1045D000744800F06EFE70BD00B587B001214FF445
:1045E000805001F0FFF801215FF4003001F0EBF89A
:1045F00001215FF4001001F0E6F801215FF40010E2
:1046000001F0E1F801215FF4001001F0DCF805226F
:1046100005215FF0904000F051FE052206215FF079
:10462000904000F04BFE052207215FF0904000F023
:1046300045FE02208DF8040000208DF806000020C1
:104640008DF8070003208DF805002020009000A9B8
:104650005FF0904000F0CAFD8020009000A95FF05C
:10466000904000F0C3FD4020009000A95FF0904012
:1046700000F0BCFD4C4801F043F90020ADF8080003
:104680004FF4E060ADF80C000020ADF80E00002003
:10469000ADF810004FF40070ADF812000020ADF836
:1046A00014000020ADF816000720ADF818004FF4F4
:1046B0008270ADF80A0002A93B4801F053F94FF4AB
:1046C0008051394801F0A2F90121374801F090F9F1
:1046D0000820009001208DF8040000208DF80600CD
:1046E00003208DF8050000A92E4800F07FFD082169
:1046F0002C4800F0DEFD0120009000208DF8040021
:1047000000208DF8060003208DF8050001208DF8AB
:10471000070000A9234800F069FD0220009000A9CD
:10472000204800F063FD4020009000A91D4800F0E3
:104730005DFD07B000BD10B504001C484FF480516A
:1047400001600221184801F075F900280AD11748C4
:104750000068411E154A11600028F2D1FFF770FE73
:10476000C0B21CE02100C9B20F4801F058F90F484F
:104770004FF48051016001210B4801F05BF90028E2
:104780000AD10A480068411E084A11600028F2D187
:10479000FFF756FEC0B202E0034801F045F910BD34
:1047A00000000000001000480030014050010020CF
:1047B00010B582B0040000208DF8010000208DF8B3
:1047C000000000F0D4F99DF80100217862781143CF
:1047D000A278114308438DF801009DF8000021796B
:1047E00062791143A2791143E278114308438DF8AD
:1047F00000000DF101022021322000F075F800AA1E
:104800002321322000F070F813BD10B582B00400EF
:10481000012300AA2121322000F002F99DF80000B6
:1048200010F00C008DF800009DF8000021786278EF
:104830001143A2781143E278114308438DF8000038
:1048400000AA2121322000F04FF813BD10B582B02C
:104850000400012300AA2121322000F0E1F89DF894
:10486000000010F0F7008DF800009DF800002043D4
:104870008DF8000000AA2121322000F035F813BD88
:1048800010B582B0040000208DF8020000208DF8E1
:10489000010000208DF8000000F069F99DF8020089
:1048A00021786278114308438DF802009DF80100D9
:1048B000E17808438DF801009DF80000A1780843D5
:1048C0008DF800000DF1020200213C2000F00CF8F0
:1048D0000DF1010201213C2000F006F800AA02219E
:1048E0003C2000F001F813BD70B582B004000D004B
:1048F0001600DFF8A0034FF4204101604FF400419F
:10490000DFF8940301F002F900280CD0DFF88403EB
:104910000068411EDFF87C2311600028EED1FFF70C
:104920008DFD80B27BE04FF4005000905FF080730B
:104930000122E4B2210089B2DFF85C0301F0C6F87D
:10494000DFF850034FF4204101600221DFF84803F3
:1049500001F0DCF800280AD1CE480068411ECD4A9B
:1049600011600028F1D1FFF769FD80B257E02900FE
:10497000C9B2C94801F0C4F8C6484FF420410160EB
:104980008021C54801F0C2F800280AD1C14800685A
:10499000411EC04A11600028F2D1FFF74FFD80B2DE
:1049A0003DE0002000905FF000730122E4B221009E
:1049B00089B2B94801F08AF8B6484FF42041016045
:1049C0000221B54801F0A2F800280AD1B1480068D8
:1049D000411EB04A11600028F2D1FFF72FFD80B2CE
:1049E0001DE03178AC4801F08BF8AA484FF4204123
:1049F00001602021A84801F089F800280AD1A548C3
:104A00000068411EA34A11600028F2D1FFF716FD8D
:104A100080B204E02021A04801F089F8002076BD92
:104A20002DE9F04182B00400884615001E002700E1
:104A30007F1C7F1E97484FF4204101604FF40041D6
:104A4000954801F063F800280AD092480068411E9A
:104A5000904A11600028F1D1FFF7F0FC80B284E0A9
:104A60004FF40050009000230122E4B2210089B2EB
:104A7000894801F02BF887484FF42041016002215A
:104A8000854801F043F800280AD182480068411E99
:104A9000804A11600028F2D1FFF7D0FC80B264E0B8
:104AA000B6B2022E01D358F080084146C9B27A4806
:104AB00001F026F877484FF4204101604021764804
:104AC00001F024F800280AD172480068411E714A9A
:104AD00011600028F2D1FFF7B1FC80B245E04FF43D
:104AE000105000905FF000733200D2B2E4B22100A7
:104AF00089B2694800F0EAFFB6B2002E1BD06548C3
:104B00004FF4204101600421634800F0FFFF0028BA
:104B10000AD160480068411E5E4A11600028F2D147
:104B2000FFF78CFC80B220E05B4800F0ECFF2870BF
:104B30006D1C761EE0E757484FF4204101602021AC
:104B4000554800F0E3FF00280AD152480068411E92
:104B5000504A11600028F2D1FFF770FC80B204E0E7
:104B600020214D4800F0E3FF0020BDE8F68100B5AC
:104B70008BB001215FF4001000F043FE01215FF4CF
:104B8000802000F020FE01215FF4001000F01BFEE9
:104B900001215FF4001000F016FE01215FF4001007
:104BA00000F011FE042206213C4800F087FB04229D
:104BB00007213A4800F082FB02208DF80400002013
:104BC0008DF8060002208DF8070003208DF80500FF
:104BD0004020009000A9314800F008FB80200090A0
:104BE00000A92E4800F002FB00208DF804000020F0
:104BF0008DF8060000208DF8070003208DF80500D1
:104C00000420009000A9264800F0F0FA02210420B8
:104C100000F090FF0220029000208DF80C00082088
:104C20008DF80D0001208DF80E0002A800F0ACFFF9
:104C3000002007900020059000200690002008909A
:104C40000020099000200A901648049004A91248F8
:104C500000F0FCFE0121104800F02BFF1020009016
:104C600000208DF8040000208DF8060003208DF848
:104C7000050001208DF8070000A9094800F0B6FAE8
:104C80002020009000A9064800F0B0FA0BB000BD4B
:104C900000000000540100200054004000040048BF
:104CA00000100048121048001CB504000121E4B2B5
:104CB0004F4850F8240000F086FDE4B24D4830F82B
:104CC0001400009001208DF8040000208DF80600EB
:104CD00001208DF8070003208DF8050000A9E4B23B
:104CE000454850F8240000F081FA13BDC0B2424993
:104CF00051F82010C0B23F4A32F810208A61704744
:104D0000C0B23D4951F82010C0B23A4A32F81020E2
:104D10000A857047C0B2384951F82010898AC0B25C
:104D2000344A32F810205140C0B2334A52F82020A1
:104D30009182704730B585B004000D000121E4B2C6
:104D40002E4850F8240000F03EFD0121012000F023
:104D500049FD00208DF8100000208DF81300E4B20A
:104D6000274830F81400039003A9E4B2254850F80E
:104D7000240000F03BFAEDB2012D29D1E4B2224823
:104D8000215CE4B22148205C00F0D4FEE4B220486B
:104D900030F81400019000208DF8080008208DF8EC
:104DA000090001208DF80A0001A800F0EDFEE4B230
:104DB0001848205C8DF800000F208DF801000F20AE
:104DC0008DF8020001208DF8030000A800F0B3FF69
:104DD00005B030BD10B50400E4B2094830F8141035
:104DE000E4B2084850F8240000F054FA10BD000066
:104DF000F0740008A875000854000020D47500085D
:104E0000322000084C010020832000088220000886
:104E10004A200008CA21000801B400980A2148432A
:104E20003E4908603D4800680028FBD101B070474A
:104E30003A480068002804D038480068401E3749C6
:104E40000860704736480068401C3549086035489E
:104E50000068401C3349086033480068401C3249F0
:104E6000086032480068401C3049086030480068DB
:104E7000401C2F4908602F480068401C2D490860DD
:104E80002D480068401C2C490860704770B504002C
:104E90000D0016002068A84202D300202060B04711
:104EA00070BD10B5040022000A211D48FFF7EEFF77
:104EB00010BD10B50400220064211A48FFF7E6FF78
:104EC00010BD10B504002200C8211748FFF7DEFF0F
:104ED00010BD10B5040022004FF4FA711348FFF71B
:104EE000D5FF10BD10B5040022004FF47A711048B0
:104EF000FFF7CCFF10BD10B50400220042F2107184
:104F00000C48FFF7C3FF10BD10B5040022004CF29F
:104F100050310948FFF7BAFF10BD0000900A002089
:104F2000740A0020780A00207C0A0020800A0020F1
:104F3000840A0020880A00208C0A002038B50FB4AB
:104F400082B040F2FF759DED040B8DED000BDDE9A5
:104F50000001C3F30A51A9420BD011B14FF0FF3445
:104F60000DE0190350EA11300CBF00246FF001046A
:104F700005E0190350EA113014BF022401249DED0D
:104F8000020B8DED000BDDE90001DDE90023C3F329
:104F90000A51A94215D069B14FF0FF30012C18DA3F
:104FA000002B1CD5DDE9020181F00041CDE90201B1
:104FB000082515E0190350EA1130EFD06FF0010019
:104FC000ECE7190350EA113018BFDDE9020147D1BF
:104FD0000120022C29D1DDE9040107B030BD0025F4
:104FE0000598002807D5DDE9040181F00041CDE9ED
:104FF000040185F00605DDE90401DDE90223FDF782
:1050000041F904D2FDF7CEFB41EC100B1EE0002C61
:1050100008D5DDE90201DDE90423FDF7C3FB41EC1E
:10502000100B15E09FED0F0B12E084420CBF9FEDBB
:105030000F0B9FED0C0B002B4CBF0825002505998D
:10504000002948BF85F00605012801D185F0020539
:105050002A4607B0BDE8304051EC100B00F0CCBE42
:1050600007B030BD0000000000000000000000009C
:105070000000F03F80B553EC112B51EC100BFFF703
:105080005DFF41EC100B01BDD0B52DED048B82B05E
:1050900041EC180B8DED008BDDE90023C3F30A51C1
:1050A00040F2FF74A14213D0002904BF190350EA53
:1050B000113011D051EC180B00220023FDF7E2F85B
:1050C0003DBF81F0004141EC180B0824002407E0AB
:1050D000190350EA1130EDD002B051EC180B60E02A
:1050E00051EC180B274A284BFDF7CCF81CD29FED4A
:1050F000239B51EC190B53EC182BFDF7C1F9064615
:105100000F4653EC182B51EC190BFDF777FC324688
:105110003B46FDF775FAFCF747F841EC100B51ECF4
:10512000180B53EC102B1EE00122184BFDF7AAF8C8
:105130002ED29FED129B51EC190B53EC182BFDF75F
:105140009FF906460F4653EC182B51EC190BFDF74F
:1051500055FC32463B46FDF753FAFCF725F884F040
:10516000020453EC182BFDF71DFB02B02246BDECE8
:10517000048BBDE8D04000F03FBE00BF000000003F
:105180000000F03FCE3B7F669EA0E63F0000F03F70
:10519000FCF7D0F8212102B001604FF0FF306FF032
:1051A0000041BDEC048BD0BD80B551EC100BFFF776
:1051B0006BFF41EC100B01BD00B500BF130096461C
:1051C0009446103928BFA0E80C50FAD85FEA417C19
:1051D00028BF0CC048BF40F8042BC90728BF20F8DF
:1051E000022B48BF00F8012B00BD0000F0B40024E2
:1051F0000022002300252C00102C49D20125A540B7
:105200002A000D6815402B0093423FD10D79012DE6
:1052100002D00D79022D19D1856803262700FFB22F
:105220007F00BE40B543856085684E792700FFB298
:105230007F00BE403543856085880126A640B54382
:10524000858085888E79A64035438580056803264C
:105250002700FFB27F00BE40B543056005680E79A8
:105260002700FFB27F00BE4035430560C5680326B6
:105270002700FFB27F00BE40B543C560C568CE7948
:105280002700FFB27F00BE403543C560641CB3E712
:10529000F0BC704702000020138A89B20B409BB219
:1052A000002B02D00123180001E000231800C0B237
:1052B000704789B28161704701857047F0B400235F
:1052C0000024D2B211F00705EDB2AD0012FA05F5D7
:1052D0002B0089B2CD1010EB850589B2CE1010EBF2
:1052E0008606366A0F2711F0070C5FFA8CFC5FEA1E
:1052F0008C0C17FA0CF7BE432E6289B2CD1010EB5E
:1053000085052D6A1D432C0089B2CD1010EB850553
:105310002C62F0BC70470000DFF8AC1500220A7068
:10532000DFF8A4150870704738B5002000900024FD
:105330000025112000F092FA05000098401C009012
:105340000098B0F5A06F02D0EDB2002DF1D0112081
:1053500000F084FA002802D00120040001E00020BF
:1053600004002000C0B232BDDFF86415C0B208608E
:1053700070470021DFF84425126811008908890070
:105380000143DFF8382511607047DFF83005006809
:1053900010F00C007047F0B500210022002300241B
:1053A0000025002600275FF0000CDFF810E5DEF88E
:1053B00000E01EF00C0E71468E46BEF1000F06D0C6
:1053C000BEF1040F08D0BEF1080F0AD033E0DFF8B9
:1053D00004E5C0F800E032E0DFF8F8E4C0F800E0EF
:1053E0002DE0DFF8D8E4DEF800E01EF4701E72460F
:1053F000DFF8C8E4DEF800E01EF4803E7346920C4D
:10540000921C002B05D1DFF8D0E40EFB02FE76469D
:105410000FE0DFF8ACE4DEF800E01EF00F0E1EF146
:10542000010E7446DFF8ACE4BEFBF4FE02FB0EFE98
:105430007646066003E0DFF89CE4C0F800E0DFF8A1
:105440007CE4DEF800E01EF0F00E71460909DFF89A
:105450008CE411F80EE0F446D0F800E03EFA0CFEC1
:10546000C0F804E0DFF854E4DEF800E01EF4E06E7B
:105470007146090ADFF864E411F80EE07546D0F8C9
:1054800004E03EFA05FEC0F808E0DFF830E4DEF89C
:1054900000E01EF4605E7146C90ADFF840E411F8CE
:1054A0000EE07746D0F804E03EFA07FEC0F80CE0C4
:1054B000DFF80CE4DEF800E01EF4F87E714609091E
:1054C000DFF81CE43EF811E075465FEAC56E04D5CE
:1054D000B6FBF5FEC0F810E003E0D0F800E0C0F83D
:1054E00010E0DFF8DCE3DEF800E01EF4785E7146E1
:1054F000490ADFF8ECE33EF811E075465FEAC56E55
:1055000004D5B6FBF5FEC0F814E003E0D0F800E0E7
:10551000C0F814E0DFF8ACE3DEF800E05FEACE6E3E
:1055200004D4DFF8B0E3C0F818E003E0D0F800E0FE
:10553000C0F818E0DFF88CE3DEF800E05FEA8E6E7A
:1055400004D4DFF890E3C0F81CE003E0D0F800E0FA
:10555000C0F81CE0DFF86CE3DEF800E05FEACE5E46
:105560000AD5D0F800E0B64506D1674504D15FEA18
:10557000460EC0F820E003E0D0F80CE0C0F820E0D0
:10558000DFF840E3DEF800E05FEA8E5E0AD5D0F88F
:1055900000E0B64506D1674504D15FEA460EC0F883
:1055A00024E003E0D0F80CE0C0F824E0DFF814E3D6
:1055B000DEF800E01EF0030F04D1D0F80CE0C0F8D4
:1055C00028E028E0DFF8FCE2DEF800E01EF0030E41
:1055D000BEF1010F04D1D0F800E0C0F828E01AE0D5
:1055E000DFF8E0E2DEF800E01EF0030EBEF1020F8D
:1055F00004D14FF4004EC0F828E00CE0DFF8C4E21C
:10560000DEF800E01EF0030EBEF1030F03D1DFF859
:10561000C4E2C0F828E0DFF8ACE2DEF800E01EF4F7
:10562000403F04D1D0F808E0C0F82CE028E0DFF8D3
:1056300094E2DEF800E01EF4403EBEF5803F04D167
:10564000D0F800E0C0F82CE01AE0DFF878E2DEF8ED
:1056500000E01EF4403EBEF5003F04D14FF4004E82
:10566000C0F82CE00CE0DFF85CE2DEF800E01EF4AD
:10567000403EBEF5403F03D1DFF858E2C0F82CE0D1
:10568000DFF840E2DEF800E01EF4402F04D1D0F84D
:1056900008E0C0F830E028E0DFF828E2DEF800E0BB
:1056A0001EF4402EBEF5802F04D1D0F800E0C0F8E3
:1056B00030E01AE0DFF80CE2DEF800E01EF4402EE5
:1056C000BEF5002F04D14FF4004EC0F830E00CE0DE
:1056D000DFF8F0E1DEF800E01EF4402EBEF5402FCA
:1056E00003D1DFF8F0E1C0F830E0DFF8D8E1DEF810
:1056F00000E01EF4401F04D1D0F808E0C0F834E008
:1057000028E0DFF8C0E1DEF800E01EF4401EBEF540
:10571000801F04D1D0F800E0C0F834E01AE0DFF8D0
:10572000A4E1DEF800E01EF4401EBEF5001F04D127
:105730004FF4004EC0F834E00CE0DFF888E1DEF80A
:1057400000E01EF4401EBEF5401F03D1DFF884E1E7
:10575000C0F834E0DFF86CE1DEF800E01EF4400F42
:1057600004D1D0F808E0C0F838E028E0DFF854E1D0
:10577000DEF800E01EF4400EBEF5800F04D1D0F834
:1057800000E0C0F838E01AE0DFF838E1DEF800E0C9
:105790001EF4400EBEF5000F04D14FF4004EC0F8C9
:1057A00038E00CE0DFF81CE1DEF800E01EF4400E0B
:1057B000BEF5400F03D1DFF81CE1C0F838E0F0BDC2
:1057C000484908607047C9B2002905D0464A1268A6
:1057D0000243454B1A6004E0434A12688243424B3D
:1057E0001A607047C9B2002905D0404A12680243C6
:1057F0003E4B1A6004E03D4A126882433B4B1A60FC
:105800007047C9B2002905D0394A12680243384BA3
:105810001A6004E0364A12688243354B1A607047BA
:10582000C9B2002905D0334A12680243314B1A60CD
:1058300004E0304A126882432E4B1A607047C9B2A6
:10584000002905D02C4A126802432B4B1A6004E051
:10585000294A12688243284B1A60704710B401002D
:10586000002200230020C9B24C09E4B22200002A21
:1058700003D1114C246823000EE0012A03D1134CFC
:105880002468230008E0042A03D10C4C2468230078
:1058900002E01A4C24682300C9B211F01F04220050
:1058A00001249440234202D00124200001E000247E
:1058B0002000C0B210BC704700100240041002402B
:1058C0002C10024030100240021002402010024012
:1058D0006000424200127A0000093D0014010020DD
:1058E00094000020D80042421410024018100240D8
:1058F0001C1002400C100240101002402410024004
:1059000010B50400144884420AD101214FF480509C
:10591000FFF786FF00214FF48050FFF781FF1AE068
:105920000E4884420AD101214FF48040FFF787FFDF
:1059300000214FF48040FFF782FF0CE008488442CA
:1059400009D101214FF40040FFF779FF00214FF406
:105950000040FFF774FF10BD0030014000380040E8
:10596000003C004070B400224B88B3F5827F1BD10D
:1059700003881A0012F441520B884C882343CC88C8
:105980000D892C434D898E893543CE8935432C436F
:1059900023431A43028083881A004FF2FF031A4000
:1059A0008B881A4382801AE083881A004FF2FF0323
:1059B0001A408B881A43828003881A0012F44152DD
:1059C0000B884C882343CC880D892C434D898E89C4
:1059D0003543CE8935432C4323431A430280838BBE
:1059E0004FF2FF74234083830B8A038270BC70479D
:1059F000C9B2002904D0028852F04002028004E0BB
:105A000002884FF6BF731A400280704782884EF6B4
:105A1000FF731A40828082880A4382807047002286
:105A200002000C32117070470100002008000C3099
:105A3000007870470200002013890B4202D0012336
:105A4000180001E000231800C0B2704710B4002213
:105A500003685B085B00036003681A00254B1A406B
:105A60004B688C6853EA04231A4302600B6833F0D6
:105A700070630361036853F00103036000231A009D
:105A80008260C2608B690C6923431A00826083685C
:105A900053F400438360CB681A0003681343036028
:105AA00043681A00144B1A404B691A43426010BCF9
:105AB0007047C9B2002904D0026852F001020260A6
:105AC00003E00268520852000260704770B4039C01
:105AD000002546683500094E354089B28E05B60D61
