:020000040800F2
:1000000088050020AD530008AD510008AF5100082D
:10001000B1510008B3510008B551000800000000BC
:10002000000000000000000000000000B7510008C0
:10003000B951000800000000BB510008BD51000884
:10004000F1530008F5530008F9530008FD53000868
:100050000154000805540008D35100084B52000811
:100060001154000815540008195400081D540008C4
:100070002154000825540008295400082D54000874
:100080003154000899520008395400083D540008C2
:10009000B752000845540008495400084D54000860
:1000A0005154000855540008595400085D54000884
:1000B0006154000865540008695400086D54000834
:1000C0007154000875540008795400087D540008E4
:1000D0008154000885540008895400088D54000894
:1000E0009154000895540008B95200089D54000826
:1000F000A1540008A5540008A9540008AD540008F4
:10010000000000000000000000000000B1540008E2
:10011000B5540008B9540008BD540008C154000883
:10012000C5540008C9540008CD540008D154000833
:10013000D5540008D9540008000000000000000059
:10014000DD540008E1540008E554000800000000F8
:10015000000000000000000000000000000000009F
:100160000000000000000000E9540008ED54000801
:10017000F154000800000000000000000000000032
:1001800000000000F554000800B52DED108B2DED9A
:10019000030A9AB0F0EE619AB0EE42AAF0EE62CA9B
:1001A000B0EE438AF0EE638AB0EE449AB5EE408A30
:1001B000F1EE10FA19D1F5EE408AF1EE10FA14D1F1
:1001C000B5EE409AF1EE10FA0FD1F0EE6C2AB0EED7
:1001D0004A2AF0EE691A9DED1C1ADDED1B0A9DED11
:1001E0001A0A00F041FD00F038BDDFF8D80E90ED9E
:1001F000000AB1EE400ADDED1A0A20EE200ADFF80F
:10020000C80ED0ED000A9DED1B1A00EEC10ADFF802
:10021000F00ED0ED000A9DED1C1A00EEC10AF6EEBC
:10022000000A20EE200A8DED0E0ADFF8D80E90EDC0
:10023000000ADDED1A0A20EE200ADFF88C0ED0ED60
:10024000000A9DED1C1A00EE810ADFF8B40ED0ED15
:10025000000A9DED1B1A00EEC10AF6EE000A20EE20
:10026000200A8DED0D0ADFF89C0E90ED000ADDED01
:100270001B0A20EE200ADFF84C0ED0ED000A9DED9F
:100280001C1A00EEC10ADFF8780ED0ED000A9DEDD1
:100290001A1A00EE810AF6EE000A20EE200A8DED11
:1002A0000C0ADFF8600E90ED000ADDED1C0A20EE6E
:1002B000200ADFF8100ED0ED000A9DED1B1A00EEAB
:1002C000810ADFF8040ED0ED000A9DED1A1A00EE47
:1002D000C10AF6EE000A20EE200A8DED0B0AF5EEBB
:1002E000409AF1EE10FA0AD1B5EE40AAF1EE10FAFA
:1002F00005D1F5EE40CAF1EE10FA00F0228429EEA5
:10030000A90A0AEE0A0A0CEEAC0A00F0DFFEF0EED3
:1003100040AA69EEAA9A2AEE2AAA6CEEAACA28EE88
:10032000080A08EEA80A09EE090A00F0CFFEF0EE6E
:1003300040AA28EE2A8A68EEAA8A29EE2A9ADFF8CD
:10034000C40D90ED000AF0EE000A20EE200A20EE27
:10035000080A8DED160ADFF8AC0D90ED000AF0EEFC
:10036000000A20EE200A20EE280A8DED150ADFF89B
:10037000940D90ED000AF0EE000A20EE200A20EE27
:10038000090A8DED140ADFF83C0D90ED000AF0EE3D
:10039000000A20EE200A20EE080A8DED130ADFF88D
:1003A000640D90ED000AF0EE000A20EE200A8DEDBB
:1003B000100ADFF8100D90ED000AF0EE000A20EEB2
:1003C000200A8DED090ADFF8000D90ED000AF0EE2D
:1003D000000A20EE200A8DED080ADFF8240D90EDCA
:1003E000000AF0EE000A20EE200A8DED0F0ADFF879
:1003F000140D90ED000AF0EE000A20EE200ADFF85E
:10040000C80CD0ED000A20EE200A8DED070ADFF8B7
:10041000B80C90ED000AF0EE000A20EE200ADFF89A
:10042000E00CD0ED000A20EE200A8DED060ADFF880
:10043000D40C90ED000ADFF8CC0CD0ED000A20EED1
:10044000200A8DED0A0ADFF8BC0C90ED000ADFF8F7
:10045000740CD0ED000A20EE200A8DED010ADFF8C1
:10046000A40C90ED000ADFF8600CD0ED000A20EE3D
:10047000200A8DED000ADFF88C0C90ED000ADFF801
:10048000800CD0ED000A20EE200A8DED050ADFF881
:10049000340C90ED000ADFF82C0CD0ED000A20EEB1
:1004A000200AF0EE40FADFF81C0C90ED000ADFF8AD
:1004B000180CD0ED000A20EE200A8DED040ADFF8BA
:1004C000040C90ED000ADFF8380CD0ED000A20EEA5
:1004D000200AB0EE40DADFF8F00B90ED000ADFF80A
:1004E000E80BD0ED000A20EE200AB0EE40CADFF89B
:1004F000D80B90ED000ADFF8080CD0ED000A20EED2
:10050000200A8DED030ADFF8F80B90ED000ADFF802
:10051000F00BD0ED000A20EE200A8DED020A9DEDD1
:100520000A0A28EE000ADDED150ADFF8D40B90ED7B
:10053000001A00EEC10ADDED140ADFF88C0B90ED15
:10054000001A00EE810A08EE2F0ADDED090A60EEBE
:10055000A80ADFF8740B90ED001A00EE810ADDEDB9
:10056000090A60EE890ADFF8980B90ED001A00EE98
:10057000810A08EE4C0ADDED020A08EE600A8DEDF4
:10058000180A9DED160ADFF8780BD0ED000A20EE70
:10059000200ADDED0A0A08EEA00ADDED140ADFF8F4
:1005A000240B90ED001A00EEC10ADDED130ADFF80E
:1005B000180B90ED001A00EE810A08EEEF0A08EE23
:1005C0008C0ADDED080A60EE890ADFF8340B90ED45
:1005D000001A00EE810ADDED020A08EEE00A8DED58
:1005E000170A9DED180ADDED180A20EE200ADDED50
:1005F000170A9DED171A00EE810A10EE100A00F09E
:100600008DFD41EC100B00F0C7FD51EC100B00F01C
:1006100043FE0BEE100A9DED160AB1EE400ADFF81C
:10062000A80AD0ED000A20EE200ADDED150ADFF859
:10063000940A90ED001A00EE810ADDED0A0A09EE37
:10064000200ADDED130ADFF8B80A90ED001A00EE7B
:10065000810A09EE6F0ADDED080A60EEA80ADFF8EC
:10066000A00A90ED001A00EE810A09EE4C0ADDEDB9
:10067000020A09EE200AF0EE40BAB0EE000A2BEEB4
:10068000000A8DED120AB0EE000A2BEE800A8DED05
:10069000110AB0EE000A2DEE000ADDED070A30EE79
:1006A000600A30EE690ADDED080AF1EE600A20EE1C
:1006B000800ADDED010AB0EE001ADDED061A40EE0B
:1006C000811A71EECA0A9DED091A00EE810ADFF85F
:1006D000F809D0ED000A6BEEA00AB6EE001A31EE72
:1006E0004C1ADDED021A31EE611A21EE0B1ADDED26
:1006F000001A7DEE611A01EEAB1A38EE411A00EED7
:10070000810AF1EE4B0ADFF8F80990ED001A60EE6D
:10071000810ADFF8B00990ED001A4BEE810A9DEDD9
:10072000041ADDED051A31EE611A21EE0B1ADDED2A
:10073000011A9DED032A71EE821A01EEAB1A31EE19
:10074000681A00EE810ADFF88009D0ED000A6BEE2E
:10075000200A9DED001A31EE0D1A21EE0B1AF6EE6D
:10076000001A71EEEF1A71EECC1A01EEAB1A31EEEF
:10077000491A00EE810AB0EE40FAB0EE000A2DEE02
:10078000000ADDED070A30EE600A30EE690ADDEDA1
:100790000F0A20EE200ADDED010AB0EE001ADDEDB1
:1007A000061A40EE811A71EECA0A9DED101A00EE8B
:1007B000810ADFF81009D0ED000AB1EE001A60EEF0
:1007C000810AB0EE001A2CEE011AF0EE001AB7EE14
:1007D000002A0FEEE12A31EE421A3CEE811A00EEB9
:1007E000810ADFF81C09D0ED000A6BEEA00AB6EE14
:1007F000001A31EE4C1ADDED021A31EE611A21EECB
:100800000B1ADDED001A7DEE611A01EEAB1A31EE26
:10081000481A00EE810ADFF8B008D0ED000A6BEE4E
:10082000200ADFF8E00890ED001A4BEE810A9DEDFA
:10083000041ADDED051A31EE611A21EE0B1ADDED19
:10084000011A9DED032A71EE821A01EEAB1A31EE08
:10085000681A00EE810ADFF8A808D0ED000A6BEEF6
:10086000200A9DED111ADFF85C08D0ED001A41EE68
:10087000610A9DED001A31EE0D1A21EE0B1AF6EE0B
:10088000001A71EEEF1A71EECC1A01EEAB1A31EECE
:10089000491A00EE810AF0EE40EAB0EE000A2DEEB1
:1008A000000ADDED070A30EE600A30EE690ADDED80
:1008B000100AF1EE600A20EE800ADDED010AB0EECA
:1008C000001ADDED061A40EE811A71EECA0A9DED9E
:1008D0000F1A00EE810ADFF8F007D0ED000AB1EE42
:1008E000001A60EE810AB0EE001A2CEE011AF0EE4A
:1008F000001AB7EE002A0FEEE12A31EE421A3CEE62
:10090000811A00EE810ADDED120AF1EE600ADFF8CD
:10091000B80790ED001A60EE810ADFF8E80790ED65
:10092000001A4BEEC10AB6EE001A31EE4C1ADDED9C
:10093000021A31EE611A21EE0B1ADDED001A7DEE7E
:10094000611A01EEAB1A31EE481A00EE810ADFF8A7
:100950007407D0ED000A6BEE200ADFF8A40790EDD3
:10096000001A4BEE810A9DED041ADDED051A31EEF9
:10097000611A21EE0B1ADDED011A9DED032A71EECD
:10098000821A01EEAB1A31EE681A00EE810ADFF826
:100990007407D0ED000A6BEE200A9DED111ADFF806
:1009A0002807D0ED001A41EE610A9DED001A31EEE4
:1009B0000D1A21EE0B1AF6EE001A71EEEF1A71EE17
:1009C000CC1A01EEAB1A31EE491A00EE810AB0EEF4
:1009D00040EAB0EE000A2DEE000ADDED070A30EE27
:1009E000600A30EE690ADDED090A20EE200ADDED2D
:1009F000010AB0EE001ADDED061A40EE811A71EE22
:100A0000CA0A9DED081A00EE810ADDED120AF1EE28
:100A1000600ADFF8EC0690ED001A60EE810ADFF85C
:100A2000A40690ED001A4BEE810AB6EE001A31EEE4
:100A30004C1ADDED021A31EE611A21EE0B1ADDEDD2
:100A4000001A7DEE611A01EEAB1A31EE481A00EE83
:100A5000810AF1EE4B0ADFF8AC0690ED001A60EE69
:100A6000810ADFF8640690ED001A4BEE810A9DEDD5
:100A7000041ADDED051A31EE611A21EE0B1ADDEDD7
:100A8000011A9DED032A71EE821A01EEAB1A31EEC6
:100A9000681A00EE810ADFF82C06D0ED000A6BEE32
:100AA000200A9DED001A31EE0D1A21EE0B1AF6EE1A
:100AB000001A71EEEF1A71EECC1A01EEAB1A31EE9C
:100AC000491A00EE810AF0EE40DA2FEE0F0A0EEE20
:100AD000AE0A0EEE0E0A0DEEAD0A00F0F7FAF0EED9
:100AE00040AA2FEE2AFA6EEEAAEA2EEE2AEA6DEE60
:100AF000AADADFF8200690ED000ADDED0E0A40EEDE
:100B00004F0ACDED0E0ADFF80C0690ED000ADDED80
:100B10000D0A40EE6E0ACDED0D0ADFF8F80590EDF6
:100B2000000ADDED0C0A40EE4E0ACDED0C0ADFF8AE
:100B3000E40590ED000ADDED0B0A40EE6D0ACDED07
:100B40000B0A9DED0E0ADFED470ADFF8B80590EDC0
:100B5000001A00EE201ADFF8AC0580ED001A9DEDBA
:100B60000D0ADFED400ADFF85C0590ED001A00EE9B
:100B7000201ADFF8500580ED001A9DED0C0ADFED1C
:100B8000390ADFF8440590ED001A00EE201ADFF86C
:100B9000380580ED001A9DED0B0ADFED320ADFF813
:100BA000600590ED001A00EE201ADFF8540580ED84
:100BB000001ADFF8500590ED000ADFF84805D0ED87
:100BC000000A20EE200ADFF8FC04D0ED000ADFF86E
:100BD000F40490ED001A00EE810ADFF8EC04D0ED89
:100BE000000ADFF8E40490ED001A00EE810ADFF855
:100BF0001005D0ED000ADFF8080590ED001A00EEB0
:100C0000810A00F063FAF0EE40AADFF8F80490EDF4
:100C1000000A20EE2A0ADFF8EC0480ED000ADFF873
:100C2000A40490ED000A20EE2A0ADFF8980480ED73
:100C3000000ADFF8940490ED000A20EE2A0ADFF89B
:100C4000880480ED000ADFF8B80490ED000A20EE79
:100C50002A0ADFF8AC0480ED000A1DB0BDEC108B51
:100C600000BD000092762C3B00B52DED108B6DED94
:100C7000010A8CB0F0EE409AF0EE41FAB0EE618AD3
:100C8000F0EE428AB0EE629ADFF8380490ED000A86
:100C9000B1EE400A20EE290ADFF82C04D0ED000A5C
:100CA0009DED0C1A00EEC10ADFF85404D0ED000AE5
:100CB00000EEEF0AF6EE000A20EE200AF0EE40CA3F
:100CC000DFF8400490ED000A20EE290ADFF8F8036F
:100CD000D0ED000A00EEAF0ADFF82404D0ED000AE0
:100CE0009DED0C1A00EEC10AF6EE000A20EE200A75
:100CF000B0EE40DADFF80C0490ED000ADDED0C0AEE
:100D000020EE200ADFF8BC03D0ED000A00EEEF0A67
:100D1000DFF8EC03D0ED000A00EEA90AF6EE000AB7
:100D200020EE200AF0EE40DADFF8D80390ED000A5A
:100D300020EE2F0ADFF88C03D0ED000A9DED0C1A8F
:100D400000EE810AE048D0ED000A00EEE90AF6EE76
:100D5000000A20EE200AB0EE40EAB5EE408AF1EE3D
:100D600010FA0AD1F5EE408AF1EE10FA05D1B5EE8F
:100D7000409AF1EE10FA00F0358128EE080A08EEEC
:100D8000A80A09EE090A00F0A1F9B0EE40AA28EE7F
:100D90000A8A68EE8A8A29EE0A9ADA4890ED000AF1
:100DA000F0EE000A20EE200A8DED0A0AC54890ED0B
:100DB000000AF0EE000A20EE200A8DED090AC24872
:100DC00090ED000AF0EE000A20EE200A8DED080AF0
:100DD000CB4890ED000AF0EE000A20EE200A8DEDDF
:100DE000070AC84890ED000AF1EE000A20EE200A3A
:100DF0008DED060AB34890ED000AF1EE000A20EEF0
:100E0000200A8DED010AB04890ED000AF1EE000ACB
:100E100020EE200A8DED000AAA4890ED000AF2EEBD
:100E2000000A20EE200A8DED050AA74890ED000A81
:100E3000F2EE000A20EE200A8DED040AB14890ED92
:100E4000000AB048D0ED000A20EE200A8DED030A1A
:100E50009C4890ED000A9B48D0ED000A20EE200A45
:100E6000F0EE40EA984890ED000A9748D0ED000A6D
:100E700020EE200AB0EE40FAA14890ED000AA0480A
:100E8000D0ED000A20EE200A8DED020A9DED060A43
:100E900020EE0F0ADDED080A00EE880ADDED060AF5
:100EA00000EEAE0ADDED090A00EEE80AF0EE40AA17
:100EB0009DED010ADDED020A20EE200ADDED070AB4
:100EC00000EEC80ADDED030AB1EE001A60EE810AF9
:100ED0007C4890ED001A00EE810ADDED0A0A00EE72
:100EE000E80ADDED010A30EE600ADDED050A00EEEC
:100EF000AE0ADDED050A00EE8F0ADDED010A00EE17
:100F0000890AB0EE40BA9DED030AF1EE000A20EE28
:100F1000200A6D48D0ED000A20EE200ADDED0A0A15
:100F200000EE880ADDED000A9DED021A00EE810A4E
:100F3000DDED070A00EEE80ADDED000A30EE600A9A
:100F4000DDED040A00EEAE0ADDED040A00EE8F0AC4
:100F5000DDED000A00EE890AF0EE40BAB1EE000ABB
:100F60002EEE800A6648D0ED000A20EE200ADDED64
:100F7000090A00EEC80AF1EE000A6FEE200A604886
:100F800090ED001A00EE810ADDED080A00EEE80A95
:100F9000B0EE40CA2AEEAA0A0BEE0B0A0BEEAB0A21
:100FA0000CEE0C0A00F092F8B0EE40AA6AEE8AAAA3
:100FB0002BEE0ABA6BEE8ABA2CEE0ACA554890EDAF
:100FC000000A40EE6ACA534890ED000A00EE4BDA80
:100FD000504890ED000A40EE6BDA4E4890ED000A62
:100FE00000EE4CEA9FED480A4648D0ED000A4CEE70
:100FF000800A4448C0ED000A9FED430A3148D0ED15
:10100000000A4DEE000A2F48C0ED000A9FED3E0A8F
:101010002D48D0ED000A4DEE800A2B48C0ED000AA5
:101020009FED390A3648D0ED000A4EEE000A3448EA
:10103000C0ED000A334890ED000A3248D0ED000AB6
:1010400020EE200A1F48D0ED000A1E4890ED001A3D
:1010500000EE810A1C48D0ED000A1B4890ED001AF2
:1010600000EE810A2648D0ED000A254890ED001ACE
:1010700000EE810A00F02AF8B0EE40AA214890ED77
:10108000000A20EE0A0A1F4880ED000A0D4890ED84
:10109000000A20EE0A0A0B4880ED000A0A4890ED8B
:1010A000000A20EE0A0A084880ED000A144890ED74
:1010B000000A20EE0A0A124880ED000A0DB0BDECCD
:1010C000108B00BD40010020440100202DED010ADD
:1010D00081B011480199B0EB51000090DDED000A9C
:1010E0009DED010A9FED091A20EE010A20EE200A6B
:1010F0009FED071A00EE601A21EE200A02B0704739
:10110000480100206000002092762C3B12D3363F2D
:10111000FF51D83F5C00002012141F5F5FF0FF0CEE
:101120001CEAD05114BF614506E0C110400721F010
:10113000E04101F16051704779B900F000410002CF
:101140000AD0B0FA80FC00FA0CF001F16051A1EB7A
:101150000C5101EBD0214005704741020CBF40F417
:10116000E0016FF000010020704710B450F8041B3C
:1011700081B102681218001D50F8043BDC0744BF1F
:10118000A9F10104E31852F8044B43F8044B091F7A
:10119000F9D1EBE710BC704751EC100B00B500F033
:1011A00003F841EC100B00BD40F2FF7C0B0D4DD05D
:1011B000634566D230B421EA035141F4801103F251
:1011C000FD3C5FEA5C0C01D300184941890041EA0B
:1011D000907180004FF440140023E202D50AB1F56B
:1011E000100107D46D081DD2091B6419001849416C
:1011F000491BF7D56D080AD20919641B001849412B
:10120000491BEFD56D08F7D301E0520817D0C0187D
:1012100061419B1AAC4100184941801AA941F4D49C
:1012200052080AD0C01AA1419B186C4100184941CC
:10123000801AA941E9D45208F4D15B1C6C416108C1
:101240004FEA330001EB0C5130BC704750EA010308
:10125000FBD030B4B1FA81F311B9B0FA80F41B19A4
:101260000B3BB3F120042FBF00FA04F19940C3F106
:10127000200420FA04F438BF21439840D3F101033D
:101280009DE76345E1D011F5801FDED850EA4101AA
:10129000DBD0D94300F048B84FEAF17CBCF1E04C18
:1012A0002CBFBCF5001F11E05FEA4C0C34BFBCF151
:1012B0007F5F2EE05FEA9C0C4FEA0C1C4FEA3C0C6F
:1012C000C10071F100414CEB50707047C90241EA16
:1012D0005051C00218BF41F0010141F000414FEAF6
:1012E0006C50C0F10900212810D240EACC7CCCF12E
:1012F000200C11FA0CF070F10040CCF1200C21FA16
:101300000CF00CF0004C40EB0C0070474FEACC7036
:101310007047490011F5001F04D84FEACC10FF3088
:10132000C0057047C81770471FB500F003F82121AA
:1013300001601FBD014800F003B8000074010020E7
:10134000704750F8041B61B150F8042BD30744BF19
:10135000A9F101039A18002342F8043B091FFAD1AE
:10136000EFE770472DE9F04FA1B0804617461D46C4
:10137000029102AE0020706211AC6FF000490AE0E9
:1013800017F8011B0298C0470290002800F06A82FB
:10139000706A401C7062387808B9706A64E2252867
:1013A000EED10020F06030617061B061F0613062B8
:1013B00001E040F0010017F8011F2029F9D023298E
:1013C0000DD02B2904D02D2906D030290AD00CE0CD
:1013D00040F0020080B2EEE740F00400FAE740F08F
:1013E0000800F7E740F01000F4E72A290DD129683A
:1013F0000A1D2A600968F162002904D54942F16298
:1014000040F0040080B27F1C12E00021F16209E08C
:10141000F16A494505D001EB810302EB4301303904
:10142000F1627F1C3A78A2F13001C9B20A29EFD3E8
:1014300039782E2903D04FF0FF31B1621DE017F843
:10144000011F2A2906D129680A1D2A600968B1628C
:101450007F1C12E00021B16209E0B16A494505D064
:1014600001EB810302EB43013039B1627F1C3A7812
:10147000A2F13001C9B20A29EFD3308639780FF6CC
:10148000983000F0DBFD08B117F8010B8DF83A0039
:101490009DF83A00682804D1387868280AD162207B
:1014A00005E06C2804BF38786C2803D171208DF8D2
:1014B0003A007F1C11A8B0603978B1F1250023D023
:1014C0001C3871D0001F02286ED9133800F09680A6
:1014D000093869D0801E00F02781401E00F0D180BD
:1014E000401E022860D9001F00F0CB80401F30D082
:1014F000401E00F08380401E20D0C01E09D0801EF8
:101500007CD0C01E7AD017E1F068411CF160252123
:101510001BE12868011D296000687060B26A002A1A
:1015200002D500F097FD07E0002100F0AFFD002894
:101530001ABF7168401AB06A306107E12868011D5E
:10154000296000680021CDE9000111A870607821B0
:10155000E6E09DF83A00622818D0682806D06A288C
:101560000BD06C2819D0712807D016E02868011D0F
:101570002960716A00680180E8E02A68101D28600F
:10158000706AC1171268C2E90001DFE02868011D16
:101590002960716A00680170D8E02868011D29601F
:1015A000716A00680160D1E02868C01D20F0070062
:1015B000286000F108022A60D0E90023CDE9002369
:1015C000002B04D5F068421CF2602D220DE0308E15
:1015D000820704D5F068421CF2602B2205E0C007A8
:1015E00004D5F068421CF26020220255F06811AA6E
:1015F0008018706000A800F0C5F9A7E09DF83A00D7
:101600006C2808BF2A6811D0712808BF2A6802D048
:101610006A282A680AD1D21D22F007022A6094465D
:101620000CF108022A60DCE9002303E0131D2B60A3
:1016300012680023CDE90023682808BF92B207D0C2
:10164000622808BFD2B203D0742818BF7A2802D10A
:101650000023CDE9002396F8300000075CD5DDE9D2
:101660000023002B08BF002A56D041F02000782824
:1016700052D1F06830220255401C421CF2600155E4
:101680004AE09DF83A0062280CD0682810D06A28F9
:101690001AD06C2823D0712816D074281FD07A282D
:1016A0000CD01CE02868021D2A6090F900201AE086
:1016B0002868021D2A60B0F9002014E02868021D85
:1016C0002A60026800230FE02868C01D20F0070090
:1016D000286000F108022A60D0E9002304E02868AD
:1016E000021D2A600268D317CDE90023002B04DA1B
:1016F000F068421CF2602D220DE0308E820704D586
:10170000F068421CF2602B2205E0C00704D5F068A7
:10171000421CF26020220255F06811AA8018706005
:1017200000A800F0A4F811E0F068411CF1602968FD
:101730000A1D2A60096808E0F068421CF260252250
:10174000025519B1F068421CF26001557F1CF06A25
:10175000F168401AB169401A3169401AF169401ABA
:101760007169401A316AA0EB010A96F8300040070F
:1017700011D420208DF84000BAF1010F0BDBD346C5
:10178000012310AA00A9404600F02FFC002869D1CF
:10179000BBF1010BF4D1F36811AA00A9404600F097
:1017A00024FC00285ED130208DF84000D6F818B017
:1017B000BBF1010F0ADB012310AA00A9404600F08B
:1017C00014FC00284ED1BBF1010BF4D133697268CF
:1017D00000A9404600F009FC002843D130208DF8D4
:1017E0004000D6F81CB0BBF1010F09DB012310AAA1
:1017F00000A9404600F0F9FBA0BBBBF1010BF5D1FD
:10180000736930697168421800A9404600F0EDFB29
:1018100040BB30208DF84000D6F820B0BBF1010F5E
:1018200009DB012310AA00A9404600F0DEFBC8B97D
:10183000BBF1010BF5D196F8300040077FF5ABAD59
:1018400020208DF84000BAF1010FFFF6A4AD01236E
:1018500010AA00A9404600F0C8FB18B9BAF1010A65
:10186000F5D198E54FF0FF3021B0BDE8F08F2DE9BC
:10187000FA4782B0064635696F2908BF082705D0A8
:1018800041F02000782814BF0A2710273C24D6E90D
:101890000001804689469DF80820642A18BF692AFD
:1018A00005D1002903DAD8F1000869EB4909B9F13B
:1018B000000F08BFB8F1000F0CD1306B50B9082FE2
:1018C0003BD196F83800000737D53B24302085F807
:1018D0003B0032E0A4F1010A5446FB17404649465A
:1018E0003A4600F0FFFBCDE90089B846A8FB00238B
:1018F000DDE90089A8EB02023032D2B23A2A03D3E2
:101900009DF80830513B9A180AF8052080465FEA96
:10191000010908BFB8F1000F03D0F06861198842CF
:10192000D8D3082F09D196F83800000705D5605D97
:10193000302802D0641E30206055C4F13C00B061F4
:101940006119F160316B884207DA081A3062308F12
:101950004FF6EF710840308710E000290ED596F859
:10196000381001F01401102908D1716B7269891ABD
:10197000326A891A081A0128A8BF306204B0BDE88B
:10198000F08700002DE9F24F8EB0044604AED4E992
:101990000001CDE902019DF8380040F020008DF8EB
:1019A000000061280BD0206B002848BF062005D41A
:1019B00004BF9DF80000672801D101202063616801
:1019C000C1F30A5040F2FF7398421ED1080304BFCE
:1019D000206800280AD10320A0619DF838006138F2
:1019E000C0B21A2838D30FF2446109E00320A06185
:1019F0009DF838006138C0B21A282AD30FF224614A
:101A00000322E06800F0E6FBB9E1012817DA20467E
:101A100000F01BFC012812DB002700209DF80010BD
:101A2000612920D1E168302201F8012B4A1CE260D3
:101A30009DF83820612A0CBF782258220FE040F22E
:101A4000FE31626861F31E526260471A4FF0FF3048
:101A5000E4E70FF2CC51D3E70FF2CC51D0E70A7094
:101A60006169891C616110B9002500277EE19DF83C
:101A70000000612840F09780206B00284CBF212592
:101A8000451C2DB26E1CD4E90089DDE9020100225B
:101A9000002300F0FBFB3ABF89F00040CDE9028053
:101AA000CDE902893F1F8DF810200DF11108012E9C
:101AB00035DBDDE902010022002300F0FFFB2ED21E
:101AC0001C2102A800F012FCDDE9020100F098FCE4
:101AD0008146F61F012E09DB00F0BEFC02460B46D4
:101AE000DDE9020100F0D0FCCDE9020108F20700B7
:101AF000072105E009F00F0200F8012D4FEA29192E
:101B0000B9F1010F01DB491EF4D5491E5CBF00226B
:101B100000F8012DF9D500F20708012EC9DA0DF100
:101B20001100A8EB00010DF11106A942B8BF0D4646
:101B30002DB2002D30D42846884206DA04A9411877
:101B40004978082928BF0F2100D2002104AA821851
:101B500000E06D1E401E12F801398B42F9D00F29AA
:101B600004D104A941184A78521C4A70002802D5B1
:101B700004AE6D1C3F1D2DB2681E0DD481190A786C
:101B80003032D2B23A2A03D39DF838303A3B9A1811
:101B900001F80129401EF2D5206B002840F1E680B3
:101BA000681E2063E2E0DDE902010022002300F06C
:101BB0006DFB3CBF81F00041CDE902013FB247F22D
:101BC00097507843474990FBF1F73FB2C7F10706BA
:101BD0009246DFF814B1012E19DBDDE90289F00726
:101BE00007D552465B464046494600F00DFD80460B
:101BF000894676105046594652465B4600F004FD31
:101C000082468B46002EEAD1CDE9028921E0764258
:101C10009046DFF8D89012E0F00707D552465B46B1
:101C20004046494600F0F0FC804689467610504612
:101C3000594652465B4600F0E7FC82468B46002E32
:101C4000EAD1DDE9020142464B4600F0AFFDCDE9A5
:101C500002019DF8000066280CBF07F10A0006206B
:101C6000216B4518142DA8BF132530208DF81000C6
:101C70000DF11106DFF87890012D3BDBDDE9020163
:101C800000F0D4FB06F1080104220A26B0FBF6F3AB
:101C900003EB830EA0EB4E00303001F8010DB3FBD7
:101CA000F6F000EB8006A3EB4603303301F8013D6C
:101CB000521EEAD101F10806083D012DDCDBDDE909
:101CC000020100F0B3FB00F0D1FB02460B46DDE958
:101CD000020100F0D9FB00224B4600F095FCCDE953
:101CE0000201CBE7A0860100000024400000F03F85
:101CF00084D797410DF11100301A0DF1110602E061
:101D0000401E7F1E761C31783029F9D09DF80010D6
:101D1000662902D13FB2791C03E065290CBF01217D
:101D20000021226B8D182DB2A842B8BF05462DB2F6
:101D3000002D1BD42946814204DA885D352828BF4E
:101D4000392000D230208A19521E00E06D1E491E33
:101D500012F801398342F9D0392802D1885D401C3C
:101D60008855002902D5761E6D1C7F1C3FB2009756
:101D70002BB232469DF83810204600F003F80FB021
:101D8000BDE8F08F2DE9F04385B00546894617463A
:101D90001E46D5F83080012E02DA01260FF2902778
:101DA00049F02000BDF93040662808BF641C18D0F7
:101DB000672840F082806FF003008442C0F2838085
:101DC000444580F28080641C95F83800000702D4F6
:101DD0004645B8BFB04624B2B8EB040848BF4FF040
:101DE0000008E868A96924B2012C25DA4A1C3023CE
:101DF0000B54B8F1010F03DA95F83810090702D532
:101E00002E211154521CAA6118EB040FB8BFC8F15F
:101E1000000424B261426962A044B045B8BF46469E
:101E200036B2EE6132463946AB69181800F0D2F985
:101E3000A8EB0600A862C1E00818A64218DA3246EC
:101E4000394600F0C7F9A9697118A961A01B686239
:101E5000B8F1010F03DA95F83800000705D5E868F6
:101E60002E220A54E869401CE861C5F82880A5E0E4
:101E70002246394600F0AEF9A8692018361BB8F1A1
:101E8000010F03DA95F83810090703D5E9682E2207
:101E90004254401CA86136B2B045B8BF464636B27F
:101EA0003246E119EB68C01800F094F9A8693018BF
:101EB000A861A8EB0600686280E0B9F1610F16D155
:101EC0004FF0700918E0464504DA95F83810090714
:101ED00058BFB046B8F1010848BF4FF00008B9F14B
:101EE000670F14BF4FF045094FF0650904E0B9F1E1
:101EF000410F08BF4FF05009A9694A1CE86817F85C
:101F0000013B0B54B8F1010F05DA95F838100907B9
:101F100058BFAA6117D52E211154531CAB61B8F1DB
:101F2000010F10DB761E36B2B045B8BF464636B25A
:101F300032463946181800F04DF9A8693018A861E2
:101F4000A8EB06006862A869E968471807F8019BD2
:101F5000002C03D42B2007F8010B03E02D2007F8F9
:101F6000010B644200260DF1080809E00A2221460F
:101F700000A800F03EFD019808F8010B009C761CBB
:101F800024B2012CF2DA022E06DA49F0200065288C
:101F900004BF302007F8010B4EB9302007F8010BC1
:101FA00007E0761E02A8305C303007F8010B012EE6
:101FB000F7DAA869E9684018381AE86195F8380036
:101FC00000F0140010280DD16869A9690818696A21
:101FD0000818E9690818A96A0818696B8842BCBF23
:101FE000081A286205B0BDE8F083F8B504460D462E
:101FF00016461F46002077B116F8011BA868A047B7
:10200000A86030B1E86A401CE86200207F1EF3D16E
:10201000F2BD4FF0FF30F2BD686A6C747A4C00007C
:102020006E616E004E414E00696E6600494E46007C
:1020300030000268531C0360117070470278C9B207
:102040008A421AB11CBF10F8012FF9E718BF00200F
:102050007047010000F10103810704D010F8011B53
:1020600089B18107FAD10268B2F10131914311F0CF
:10207000803F04BF50F8042FF6E710F8011B11B1A0
:1020800010F8011BFBE7C01A70470000C9B28307B4
:1020900006D0521E22D310F8013B9942F7D11FE01F
:1020A000083A13D302F1040241EA012141EA014155
:1020B00050F8043B121F21BF4B40A3F1013C2CEA16
:1020C000030C1CF0803FF3D0C9B2001F083210F897
:1020D000013B521E28BF91EA030FF8D818BF012018
:1020E000401E70471B4213D1094236D12AB18446A3
:1020F000B0FBF2F002FB10C2704700F081BCFCD3D1
:102100000022002370470B000200002100207047CE
:10211000904271EB030CF6D370B5B1FA81F4B3FAC7
:1021200083F52C1BA340C4F1200532FA05F6334396
:10213000A2405FF00046E64002E05B085FEA320240
:10214000841A71EB030524BF204629467641F4D357
:1021500002000B003000002170BD012ACFD970B5FC
:10216000140C20D0B1FA81F4B2FA82F5C4F1200443
:102170006419B4F12006D6D3B2405FF00044F440B5
:10218000002502E052085FEA3303C61A71EB020E23
:1021900024BF3046714664416D41F3D302000B0009
:1021A0002000290070BD0C46B1FBF2F102FB114585
:1021B0002D0445EA1045B5FBF2F402FB145580B23C
:1021C00040EA0545B5FBF2F002FB105240EA04403C
:1021D00070BD000062B38B0708D0521E11F8013B9E
:1021E00000F8013B00F024808B07F6D1830740F014
:1021F000208000BF103A07D330B4B1E83810103A4D
:10220000A0E83810F9D230BC530724BFB1E8081059
:10221000A0E8081044BF51F8043B40F8043BD20743
:1022200024BF31F8022B20F8022B44BF0B78037037
:102230007047083A07D3B1E80810083A40F8043B61
:1022400040F804CBF7D25307E4E730B4436803F017
:10225000004201211B031B0B436004BF0368002BDA
:1022600008D10DE00368DD0F45EA440444605B00DB
:102270000360491E4468E302F4D523031B0B43604B
:1022800043681A434260084630BC70474FF4001C54
:102290001CEB410F94BF1CEB430F09E041EA030C18
:1022A00050EA4C0C52EA0C0C03D2994208BF9042FF
:1022B000704714BF8B428242704706004FF4001CE7
:1022C0001CEB410F94BF1CEB430F09E041EA030CE8
:1022D00050EA4C0C52EA0C0C03D28B4208BF8242EB
:1022E000704714BF994290427047000070B5044691
:1022F00040F2FF726068C0F30A500D46904207D169
:102300006068000304BF2068002817D0022070BD59
:1023100020B92046FFF799FF012867DA012D0FDB6E
:1023200040F2FF71091A8D420AD3606800284CBF41
:102330009FED2F0B9FED300B84ED000B012070BD46
:102340004142A942616806DA6FF31E51401941EA21
:102350000050606041E0401E63680122451962F34D
:102360001F5305F1350001F000416360352803D3A8
:1023700061600020206070BD002215F11F0F04DA9B
:1023800022682360002020356060684213D0521E0E
:1023900025689241C0F12003D2439D4055EAD27294
:1023A00025686668C54006FA03F32B43236063681B
:1023B00023FA00F06060606808436060B2F1004F8B
:1023C00003D80DD12078C0070AD52068401C2060B2
:1023D000206828B96068401C60604FF0FF3070BD15
:1023E0006068884204BF20680028F6D1002070BDD4
:1023F000000000000000F0FF000000000000F07F7F
:10240000F446400D40EAC120490006D200F014F81D
:10241000004248BF6FF00040604700F00DF84FF0F9
:10242000004188428CBF084640426047400D40EA68
:10243000C120490080F00D8040F00040490DA1F519
:102440008061491C05D4D1F11F0154BFC840C01799
:1024500070474FF000007047010040F10980F446DA
:10246000404200F005F851F000416047010000BF14
:1024700009D0B0FA80F18840C91CC1F58461090512
:1024800001EBD0214005704770B44FF0004591EA50
:10249000030F44BF6B4000F0B5BA00BF841A71EB64
:1024A000030604D26E40001BB141121973414FF470
:1024B000001C1CEB410F34BF7CEB430684E00C0D89
:1024C000A4EB1356362E7DDC012E43DC45EAC323F4
:1024D00043EA525312BFD20292025B08240545EA36
:1024E000C12141EA5051D2EBC020994125D407D1F6
:1024F000B0FA80F610FA06F164D00020203608E029
:10250000B1FA81F6B140C6F1200220FA02F211437D
:10251000B0404FEAF474B4EB465434F001064FEA8D
:1025200074040AD8D6F50016760D04F00044F04085
:1025300061FA06F25040F1404840C00A40EA41507A
:1025400021F0004128BF5FEA500550F1000044EB44
:10255000D12137E045EAC323DB0A45EAC121C90A94
:10256000B6F120050EDD42EA0242120CC5F120064A
:1025700003FA06F6EB4042EA06056D42984161F126
:1025800000010DE062FA06F5F240554063FA06FCE0
:1025900082EA0C02F3405A406D42904161EB030124
:1025A00011F4801F05D1641E620502D06D00404108
:1025B000494121F48011430875F1004350F10000B6
:1025C00041EB045170BC70471CEB410F15D223F056
:1025D000004352EA43060BD04FEA4C0CBCEB410FD0
:1025E00004D80C0D661E342EB7DDEBE7801A994136
:1025F00050EA410608BF0021E4E708BF1CEB430F87
:1026000028BF6FF00001DDE7B0B581EA030C0CF0E4
:10261000004C40F2FF7515EA11541DBF15EA13571F
:10262000AC42AF4239E0E41923EA455343F4801346
:10263000C90241F0004141EA505EC7021100A7FB08
:10264000020200284FF00000EEFB01204FF00001D5
:10265000E3FB072118BF42F0010240180021494165
:10266000E3FB0E01A4F580640F0302D25200404147
:10267000494154F101046CDD470872F1004250F108
:10268000000051EB0451A1F580115CBF41EA0C013F
:10269000B0BD4CEA05510020B0BD05EA1357AC426D
:1026A00014BFAF4241E050EA410E1CBF52EA430E54
:1026B00002E061460020B0BD24423C441BD15FEAE9
:1026C000070EF6D0090302BF01460020AEF1140E3A
:1026D000B1FA81F7AEEB070401FA07FE0C37C7F138
:1026E000200100FA07F7C8404EEA000E23EA4553DE
:1026F00043F48013A2E733F00043B3FA83F704BF37
:10270000B2FA82FE77440B3FE41BB7F1200E2FBFD5
:1027100002FA0EF3BB40C7F1200E22FA0EFE38BFBC
:1027200043EA0E03BA40641C82E750EA410E14BF2C
:1027300052EA430E6FF000014FF4001717EB430FFE
:102740008ABF194617EB410FB5E74CEA0551002047
:10275000B0BDD4F10104B4F120070FDAC4F12007B1
:10276000520828BF42F0010210FA07F501FA07F7F4
:10277000E1BF2A43E0403843E1400FE0352C98DCCC
:10278000C7F1200452EA400220FA07F218BF42F0D3
:10279000010231FA07F0A1400A43002172F1004220
:1027A00050F1000051EB0C01B0BD0000F0B540F25B
:1027B000FF7581EA030C0CF0004C15EA11541DBFA3
:1027C00015EA1357AC42AF42E5E0BC41C1F3130137
:1027D000C3F31303801A994143F4801304D2641E97
:1027E0004000494180185941C90241EA5051B1FBAA
:1027F000F3F603FB1611A2FB0675D7EBC020A94127
:1028000002D2761E80185941C90241EA5051B1FBEB
:10281000F3FE03FB1E11A2FB0E75D7EBC020A941EE
:1028200003D2AEF1010E80185941890241EA90515C
:10283000760546EA8E2EB1FBF3F603FB1611A2FBDA
:102840000675D7EB8020A94102D2761E8018594127
:10285000C90241EA50514EEA060EB1FBF3F603FB02
:102860001611A2FB0675D7EBC020A94102D2761E35
:1028700080185941C90241EA5051B1FBF3F703FBFB
:102880001711A2FB0735D3EBC020A94167F1000760
:102890000CBF004247F0010766F3D5274FEA1E310F
:1028A000B80814F5806412DDBD0775F1004250EBE5
:1028B0000E5051EB045111F5801F5CBF41EA0C0131
:1028C000F0BD4CF07F6141F0E0410020F0BDBD075C
:1028D0006D0840EA0E5041F48011D4F10104B4F1C6
:1028E00020060ADAC4F120060200E04001FA06F3ED
:1028F000E1401843B24015430EE0342C13DCC6F11E
:10290000200445EA40056D0820FA06F2154321FA35
:1029100006F0A1400D43002175F1004250F1000086
:1029200051EB0C01F0BD00205FEA0C01F0BDCFB906
:1029300092185B41B3FA83F704BFB2FA82F6BF196B
:102940000B3FB7F120062FBF02FA06F3BB40C7F1D9
:10295000200622FA06F638BF3343BA401CB1E41908
:10296000641E33E77F4231F00041B1FA81F404BFC5
:10297000B0FA80F6A4190B3CB4F120062FBF00FA80
:1029800006F1A140C4F1200620FA06F638BF314313
:10299000A0403C1B1AE7AC421ABF05EA1357AF42EE
:1029A00012E050EA41061CBF52EA4306BFE750EA74
:1029B0004107304661461CBF41EA0551F0BD52EA6D
:1029C000430C08BFC143F0BD00204FF4001616EBC6
:1029D000410F98BF16EB430F08BF16EB410F24BF02
:1029E000C14305E016EB430F0CBF61464CEA0551AD
:1029F000F0BD91FBF2F303FB1211C0E90031704707
:102A000070470000841A71EB030603D2001BB1412A
:102A1000121973414FF4001C1CEB410F34BF7CEBC7
:102A2000430443E00C0DA4EB1356352E50DC45EA6D
:102A3000C323DB0A45EAC121C912B6F120050DDD29
:102A400063FA05F6EB4086EA0305124218BF45F02B
:102A50000105C01851F100010CD213E062FA06F52D
:102A6000F2405540F3415A40B340F3405A40801879
:102A7000594107D349085FEA30005FEA350528BFAE
:102A800045F0010501F58011420875F1004250F151
:102A9000000041EB045170BC4FF4001C1CEB410FD3
:102AA00038BF70470020090D090570471CEB410F26
:102AB00010D252EA43060BD0BCEB410F05D80C0DE7
:102AC000AB43661E342EB5DD02E0AB43801859419E
:102AD00070BC704770BC704710B52DED088B8AB084
:102AE000040000A8242100F0DFFB00A800F0CDF8CE
:102AF0009DED084ADDED073A9DED063ADDED052A2C
:102B00009DED042ADDED031AB0EE618AF0EE428AF3
:102B1000B0EE629AF0EE439AB0EE63AAF0EE44AAE9
:102B20009DED020ADFEDB90A20EE200A10EE100A30
:102B3000FEF7F4FA0022DFF80C37FFF737FEFEF756
:102B4000ABFB01EE100AB0EE6A4AF0EE4A3AB0EE84
:102B5000693AF0EE492AB0EE682AF0EE481AB0EE73
:102B6000418AF0EE618AB0EE429AF0EE629AB0EEDF
:102B700043AAF0EE63AAB0EE44BA9DED010ADFED80
:102B8000A30A20EE200A10EE100AFEF7C7FA002270
:102B9000DFF8B036FFF70AFEFEF77EFB00EE900A84
:102BA000B0EE4B4AF0EE6A3AB0EE4A3AF0EE692ADD
:102BB000B0EE492AF0EE681AB0EE481AB0EE608A1C
:102BC000F0EE418AB0EE619AF0EE429AB0EE62AA5F
:102BD000F0EE43AAB0EE63BAF0EE44BA9DED000AFF
:102BE000DFED8A0A20EE200A10EE100AFEF796FAB0
:102BF0000022DFF85036FFF7D9FDFEF74DFB00EE5F
:102C0000100AB0EE6B4AF0EE4B3AB0EE6A3AF0EED4
:102C10004A2AB0EE692AF0EE491AB0EE681AF0EED0
:102C2000480AFDF7B1FADFF8200600682060DFF8F7
:102C30001C0600686060DFF818060068A060DFF816
:102C400014060068E0600AB0BDEC088B10BD70B5DA
:102C500004000D00160006222821200000F0CBFB06
:102C600006232A002821322000F00CFE0623320021
:102C700003213C2000F006FE70BD10B504000622C2
:102C80002821200000F0B7FB10BD10B5040005207E
:102C900000F05EFFDFF8C015DFF8C00500F002FAB3
:102CA000DFF8BC15DFF8BC0500F040FADFF8B81516
:102CB000DFF8B80500F08CFADFF8B40590ED010AF2
:102CC000DFF89805D0ED010A30EE600A84ED000AC5
:102CD000DFF8880590ED000ADFF89405D0ED000AD2
:102CE00030EE600A84ED010ADFF8700590ED020A0B
:102CF000DFF87C05D0ED020A30EE600A84ED020AAE
:102D0000DFF860050068E060DFF858054068206182
:102D1000DFF8500580686061DFF850050068A06149
:102D2000DFF848054068E061DFF840058068206210
:102D3000052000F017FF10BD38B54FF47A7000F091
:102D40009DFF0024002500200500642D38DADFF8FF
:102D50000805FFF792FFDFF80015DFF8000500F027
:102D6000A1F9DFF80C0590ED000ADFF8F004D0EDD2
:102D7000000A30EE200ADFF8F80480ED000ADFF8E0
:102D8000F00490ED010ADFF8D404D0ED010A30EE32
:102D9000200ADFF8DC0480ED010ADFF8D40490EDAE
:102DA000020ADFF8B804D0ED020A30EE200ADFF89C
:102DB000C00480ED020A0A2000F060FF6D1CC4E729
:102DC000DFF8AC0490ED000ADFEDB50A80EE200AD2
:102DD000DFF89C0480ED000ADFF8940490ED010A0E
:102DE000DFEDAF0A80EE200ADFF8840480ED010AEF
:102DF000DFF87C0490ED020ADFEDA90A80EE200ADC
:102E0000DFF86C0480ED020A31BD0000DB0F4940A1
:102E100000B585B008208DF8040080208DF80500ED
:102E200007208DF8060030208DF8070080208DF8EF
:102E3000080000208DF8090000208DF80A0001A884
:102E400000F036FA10208DF80C0005208DF80D00EA
:102E500003A800F07CFA002000F095FA082000F0AA
:102E600054FA00208DF800000122232100A800F070
:102E7000C2FA9DF8000010F03000C0B2002804D063
:102E8000102808D020280CD010E0DFF8E803DFF885
:102E9000E81301600AE0DFF8DC03DFF8E01301600B
:102EA00004E0DFF8D003DFF8D81301609DF80000DC
:102EB00010F04000DFF8CC13087005B000BD00B57D
:102EC00085B000208DF808001C208DF80900202016
:102ED0008DF80B0000208DF80A0002A800F002FC1B
:102EE00000208DF80C0090208DF80D0007208DF843
:102EF0000E0000208DF8120000208DF81000002038
:102F00008DF8110008208DF80F0003A800F082FB57
:102F100080208DF8040030208DF8050000208DF809
:102F2000060000208DF8070001A800F0A0FB00209B
:102F300000F0BEFB00208DF8020001230DF102021B
:102F400001213C2000F09EFC9DF8020010F0E00002
:102F5000C0B220280CD0402815D060281ED0802870
:102F600027D0A02830D0C02839D0E02842D049E06E
:102F7000DFF8140340F24C410180DFF810034FF4F6
:102F8000757101803EE0DFF8000340F257310180A7
:102F9000DFF8F8024FF43E71018033E0DFF8E80219
:102FA00040F29E210180DFF8E4024FF416710180A7
:102FB00028E0DFF8D4024FF4E1710180DFF8CC02A1
:102FC0004FF4C87101801DE0DFF8BC024FF4C871F6
:102FD0000180DFF8B80240F26311018012E0DFF8EF
:102FE000A8024FF4A5710180DFF8A00240F227117A
:102FF000018007E0DFF89002E6210180DFF88C0213
:10300000CD210180022300AA2321322000F03AFCC6
:103010009DF80100400609D5DFF8740240210170D7
:10302000DFF870025FF07A51016028E0DFF860029B
:10303000102101709DF8000010F03000C0B200288F
:1030400006D010280AD020280ED0302812D016E042
:10305000DFF840025FF07E51016010E0DFF83402DB
:103060005FF07C5101600AE0DFF828025FF07A51DE
:10307000016004E0DFF81C02DFF81C1201609DF81B
:103080000000400606D49DF80100C0F3801010F047
:10309000010000E00120DFF80412087005B000BD57
:1030A0000000C8421CB400AA0023002418C2083A39
:1030B0000022744B1B78002B0FD100231A00032A27
:1030C0001CDA11EB42035B781B0211F812401B194A
:1030D00000AC24F81230521CF1E700231A00032A36
:1030E0000CDA11F812301B0211EB4204647853FA27
:1030F00084F300AC24F81230521CF0E700231A00CD
:10310000032A11DA00AB33F9123000EE103AB8EEB0
:10311000C00A584BD3ED000A80EE200A10EB820360
:1031200083ED000A521CEBE713BC70471CB45B4BE9
:103130001B78002B18D100231A00D2B2032A2CD2FC
:10314000D2B211EB42035B781B02D2B211F81240EB
:1031500004FA83F34E4C247893FBF4F3D2B200AC20
:1031600024F81230521CE8E700231A00D2B2032AD6
:1031700013D2D2B211F812301B02D2B211EB4204B8
:10318000647804FA83F3424C247893FBF4F3D2B2CC
:1031900000AC24F81230521CE8E700231A00D2B227
:1031A000032A13D2D2B200AB33F9123000EE103A38
:1031B000B8EEC00A374BD3ED000A80EE200AD2B237
:1031C00010EB820383ED000A521CE8E713BC704742
:1031D0000A7812024B78D21812B200EE102AB8EE1A
:1031E000C00A294A128800EE902AF8EE600A80EEA2
:1031F000200A80ED000A8A781202CB78D21812B227
:1032000000EE102AB8EEC00A204A128800EE902A7A
:10321000F8EE600A80EE200A80ED020A0A791202B6
:103220004B79D21812B200EE102AB8EEC00A164A34
:10323000128800EE902AF8EE600A80EE200A80EDF7
:10324000010A7047008066406000002040010020B5
:10325000440100204801002038010020080100201E
:1032600030010020FC00002028010020F000002098
:10327000140100204C010020EC91E442549264427D
:103280005C8F64417D010020780100207A010020DC
:1032900080010020680000209FCDAA3D7F01002012
:1032A0000020704700207047002200F079BD000028
:1032B00010B582B0040000208DF8010000208DF8C8
:1032C000000000F0BBF89DF80100217862781143FE
:1032D000A2781143E278114308438DF801009DF86C
:1032E0000000217962791143A279114308438DF8D6
:1032F0000000012220210DF1010000F05DF8012203
:10330000232100A800F058F813BD10B582B00400C6
:103310000122222100A800F06EF89DF8000010F0B4
:10332000F7008DF800009DF8000020438DF80000A4
:103330000122222100A800F03FF80122222100A84A
:1033400000F059F89DF800000007E1D513BD10B555
:1033500082B004000122212100A800F04CF89DF861
:10336000000010F0C0008DF800009DF800002178EA
:103370006278114308438DF800000122212100A842
:1033800000F01AF813BD10B582B004000122242108
:1033900000A800F030F89DF8000010F0EF008DF864
:1033A00000009DF8000020438DF800000122242138
:1033B00000A800F001F813BD70B504000D00160060
:1033C000B6B2022E01D355F0400508218E4800F018
:1033D00067FD2800C0B200F0E0F8B6B2012E05D3B8
:1033E000207800F0DAF8761E641CF6E7082186489B
:1033F00000F053FD70BD70B504000D001600B6B2AC
:10340000022E02D355F0C00501E055F080050821D9
:103410007D4800F045FD2800C0B200F0BEF8B6B20D
:10342000012E06D3002000F0B8F82070761E641C30
:10343000F5E70821744800F030FD70BD00B587B095
:1034400001214FF4805000F07FFF01215FF4003034
:1034500000F06BFF01215FF4001000F066FF012116
:103460005FF4001000F061FF01215FF4001000F034
:103470005CFF052205215FF0904000F013FD05225E
:1034800006215FF0904000F00DFD052207215FF05E
:10349000904000F007FD02208DF8040000208DF818
:1034A000060000208DF8070003208DF8050020207D
:1034B000009000A95FF0904000F08CFC802000900C
:1034C00000A95FF0904000F085FC4020009000A92A
:1034D0005FF0904000F07EFC4C4800F089FF002037
:1034E000ADF808004FF4E060ADF80C000020ADF836
:1034F0000E000020ADF810004FF40070ADF812007F
:103500000020ADF814000020ADF816000720ADF83B
:1035100018004FF48270ADF80A0002A93B4800F091
:1035200099FF4FF48051394800F0E8FF01213748F6
:1035300000F0D6FF0820009001208DF80400002044
:103540008DF8060003208DF8050000A92E4800F034
:1035500041FC08212C4800F0A0FC01200090002034
:103560008DF8040000208DF8060003208DF805007A
:1035700001208DF8070000A9234800F02BFC022051
:10358000009000A9204800F025FC4020009000A9F0
:103590001D4800F01FFC07B000BD10B504001C481A
:1035A0004FF4805101600221184800F0BBFF002851
:1035B0000AD117480068411E154A11600028F2D14F
:1035C000FFF770FEC0B21CE02100C9B20F4800F046
:1035D0009EFF0F484FF48051016001210B4800F01D
:1035E000A1FF00280AD10A480068411E084A11605C
:1035F0000028F2D1FFF756FEC0B202E0034800F007
:103600008BFF10BD0000000000100048003001409A
:103610007000002010B582B0040000208DF8010079
:1036200000208DF8000000F0D4F99DF80100217809
:1036300062781143A278114308438DF801009DF888
:103640000000217962791143A2791143E278114394
:1036500008438DF800000DF101022021322000F016
:1036600075F800AA2321322000F070F813BD10B5C0
:1036700082B00400012300AA2121322000F002F9C7
:103680009DF8000010F00C008DF800009DF800007F
:10369000217862781143A2781143E27811430843FC
:1036A0008DF8000000AA2121322000F04FF813BD50
:1036B00010B582B00400012300AA2121322000F0BD
:1036C000E1F89DF8000010F0F7008DF800009DF87B
:1036D000000020438DF8000000AA2121322000F0D4
:1036E00035F813BD10B582B0040000208DF802003B
:1036F00000208DF8010000208DF8000000F069F92D
:103700009DF8020021786278114308438DF8020089
:103710009DF80100E17808438DF801009DF8000054
:10372000A17808438DF800000DF1020200213C2031
:1037300000F00CF80DF1010201213C2000F006F828
:1037400000AA02213C2000F001F813BD70B582B040
:1037500004000D001600DFF8A0034FF420410160C3
:103760004FF40041DFF8940300F048FF00280CD02C
:10377000DFF884030068411EDFF87C231160002815
:10378000EED1FFF78DFD80B27BE04FF4005000904A
:103790005FF080730122E4B2210089B2DFF85C039C
:1037A00000F00CFFDFF850034FF4204101600221CC
:1037B000DFF8480300F022FF00280AD1CE48006855
:1037C000411ECD4A11600028F1D1FFF769FD80B29A
:1037D00057E02900C9B2C94800F00AFFC6484FF4B3
:1037E000204101608021C54800F008FF00280AD16F
:1037F000C1480068411EC04A11600028F2D1FFF79D
:103800004FFD80B23DE0002000905FF00073012288
:10381000E4B2210089B2B94800F0D0FEB6484FF4B6
:10382000204101600221B54800F0E8FE00280AD1DD
:10383000B1480068411EB04A11600028F2D1FFF77C
:103840002FFD80B21DE03178AC4800F0D1FEAA48CF
:103850004FF4204101602021A84800F0CFFE00284D
:103860000AD1A5480068411EA34A11600028F2D180
:10387000FFF716FD80B204E02021A04800F0CFFE43
:10388000002076BD2DE9F04182B004008846150085
:103890001E0027007F1C7F1E97484FF420410160C7
:1038A0004FF40041954800F0A9FE00280AD0924844
:1038B0000068411E904A11600028F1D1FFF7F0FC2A
:1038C00080B284E04FF40050009000230122E4B263
:1038D000210089B2894800F071FE87484FF42041E9
:1038E00001600221854800F089FE00280AD1824843
:1038F0000068411E804A11600028F2D1FFF7D0FC19
:1039000080B264E0B6B2022E01D358F0800841467E
:10391000C9B27A4800F06CFE77484FF4204101604C
:103920004021764800F06AFE00280AD172480068FB
:10393000411E714A11600028F2D1FFF7B1FC80B23C
:1039400045E04FF4105000905FF000733200D2B2A7
:10395000E4B2210089B2694800F030FEB6B2002E10
:103960001BD065484FF4204101600421634800F0FA
:1039700045FE00280AD160480068411E5E4A116079
:103980000028F2D1FFF78CFC80B220E05B4800F009
:1039900032FE28706D1C761EE0E757484FF4204138
:1039A00001602021554800F029FE00280AD1524824
:1039B0000068411E504A11600028F2D1FFF770FCE8
:1039C00080B204E020214D4800F029FE0020BDE82F
:1039D000F68100B58BB001215FF4001000F0C3FC4C
:1039E00001215FF4802000F0A0FC01215FF40010B1
:1039F00000F09BFC01215FF4001000F096FC012117
:103A00005FF4001000F091FC042206213C4800F015
:103A100049FA042207213A4800F044FA02208DF8BE
:103A2000040000208DF8060002208DF80700032016
:103A30008DF805004020009000A9314800F0CAF937
:103A40008020009000A92E4800F0C4F900208DF8D5
:103A5000040000208DF8060000208DF807000320E8
:103A60008DF805000420009000A9264800F0B2F966
:103A70000221042000F0D6FD0220029000208DF8E3
:103A80000C0008208DF80D0001208DF80E0002A812
:103A900000F0F2FD00200790002005900020069025
:103AA000002008900020099000200A9016480490F9
:103AB00004A9124800F042FD0121104800F071FDF8
:103AC0001020009000208DF8040000208DF80600E2
:103AD00003208DF8050001208DF8070000A9094892
:103AE00000F078F92020009000A9064800F072F953
:103AF0000BB000BD00000000740000200054004026
:103B00000004004800100048121048001CB50400D2
:103B10000121E4B24F4850F8240000F006FCE4B262
:103B20004D4830F81400009001208DF8040000206A
:103B30008DF8060001208DF8070003208DF80500A0
:103B400000A9E4B2454850F8240000F043F913BD41
:103B5000C0B2424951F82010C0B23F4A32F810209A
:103B60008A617047C0B23D4951F82010C0B23A4A4C
:103B700032F810200A857047C0B2384951F8201039
:103B8000898AC0B2344A32F810205140C0B2334A58
:103B900052F820209182704730B585B004000D00A6
:103BA0000121E4B22E4850F8240000F0BEFB0121B0
:103BB000012000F0C9FB00208DF8100000208DF8D6
:103BC0001300E4B2274830F81400039003A9E4B2CC
:103BD000254850F8240000F0FDF8EDB2012D29D160
:103BE000E4B22248215CE4B22148205C00F01AFDD6
:103BF000E4B2204830F81400019000208DF808004D
:103C000008208DF8090001208DF80A0001A800F0B5
:103C100033FDE4B21848205C8DF800000F208DF8C9
:103C200001000F208DF8020001208DF8030000A88C
:103C300000F0F4FD05B030BD10B50400E4B2094851
:103C400030F81410E4B2084850F8240000F016F9D7
:103C500010BD0000105300089C5300080000002015
:103C6000C8530008522000086C000020D32100082F
:103C7000D22100088A200008BA22000801B4009866
:103C80000A2148433E4908603D4800680028FBD1AE
:103C900001B070473A480068002804D038480068EE
:103CA000401E37490860704736480068401C354957
:103CB000086035480068401C334908603348006894
:103CC000401C3249086032480068401C3049086096
:103CD00030480068401C2F4908602F480068401C8D
:103CE0002D4908602D480068401C2C490860704729
:103CF00070B504000D0016002068A84202D3002011
:103D00002060B04770BD10B5040022000A211D4894
:103D1000FFF7EEFF10BD10B50400220064211A4821
:103D2000FFF7E6FF10BD10B504002200C8211748B8
:103D3000FFF7DEFF10BD10B5040022004FF4FA714A
:103D40001348FFF7D5FF10BD10B5040022004FF453
:103D50007A711048FFF7CCFF10BD10B504002200A7
:103D600042F210710C48FFF7C3FF10BD10B50400FC
:103D700022004CF250310948FFF7BAFF10BD000095
:103D80007001002054010020580100205C01002037
:103D90006001002064010020680100206C01002007
:103DA00000B500BF130096469446103928BFA0E81E
:103DB0000C50FAD85FEA417C28BF0CC048BF40F8DD
:103DC000042BC90728BF20F8022B48BF00F8012B9D
:103DD00000BD0000F0B400240022002300252C00C8
:103DE000102C49D20125A5402A000D6815402B0052
:103DF00093423FD10D79012D02D00D79022D19D1B9
:103E0000856803262700FFB27F00BE40B54385606A
:103E100085684E792700FFB27F00BE40354385603C
:103E200085880126A640B543858085888E79A64081
:103E300035438580056803262700FFB27F00BE401A
:103E4000B543056005680E792700FFB27F00BE40CC
:103E500035430560C56803262700FFB27F00BE40DA
:103E6000B543C560C568CE792700FFB27F00BE406C
:103E70003543C560641CB3E7F0BC70470200002006
:103E8000138A89B20B409BB2002B02D00123180089
:103E900001E000231800C0B2704789B28161704709
:103EA00001857047F0B400230024D2B211F0070559
:103EB000EDB2AD0012FA05F52B0089B2CD1010EB72
:103EC000850589B2CE1010EB8606366A0F2711F0F1
:103ED000070C5FFA8CFC5FEA8C0C17FA0CF7BE43F8
:103EE0002E6289B2CD1010EB85052D6A1D432C0082
:103EF00089B2CD1010EB85052C62F0BC7047000034
:103F0000F0B5002100220023002400250026002710
:103F10005FF0000CDFF8A8E4DEF800E01EF00C0E05
:103F200071468E46BEF1000F06D0BEF1040F08D0D8
:103F3000BEF1080F0AD033E0DFF890E4C0F800E0EB
:103F400032E0DFF888E4C0F800E02DE0DFF870E44C
:103F5000DEF800E01EF4701E7246DFF864E4DEF85E
:103F600000E01EF4803E7346920C921C002B05D19B
:103F7000DFF85CE40EFB02FE76460FE0DFF844E477
:103F8000DEF800E01EF00F0E1EF1010E7446DFF8A1
:103F90003CE4BEFBF4FE02FB0EFE7646066003E048
:103FA000DFF828E4C0F800E0DFF814E4DEF800E011
:103FB0001EF0F00E71460909DFF818E411F80EE062
:103FC000F446D0F800E03EFA0CFEC0F804E0DFF85A
:103FD000F0E3DEF800E01EF4E06E7146090ADFF857
:103FE000F4E311F80EE07546D0F804E03EFA05FE61
:103FF000C0F808E0DFF8C8E3DEF800E01EF4605E19
:104000007146C90ADFF8CCE311F80EE07746D0F824
:1040100004E03EFA07FEC0F80CE0DFF8A8E3DEF8A3
:1040200000E01EF4F87E71460909DFF8ACE33EF8C3
:1040300011E075465FEAC56E04D5B6FBF5FEC0F823
:1040400010E003E0D0F800E0C0F810E0DFF874E31F
:10405000DEF800E01EF4785E7146490ADFF878E386
:104060003EF811E075465FEAC56E04D5B6FBF5FE75
:10407000C0F814E003E0D0F800E0C0F814E0DFF886
:1040800048E3DEF800E05FEACE6E04D4DFF83CE3FC
:10409000C0F818E003E0D0F800E0C0F818E0DFF85E
:1040A00028E3DEF800E05FEA8E6E04D4DFF81CE35C
:1040B000C0F81CE003E0D0F800E0C0F81CE0DFF836
:1040C00008E3DEF800E05FEACE5E0AD5D0F800E053
:1040D000B64506D1674504D15FEA460EC0F820E038
:1040E00003E0D0F80CE0C0F820E0DFF8DCE2DEF816
:1040F00000E05FEA8E5E0AD5D0F800E0B64506D152
:10410000674504D15FEA460EC0F824E003E0D0F82A
:104110000CE0C0F824E0DFF8B0E2DEF800E01EF0CA
:10412000030F04D1D0F80CE0C0F828E028E0DFF855
:1041300098E2DEF800E01EF0030EBEF1010F04D19C
:10414000D0F800E0C0F828E01AE0DFF87CE2DEF802
:1041500000E01EF0030EBEF1020F04D14FF4004E3A
:10416000C0F828E00CE0DFF860E2DEF800E01EF0C6
:10417000030EBEF1030F03D1DFF850E2C0F828E0D0
:10418000DFF844E2DEF800E01EF4403F04D1D0F84E
:1041900008E0C0F82CE028E0DFF82CE2DEF800E0D0
:1041A0001EF4403EBEF5803F04D1D0F800E0C0F8D8
:1041B0002CE01AE0DFF810E2DEF800E01EF4403EEA
:1041C000BEF5003F04D14FF4004EC0F82CE00CE0E7
:1041D000DFF8F4E1DEF800E01EF4403EBEF5403FBB
:1041E00003D1DFF8E8E1C0F82CE0DFF8DCE1DEF82D
:1041F00000E01EF4402F04D1D0F808E0C0F830E011
:1042000028E0DFF8C4E1DEF800E01EF4402EBEF541
:10421000802F04D1D0F800E0C0F830E01AE0DFF8D9
:10422000A8E1DEF800E01EF4402EBEF5002F04D118
:104230004FF4004EC0F830E00CE0DFF88CE1DEF81F
:1042400000E01EF4402EBEF5402F03D1DFF87CE1E4
:10425000C0F830E0DFF870E1DEF800E01EF4401F47
:1042600004D1D0F808E0C0F834E028E0DFF858E1E5
:10427000DEF800E01EF4401EBEF5801F04D1D0F829
:1042800000E0C0F834E01AE0DFF83CE1DEF800E0DE
:104290001EF4401EBEF5001F04D14FF4004EC0F8BE
:1042A00034E00CE0DFF820E1DEF800E01EF4401E10
:1042B000BEF5401F03D1DFF814E1C0F834E0DFF8A9
:1042C00008E1DEF800E01EF4400F04D1D0F808E069
:1042D000C0F838E028E0DFF8F0E0DEF800E01EF497
:1042E000400EBEF5800F04D1D0F800E0C0F838E0F1
:1042F0001AE0DFF8D4E0DEF800E01EF4400EBEF570
:10430000000F04D14FF4004EC0F838E00CE0DFF8A5
:10431000B8E0DEF800E01EF4400EBEF5400F03D119
:10432000DFF8A8E0C0F838E0F0BDC9B2002905D038
:104330002A4A12680243294B1A6004E0274A12688D
:104340008243264B1A607047C9B2002905D0244A1F
:1043500012680243224B1A6004E0214A1268824329
:104360001F4B1A607047C9B2002905D01D4A126858
:1043700002431C4B1A6004E01A4A12688243194B2C
:104380001A607047C9B2002905D0174A1268024363
:10439000154B1A6004E0144A12688243124B1A60EB
:1043A0007047C9B2002905D0104A126802430F4B6A
:1043B0001A6004E00D4A126882430C4B1A60704781
:1043C000041002402C1002403010024000127A000B
:1043D00000093D004C000020200000201410024085
:1043E000181002401C1002400C1002401010024035
:1043F00010B50400144884420AD101214FF48050C2
:10440000FFF7C0FF00214FF48050FFF7BBFF1AE019
:104410000E4884420AD101214FF48040FFF7C1FFCA
:1044200000214FF48040FFF7BCFF0CE008488442B5
:1044300009D101214FF40040FFF7B3FF00214FF4F1
:104440000040FFF7AEFF10BD0030014000380040D3
:10445000003C004070B400224B88B3F5827F1BD132
:1044600003881A0012F441520B884C882343CC88ED
:104470000D892C434D898E893543CE8935432C4394
:1044800023431A43028083881A004FF2FF031A4025
:104490008B881A4382801AE083881A004FF2FF0348
:1044A0001A408B881A43828003881A0012F4415202
:1044B0000B884C882343CC880D892C434D898E89E9
:1044C0003543CE8935432C4323431A430280838BE3
:1044D0004FF2FF74234083830B8A038270BC7047C2
:1044E000C9B2002904D0028852F04002028004E0E0
:1044F00002884FF6BF731A400280704782884EF6DA
:10450000FF731A40828082880A43828070470022AB
:1045100002000C32117070470100002008000C30BE
:10452000007870470200002013890B4202D001235B
:10453000180001E000231800C0B2704710B4002238
:1045400003685B085B00036003681A00254B1A4090
:104550004B688C6853EA04231A4302600B6833F0FB
:1045600070630361036853F00103036000231A00C2
:104570008260C2608B690C6923431A008260836881
:1045800053F400438360CB681A000368134303604D
:1045900043681A00144B1A404B691A43426010BC1E
:1045A0007047C9B2002904D0026852F001020260CB
:1045B00003E00268520852000260704770B4039C26
:1045C000002546683500094E354089B28E05B60D86
:1045D000D2B256EA02461E4326433543456070BCBC
:1045E00070470000FFE0CF00FF7FFF07009800FC4E
:1045F000C9B281627047406AC0B2704710B402000D
:1046000000230020946923000B40002B02D00124DA
:10461000200001E000242000C0B210BC7047C1613E
:104620007047000030B400220F2311F00304E4B2FD
:10463000A400A3401A00C9B28B100E4C54F82330CA
:104640009343C9B28C100B4D45F82430C9B28B107E
:10465000084C54F82330C0B211F00304E4B2A400B3
:1046600010FA04F42343C9B28C10024D45F82430EB
:1046700030BC70470800014010B40021624A1100AC
:104680008279002A00F083800268520952015E4B51
:104690009A580123047814F01F04A3409A43036836
:1046A0005B095B01584CE250026852095201574BBA
:1046B0009A580123047814F01F04A3409A43036816
:1046C0005B095B01514CE250027903685B095B01B5
:1046D0009A1851180A680123047814F01F04A340A3
:1046E0001A430A60484A1100026852095201484BB5
:1046F0009A580123047814F01F04A3409A430368D6
:104700005B095B01424CE250026852095201414B85
:104710009A580123047814F01F04A3409A430368B5
:104720005B095B013B4CE2504279102A20D10268C0
:1047300052095201364B9A580123047814F01F0491
:10474000A3401A4303685B095B01314CE2500268E5
:10475000520952012F4B9A580123047814F01F0478
:10476000A3401A4303685B095B012A4CE2501CE03A
:10477000427903685B095B019A1851180A680123A2
:10478000047814F01F04A3401A430A600DE0027974
:1047900003685B095B019A1851180A6801230478C1
:1047A00014F01F04A3409A430A6010BC704730B451
:1047B0000100002000224B095B01134CE358012447
:1047C00011F01F05AC4023401A004B095B01124C4D
:1047D000E358012411F01F05AC40234204D0002A05
:1047E00002D00123180001E000231800C0B230BC41
:1047F000704710B441094901074A012310F01F0412
:10480000A340535010BC7047000401400404014011
:10481000080401400C04014014040140F0B40023DA
:1048200000210F22C478002C20D0164C246814F4E8
:10483000E064D4F5E064240A2300D3F104042100E9
:10484000DA4044788C4023008478144023431B01D1
:1048500004780D4D6355047864110C4D01260778DA
:1048600017F01F07BE4045F8246009E00478641182
:10487000074D0126077817F01F07BE4045F8246052
:10488000F0BC70470CED00E000E400E000E100E067
:1048900080E100E000B583B001215FF08050FFF7B8
:1048A00062FD01210120FFF74FFD01215FF400109F
:1048B000FFF73BFD01215FF40030FFF736FD4FF4B9
:1048C000C050009003208DF8050002208DF80400F0
:1048D00000208DF8060000208DF8070000A95FF089
:1048E0009040FFF777FA0E220B215FF09040FFF720
:1048F000D9FA0E220C215FF09040FFF7D3FA012184
:104900000020FFF749F91220FFF773FF62481221D8
:1049100001606148002101715F48082141715E48D2
:10492000012181715C48FFF7A7FE0020FFF761FFBE
:1049300000F001F807BD00B595B001215FF400302B
:10494000FFF711FD072202215FF09040FFF7AAFA5E
:104950000420019001208DF8090002208DF8080044
:1049600000208DF80A0000208DF80B0001A95FF0EF
:104970009040FFF72FFA0820019000208DF80800E2
:1049800001A95FF09040FFF725FA01210120FFF710
:10499000CCFC424800F0C4F84148099041480A90D4
:1049A00010200B902020ADF8300000200D908020CA
:1049B0000E9000200F9000201090002011904FF4D6
:1049C000005012900020139009A9344800F02DF9EE
:1049D0000020049000200590002006900C200790F5
:1049E000002008905FF4E130039003A92E4800F006
:1049F00095F901212C4800F013FA012280212A4860
:104A000000F01BFA11208DF8000001208DF8010044
:104A100001208DF8020001208DF8030000A8FFF7A7
:104A2000FDFE012202211D4800F02FF901211B4843
:104A300000F01AF915B000BD10B5040024B2002C26
:104A40000DD40021154800F00FF9184824B2046075
:104A50001748144901600121104800F005F910BD04
:104A6000F8B504000D000D4800F00CF907003FB246
:104A7000002F02D07FF002000BE02A00210009483D
:104A800000F0E6F90600300000B2FFF7D5FF300075
:104A900000B2F2BD000000002001002080000240B2
:104AA0002844004078000020004400408400024078
:104AB0008C0002400EB478B5040005A80600310051
:104AC0002000FFF7CDFF0500280000B272BC5DF8A2
:104AD00010FBE0B501210120FFF736FC0121042085
:104AE000FFF7A0FD0120019000208DF808000820AC
:104AF0008DF8090001208DF80A0001A8FFF7BCFD20
:104B000007208DF8000000208DF8010000208DF8AE
:104B1000020001208DF8030000A8FFF77FFE07BD0B
:104B200001684FF6FE721140016000210160002112
:104B30004160002181600021C1606849884206D13E
:104B40006749096851F00F01654A11606CE06549D9
:104B5000884206D16249096851F0F001604A11604B
:104B600062E06149884206D15D49096851F470618B
:104B70005B4A116058E05D49884206D1584909688E
:104B800051F47041564A11604EE05949884206D1AD
:104B90005349096851F47021514A116044E0554964
:104BA000884206D14E49096851F470014C4A11609F
:104BB0003AE05149884206D14949096851F070618B
:104BC000474A116030E04D49884206D14C49096896
:104BD00051F00F014A4A116026E04A49884206D145
:104BE0004749096851F0F001454A11601CE0464907
:104BF000884206D14249096851F47061404A116007
:104C000012E04249884206D13D49096851F4704199
:104C10003B4A116008E03E49884205D1384909689D
:104C200051F47021364A1160704710B400220368B5
:104C30001A006FF30E128B680C6A23430C6923432E
:104C40004C6923438C692343CC6923434C6A234337
:104C50008C6A23431A4302608B8943600B6883602C
:104C60004B68C36010BC7047C9B2002904D0026809
:104C700052F00102026004E002684FF6FE731A402F
:104C800002607047406880B27047D2B2002A03D0F9
:104C900003680B43036002E003688B4303607047C3
:104CA000010000200022CB0003D51A4B1B681A001C
:104CB00002E0194B1B681A000A4202D001231800B7
:104CC00001E000231800C0B27047C10002D50C49B2
:104CD000086001E0024908607047000008000240D7
:104CE000040002401C000240300002404400024028
:104CF000580002406C00024080000240080402405C
:104D0000040402401C0402403004024044040240F7
:104D10005804024000040240000002402DE9F04126
:104D200090B004000D00002600275FF00008206806
:104D30004008400020606068804638F44058A86809
:104D400050EA0808C4F8048020688046334810EA16
:104D500008086868E96808432969084350EA0808B0
:104D6000C4F80080A068804638F44078686950EA4A
:104D70000808C4F8088000A8FFF7C2F82348844256
:104D800002D10A98070013E02148844202D10B980F
:104D900007000DE01F48844202D10C98070007E08D
:104DA0001D48844202D10D98070001E00E980700CB
:104DB000206800040CD578002968B0FBF1F00600EB
:104DC00078002968B0FBF1F201FB1200804609E08F
:104DD0002868B7FBF0F006002868B7FBF0F100FB8D
:104DE000117080462868B8EB500F00D3761C2068FD
:104DF000000407D5C6F3420080464FF6F0703040FD
:104E000058EA0006A68110B0BDE8F08100380140E4
:104E10000044004000480040004C0040F3E9FFFF20
:104E2000C9B2002904D0026852F00102026003E016
:104E300002685208520002607047D2B2002A03D0C2
:104E400083680B43836002E083688B438360704711
:104E500016B50446009401AB0A4600A906487844FA
:104E60001630FCF77FFA009900220A7000285CBF18
:104E70000098001B16BD00BFBBD1FFFF40B2002849
:104E800008D540B210F00F025A4BD2180B0102F8AD
:104E9000043C03E040B2584A0B018354704710B5FC
:104EA0000400B4F1807F01D3012010E02002000A49
:104EB000401E524908600F215FF0FF30FFF7DEFF10
:104EC0004F48002101604F4807210160002010BDBC
:104ED0004D48FFF715F842F210744B484068B0FB9C
:104EE000F4F0FFF7DCFF0020FEF710FE0120FEF7D4
:104EF0000DFE0220FEF70AFE0320FEF707FE042047
:104F0000FEF704FE0520FEF701FE0620FEF7FEFD7B
:104F10000720FEF7FBFD01210020FEF73DFEFFF715
:104F2000B9FCFDF775FFFDF707FFFDF7C8FF30A0DF
:104F3000FFF7C0FDFFF7CDFD344A35493548FDF791
:104F400086FE3548012101700FF24D00FEF7DBFEB1
:104F50000FF24900FEF7DFFE0FF24500FEF7E3FE19
:104F60000FF24100FEF7E7FE0FF2B900FEF7ECFE8C
:104F70000FF2BD00FEF7F1FE0FF2C100FEF7F6FEE4
:104F8000254800780028DFD02348002101702348FD
:104F9000FDF7A2FDD8E70000704700007047000051
:104FA0007047000000B587B00720FEF7D1FD1B4811
:104FB000C068FCF7B3F8CDE9040118488068FCF735
:104FC000ADF8CDE9020115484068FCF7A7F8CDE936
:104FD000000112480068FCF7A1F802000B0010481D
:104FE000FFF768FD0720FEF7BDFD07B000BD00001C
:104FF0000C0C000018ED00E000E400E014E000E01C
:1050000018E000E010E000E0B400002028010020DB
:1050100030010020380100207E0100203C000020EB
:105020008C53000880B50220FEF7A6FD01BD0000EC
:1050300080B50420FEF7A0FD01BD000080B506206C
:10504000FEF79AFD01BD000080B54D48006850F4A0
:1050500070004B4908604B48006850F00100494916
:105060000860494800684949084047490860454880
:10507000006847490840434908604248006830F4E6
:105080008020404908604048006830F4FE003E49F6
:10509000086040480068000900013E4908603E4839
:1050A00000683E4908403C4908603D4800210160D5
:1050B00000F005F83B485FF00061016001BD82B07F
:1050C00000200190002000902E48006850F4A0209D
:1050D0002C4908602B48006810F4003000900198BB
:1050E000401C01900098002803D10198B0F5A06FF2
:1050F000F0D124480068800302D50120009001E02F
:10510000002000900098012838D127481221016022
:105110001D481D49096801601B481B490968016059
:105120001948006850F48060174908601648006804
:1051300030F47C10144908601348006850F4E810FB
:10514000114908600F48006850F080700D490860F0
:105150000C4800688001FBD50B480068800880007F
:10516000094908600848006850F0020006490860D4
:105170000548006810F00C000828F9D102B070470B
:1051800088ED00E000100240041002400CC07FF8DF
:10519000FFFFF6FE2C10024030100240CCFC00FF56
:1051A0000810024008ED00E0002002407047FEE7D2
:1051B000FEE7FEE7FEE770477047704780B5FEF7F1
:1051C00069FDFEF771FD2C480068401E2A49086001
:1051D00001BD80B50020FFF7EAFA012834D1002094
:1051E000FEF72AFD00282FD0244800210160234823
:1051F00000682349884205D220480068401C1F49A6
:105200000860F4E70020FEF717FD0028FAD11B48DC
:1052100000210160194800681949884205D21748E1
:105220000068401C15490860F4E716480068401CF7
:105230001449086013480068032802D3114800216C
:1052400001600020FFF7D5FA01BD80B50120FFF70E
:10525000D0FA0020FEF790FC0120FEF779FC0A4A04
:105260000A490B48FDF7F3FC0120FEF77BFC0948D7
:105270000121017001BD00006400002050010020E8
:10528000FFFF07007C0100202801002030010020E2
:10529000380100207E01002080B55FF00070FFF72C
:1052A000FFFC002803D05FF08070FFF70EFD0320A5
:1052B000FEF762FC01BD704780B51220FFF799FA36
:1052C00001BD000010B5074979441831064C7C44F3
:1052D000163404E0081D0A68511888470146A142A7
:1052E000F8D110BD080000002800000057C0FFFFE3
:1052F0000C01000078000020000000006FBEFFFFDE
:1053000078000000F4010000000000200000000010
:10531000000020000000200000002000000020000D
:1053200000002000000020000000200000002000FD
:105330004EF68851CEF20001086840F47000086013
:105340004FF00070E1EE100A7047000000F009F81D
:10535000002801D0FFF7B6FF0020FFF7B9FD00F0ED
:1053600002F80120704700F001B8000007463846F7
:1053700000F002F8FBE70000C046C046024A1100F8
:105380001820ABBEFBE700BF2600020025662C25D7
:10539000662C25662C25662C0A0000000002000100
:1053A00000040080000800400010002001488047F1
:1053B0000148004749500008BD530008C046C04698
:1053C000FFF7B6FFFFF7C2FF00000200FFF7EEBED7
:1053D000FFF7EDBEFFF7ECBEFFF7EBBEFFF7EABE4F
:1053E000FFF7E9BEFFF7E8BEFFF7E7BEFFF7E6BE4F
:1053F000FFF7FEBFFFF7FEBFFFF7FEBFFFF7FEBFE1
:10540000FFF7FEBFFFF7FEBFFFF7E3BEFFF71DBFCD
:10541000FFF7FEBFFFF7FEBFFFF7FEBFFFF7FEBFC0
:10542000FFF7FEBFFFF7FEBFFFF7FEBFFFF7FEBFB0
:10543000FFF7FEBFFFF730BFFFF7FEBFFFF7FEBF6E
:10544000FFF739BFFFF7FEBFFFF7FEBFFFF7FEBF55
:10545000FFF7FEBFFFF7FEBFFFF7FEBFFFF7FEBF80
:10546000FFF7FEBFFFF7FEBFFFF7FEBFFFF7FEBF70
:10547000FFF7FEBFFFF7FEBFFFF7FEBFFFF7FEBF60
:10548000FFF7FEBFFFF7FEBFFFF7FEBFFFF7FEBF50
:10549000FFF7FEBFFFF7FEBFFFF70EBFFFF7FEBF30
:1054A000FFF7FEBFFFF7FEBFFFF7FEBFFFF7FEBF30
:1054B000FFF7FEBFFFF7FEBFFFF7FEBFFFF7FEBF20
:1054C000FFF7FEBFFFF7FEBFFFF7FEBFFFF7FEBF10
:1054D000FFF7FEBFFFF7FEBFFFF7FEBFFFF7FEBF00
:1054E000FFF7FEBFFFF7FEBFFFF7FEBFFFF7FEBFF0
:1054F000FFF7FEBFFFF7FEBF001000480010004896
:10550000001000480010004800100048001000483B
:1055100000100048001000480000010002000400D4
:10552000060008000A000C00100020004000800067
:10553000000100000000803F0000000000000000AB
:105540000000000000000000010203040102030447
:1055500006070809CDCC8C3F0000803F64000000A6
:105560000000803F000000480010000000A0000084
:04000005080053BDDF
:00000001FF
